:020000040800F2
:100000006804002045010008930500088B050008DE
:100010008F050008B901000829170008000000003A
:10002000000000000000000000000000C5060008FD
:10003000BD0100080000000041060008B1070008EB
:100040005F0100085F0100085F0100085F01000810
:100050005F0100085F0100085F010008C10100089E
:100060005F010008390200085F0100085F01000815
:100070005F0100085F0100085F0100085F010008E0
:100080005F0100085F0100085F0100085F010008D0
:100090005F0100085F0100085F0100085F010008C0
:1000A0005F0100085F0100085F0100085F010008B0
:1000B000950A00085F0100085F0100085F01000861
:1000C0005F0100085F0100085F0100085F01000890
:1000D0005F0100085F0100085F0100085F01000880
:1000E0005F0100085F0100085F0100085F01000870
:1000F000A50D00085F010008710B00085F010008F2
:100100005F0100085F0100085F0100085F0100084F
:100110005F0100085F0100081D0B00085F01000877
:100120005F0100085F0100085F0100085F0100082F
:10013000DFF80CD000F02EF80048004761190008E5
:10014000680400200648804706480047FEE7FEE7AF
:10015000FEE7FEE7FEE7FEE7FEE7FEE7FEE7FEE777
:10016000F50700083101000830B50B4601460020B4
:100170002022012409E021FA02F59D4205D303FA69
:1001800002F5491B04FA02F52844151EA2F10102EA
:10019000F1DC30BD064C074D06E0E06840F001039D
:1001A00094E8070098471034AC42F6D3FFF7C4FF39
:1001B000F8190008181A000800BFFEE77047000091
:1001C00010B5022000F07CF850B30221154800F071
:1001D000CCF901280ED10021800701F03EF9002062
:1001E000114908700121880700F02AFE01200F49FB
:1001F000087012E000214FF0804000F021FE0B4813
:10020000007850B10848007820B9012008490870EA
:1002100008490870002005490870022000F04AF8DB
:1002200010BD0000001801406000002062000020A6
:10023000400000206400002010B5082000F040F8C5
:1002400050B3082000F036F80821144800F08DF96A
:1002500001280ED10021124801F0FFF800201149B9
:10026000087001210E4800F0EBFD01200E490870D6
:1002700012E000210A4800F0E3FD0B48007858B175
:100280000848007828B90120084908700220084968
:10029000087000200449087010BD000000180140DB
:1002A0000010004061000020630000206400002076
:1002B000400000200149086070470000140401401C
:1002C000014600200022074B1B6803EA0102054B90
:1002D00014331B680B4013B10AB1012000E0002069
:1002E0007047000000040140002123498279002A60
:1002F0003AD00A46126803689A430B461A600A1DF0
:10030000126803689A430B1D1A60027911440A6847
:1003100003681A430A60184A0832126803689A434D
:10032000154B08331A601A1D126803689A43124B62
:100330000C331A604279102A0ED11A1F1268036812
:100340001A430D4B08331A601A1D126803681A43CA
:10035000094B0C331A600DE00749427911440A68D1
:1003600003681A430A6005E0027911440A680368C9
:100370009A430A60704700000004014000B587B04E
:100380000121042000F05EF90121082000F07AF933
:10039000C020ADF8180004208DF81B0003208DF854
:1003A0001A0006A9194800F055F80020ADF80C0015
:1003B000ADF80E0041F63F70ADF810000020ADF82A
:1003C00012008DF8140003A9114801F075F80A23F2
:1003D0001A4603210E4800F043FE684600F0D0FEA6
:1003E0000620ADF808006946094800F073FE0121B7
:1003F000074800F01FFD0021054801F02EF80121FB
:10040000034800F01DFD07B000BD0000000C0140D6
:100410000008004030B500228B071C0F0F2303FAA1
:1004200004F20B4B8C1053F824309343084C8D107E
:1004300044F8253023468C1053F824308C07240FC1
:1004400000FA04F42343024C8D1044F8253030BDEB
:10045000080001402DE9F041024600250026002059
:1004600000230024002791F803C00CF00F0591F839
:1004700003C00CF0100CBCF1000F03D091F802C0C7
:100480004CEA050591F800C0BCF1000F31D01468AA
:1004900000202BE04FF0010C0CFA00F3B1F800C083
:1004A0000CEA03069E4220D183004FF00F0C0CFA99
:1004B00003F7BC4305FA03FC4CEA040491F803C0BB
:1004C000BCF1280F06D14FF0010C0CFA00FCC2F869
:1004D00014C00AE091F803C0BCF1480F05D14FF0F9
:1004E000010C0CFA00FCC2F810C0401C0828D1D343
:1004F0001460B1F800C0BCF1FF0F34DD5468002077
:100500002EE000F1080C4FF0010808FA0CF3B1F8E6
:1005100000C00CEA03069E4221D183004FF00F0C6D
:100520000CFA03F7BC4305FA03FC4CEA040491F807
:1005300003C0BCF1280F05D100F1080C08FA0CF833
:10054000C2F8148091F803C0BCF1480F07D100F144
:10055000080C4FF0010808FA0CF8C2F81080401C93
:100560000828CED35460BDE8F0810246002093688D
:100570000B400BB1012000E0002070474161704743
:100580000AB1016100E04161704700BFFEE700BFB2
:10059000FEE7704770B5002100230F22C47804B332
:1005A000154C246804F4E064C4F5E064210AC1F148
:1005B0000403CA40447804FA03F1847814402143C8
:1005C00009010E4C0678A155047804F01F0501249A
:1005D000AC4005786D11AD0005F1E025C5F800418E
:1005E00009E0047804F01F050124AC40044D0678AE
:1005F000761145F8264070BD0CED00E000E400E007
:1006000080E100E002490143024A116070470000A6
:100610000000FA050CED00E010B5002807DA0A0723
:10062000140E054A00F00F031B1FD45403E00A0701
:10063000130E024A135410BD18ED00E000E400E070
:100640007047000029B1064AD2690243044BDA61BF
:1006500004E0034AD2698243014BDA61704700002B
:100660000010024029B1064A12690243044B1A6184
:1006700004E0034A12698243014B1A61704700008B
:100680000010024029B1064A92690243044B9A6164
:1006900004E0034A92698243014B9A61704700006B
:1006A0000010024029B1064AD2680243044BDA60C6
:1006B00004E0034AD2688243014BDA6070470000CD
:1006C00000100240704710B500F002F810BD0000A5
:1006D0000CB50020019000903348006840F4803051
:1006E0003149086000BF3048006800F400300090D5
:1006F0000198401C0190009818B90198B0F5A06FBE
:10070000F1D12948006800F4003010B101200090B8
:1007100001E0002000900098012843D123480068A0
:1007200040F01000214908600846006820F00300EE
:1007300008600846006840F0020008601A484068F7
:10074000194948600846406848600846406840F4D7
:10075000806048600846406820F47C104860084685
:10076000406840F4E81048600846006840F0807037
:10077000086000BF0C48006800F000700028F9D045
:100780000948406820F0030007494860084640686F
:1007900040F00200486000BF0348406800F00C00D1
:1007A0000828F9D10CBD00000010024000200240D2
:1007B00070B50D4C01F0A4F8D22148434FF47A7182
:1007C000484300EB8000450095FBF4F007490860C2
:1007D00007480078C0F10100054908700846007814
:1007E00008B900F079FF70BD7826070008000020E6
:1007F0004100002010B51348006840F00100114985
:10080000086008464068104908400E49486008469C
:1008100000680E4908400B4908600846006820F44B
:10082000802008600846406820F4FE0048604FF4CD
:100830001F008860FFF747FF4FF000600449086021
:1008400010BD0000001002400000FFF8FFFFF6FEA0
:1008500008ED00E0F0B50C46154600220021068C9C
:100860004FF6FE773E400684028B018C4FF60C76E5
:1008700032407E1C06EA03162E433243104EB0422D
:100880000ED0104EB0420BD0B0F1804F08D00E4EBB
:10089000B04205D00D4EB04202D00D4EB04206D14E
:1008A0004FF6FD76314044F00106314305E04FF646
:1008B000F576314044F00106314302830184F0BDF6
:1008C000002C0140003401400004004000080040BA
:1008D000000C0040F0B50C46154600220021002611
:1008E000078C4FF6EF7C07EA0C070784028B018C1C
:1008F0004FF6FF7707EA041640F6FF473A404FF6F7
:10090000FF7707EA03373A434FF6FF7707EA0527F1
:100910003A43114FB8420ED0104FB8420BD0B0F14D
:10092000804F08D00E4FB84205D00E4FB84202D0CB
:100930000D4FB84206D14FF6DF77394046F0100729
:10094000394305E04FF65F77394044F010073943EB
:1009500002830184F0BD0000002C014000340140FE
:100960000004004000080040000C0040F0B50C46B8
:100970001546002200210026078C4FF6FF6C07EA7F
:100980000C070784828B018C4FF6FF7707EA042659
:100990004FF60C773A404FF6FF7707EA03172F43DD
:1009A0003A43114FB8420ED0104FB8420BD0B0F1BD
:1009B000804F08D00E4FB84205D00E4FB84202D03B
:1009C0000D4FB84206D14FF6FF57394046F48077B5
:1009D000394305E04FF2FF57394044F480773943FB
:1009E00082830184F0BD0000002C014000340140EE
:1009F0000004004000080040000C0040F0B50C4628
:100A00001546002200210026078C4EF6FF7C07EADF
:100A10000C070784828B018C4FF6FF7707EA0436B8
:100A200040F6FF473A404FF6FF7707EA05273A437B
:100A30004FF6FF7707EA03373A43114FB8420ED01B
:100A4000104FB8420BD0B0F1804F08D00E4FB842D3
:100A500005D00E4FB84202D00D4FB84206D14DF628
:100A6000FF77394046F48057394305E047F6FF5792
:100A7000394044F48057394382830184F0BD00003B
:100A8000002C0140003401400004004000080040F8
:100A9000000C004010B501200349087001218007B7
:100AA00000F0CBF910BD0000600000201FB501214F
:100AB0000846FFF7C7FD4FF0804000F0DDF940F633
:100AC000B830ADF808004720ADF804000020ADF8BC
:100AD0000A00ADF8060001A94FF0804000F0ECFCE0
:100AE00001221146900700F054FB00214FF0804096
:100AF00000F0A6F91C208DF8000002208DF80100FE
:100B00008DF8020001208DF803006846FFF742FDD2
:100B10000121880700F091F91FBD00000120014963
:100B200008707047610000200EB501211020FFF70A
:100B300089FD0E4800F0A0F940F6B830ADF8040089
:100B40004720ADF800000020ADF80600ADF8020027
:100B50006946064800F0B0FC01221146034800F047
:100B600018FB0021014800F06BF90EBD0010004099
:100B700010B50821434800F09BFA01283DD1082117
:100B8000404800F05AF93F4800F08BFA3E490860AF
:100B90003E48006840F2537148433B49096801EB05
:100BA00040103B490968401A3A4908603A480068D1
:100BB0006421B0FBF1F0D221484300EB80004000FB
:100BC0003649086033490868C11700EB91718910F4
:100BD00040F627125143324A1160304800681146EE
:100BE0000968B0FBF1F02F49086000202749086030
:100BF000254800682649086042E01021214800F09D
:100C000057FA01283CD110211E4800F016F91D4862
:100C100000F04AFA244908602448006840F2537101
:100C200048432149096801EB401021490968401AED
:100C3000204908601C4800681D49086000201B49C5
:100C40000860154800686421B0FBF1F0D2214843E8
:100C500000EB800040001149086016490868C11780
:100C600000EB9171891040F6271251430C4A116034
:100C70000A48006811460968B0FBF1F00E490860A7
:100C800010BD0000003401401000002028000020AA
:100C90001400002020000020440000203800002024
:100CA0003C00002030000020180000202C00002014
:100CB0001C000020240000203400002000B589B072
:100CC00001214803FFF7DEFC01211020FFF7DAFCC9
:100CD0004FF44070ADF8040028208DF80700032081
:100CE0008DF8060001A92D48FFF7B4FB4FF44071C1
:100CF0002A48FFF743FC4EF65F20ADF81000632052
:100D0000ADF80C000020ADF81200ADF80E008DF823
:100D1000140003A9224800F0CFFB06A800F030FA27
:100D20000820ADF818000020ADF81A000120ADF839
:100D30001C000820ADF81E000020ADF8200006A918
:100D4000174800F0C7F90C20ADF8180006A91448A0
:100D500000F0C0F92E208DF8080002208DF809005F
:100D60008DF80A0001208DF80B0002A8FFF712FC95
:100D70002C208DF8080001208DF809008DF80A005C
:100D800002A8FFF707FC01221921054800F001FA2B
:100D90000121034800F054F809B000BD00100140E3
:100DA0000034014010B50121174800F081F90128F5
:100DB00029D116480068401C14490860084600689C
:100DC000052809DD002012490860104800680A283B
:100DD00002DD0A200D4908600E480068401C0D49DC
:100DE000086008460068052809DD00200A490860F7
:100DF000084800680A2802DD0A2006490860012127
:100E0000014800F01AF810BD00340140280000200D
:100E1000300000202C0000203400002021B1028886
:100E200042F08002028004E002884FF67F731A408D
:100E300002807047CA4302827047CA4302827047E9
:100E400021B1028842F00102028004E002884FF6DC
:100E5000FE731A400280704731B1B0F8442042F46A
:100E60000042A0F8442005E0B0F84420C2F30E028E
:100E7000A0F844207047000010B50446684884423A
:100E800008D10121C014FFF70DFC0021E014FFF789
:100E900009FCC4E0B4F1804F08D101210846FFF7F6
:100EA000E1FB00210120FFF7DDFBB8E05D48844253
:100EB00008D101210220FFF7D5FB00210220FFF716
:100EC000D1FBACE05848844208D101210420FFF74F
:100ED000C9FB00210420FFF7C5FBA0E05348844272
:100EE00008D101210820FFF7BDFB00210820FFF7F2
:100EF000B9FB94E04E48844208D101211020FFF74D
:100F0000B1FB00211020FFF7ADFB88E04948844287
:100F100008D101212020FFF7A5FB00212020FFF7A9
:100F2000A1FB7CE04448844208D101214014FFF732
:100F3000B9FB00216014FFF7B5FB70E03F48844225
:100F400009D10121C804FFF7ADFB00214FF40020B7
:100F5000FFF7A8FB63E03A48844209D10121080564
:100F6000FFF7A0FB00214FF48010FFF79BFB56E03A
:100F70003448844209D101214805FFF793FB002141
:100F80004FF40010FFF78EFB49E02F48844208D150
:100F900001214020FFF766FB00214020FFF762FBA4
:100FA0003DE02A48844208D101218020FFF75AFB06
:100FB00000218020FFF756FB31E02548844208D10C
:100FC00001218015FFF74EFB0021A015FFF74AFB1A
:100FD00025E02048844209D101210804FFF762FB83
:100FE00000214FF48030FFF75DFB18E01A4884427F
:100FF00009D101214804FFF755FB00214FF40030CF
:10100000FFF750FB0BE01548844208D1012188040A
:10101000FFF748FB00214FF48020FFF743FB10BD92
:10102000002C01400004004000080040000C00407B
:10103000001000400014004000340140004C01400A
:10104000005001400054014000180040001C0040C6
:1010500000200040004001400044014000480140A1
:10106000F0B50C4615461E460021002200230189DA
:10107000028B038C4FF6F877394021434FF6FC473B
:101080003A4040F201173A434FF6DD773B404FF6C6
:10109000FF7707EA06172F433B430181028303844E
:1010A000F0BD0146888F70470146B1F84000704797
:1010B00030B50246002000230024158A05EA01030A
:1010C000958905EA010413B10CB1012000E000206C
:1010D00030BD000070B505460C46244885420ED050
:1010E000234885420BD0B5F1804F08D02148854276
:1010F00005D02148854202D02048854200D100E039
:1011000000BF208850B92389A28861882846FFF74C
:10111000A1FBE188284600F0A2F925E020880428F8
:101120000AD12389A28861882846FFF7D3FBE1888A
:10113000284600F09DF917E0208808280AD1238965
:10114000A28861882846FFF711FCE188284600F054
:101150009CF909E02389A28861882846FFF74EFCA4
:10116000E188284600F09AF970BD0000002C01408B
:10117000003401400004004000080040000C004022
:10118000002101804180012181800021C1800181F5
:1011900070471AB183890B43838102E083898B43B3
:1011A0008381704770B5002400220023058C4FF620
:1011B000FE7635400584028C8388048B4FF68F754C
:1011C0002C40B51E2C400D882C43751E2A400D89DD
:1011D0002A434D882A43144DA8420BD0134DA842F0
:1011E00008D0134DA84205D0124DA84202D0124D8E
:1011F000A84213D14FF6F7752A404D892A434FF67E
:10120000FB752A408D882A434FF6FF652B404FF629
:10121000FF552B408D892B43CD892B43838004833D
:10122000CD888586028470BD002C014000340140C9
:101230000040014000440140004801400A460021AE
:10124000018B4FF6F773194011430183704700007B
:1012500070B5002400220023058C4FF6EF76354050
:101260000584028C8388048B48F6FF752C404FF66A
:10127000FF452C400D884FF6FF7606EA05252C43E6
:101280004FF6DF752A400D8906EA05152A434D8879
:1012900006EA05152A43154DA84202D0144DA8426E
:1012A0001DD14FF67F752A404D894FF6FF7606EA2D
:1012B00005152A434FF6BF752A408D8806EA0515A5
:1012C0002A434FF6FF352B404FF2FF752B408D8997
:1012D00006EA85052B43CD8906EA85052B438380E5
:1012E0000483CD880587028470BD0000002C014076
:1012F000003401400A460021018B4FF2FF73194070
:101300004FF6FF7303EA022319430183704700007D
:1013100070B5002400220023058C4FF6FF6635408F
:101320000584028C8388848B4FF68F752C404FF692
:10133000FC752C400D882C434FF6FF552A400D8933
:101340004FF6FF7606EA05252A434D8806EA05256D
:101350002A43154DA84202D0144DA8421DD14FF288
:10136000FF752A404D894FF6FF7606EA05252A4388
:101370004FF6FF352A408D8806EA05252A434EF6AA
:10138000FF752B404DF6FF752B408D8906EA05153C
:101390002B43CD8906EA05152B4383808483CD88B2
:1013A0008587028470BD0000002C0140003401409C
:1013B0000A460021818B4FF6F77319401143818350
:1013C0007047000070B5002200230024058C4EF603
:1013D000FF7635400584038C8488828B48F6FF7540
:1013E0002A404FF6FF452A400D884FF6FF7606EA61
:1013F00005252A434DF6FF752B400D8906EA053574
:101400002B434D8806EA05352B430B4DA84202D0ED
:101410000A4DA84208D14BF6FF752C408D894FF636
:10142000FF7606EA85152C4384808283CD88A0F858
:101430004050038470BD0000002C01400034014086
:101440000A460021818B4FF2FF7319404FF6FF735C
:1014500003EA022319438183704781847047028B1A
:101460004FF6F3731A400283028B0A4302837047DC
:10147000028B4FF2FF331A400283028B4FF6FF7349
:1014800003EA01231A4302837047828B4FF6F373FA
:101490001A408283828B0A4382837047828B4FF289
:1014A000FF331A408283828B4FF6FF7303EA0123D6
:1014B0001A43828370470000002202881D4B984225
:1014C0000ED01D4B98420BD0B0F1804F08D01B4B73
:1014D000984205D01A4B984202D01A4B984204D138
:1014E0004FF68F731A404B881A43174B984207D018
:1014F000164B984204D04FF6FF431A40CB881A434C
:1015000002808B8883850B8803850A4B98420BD019
:10151000094B984208D00E4B984205D00D4B98428B
:1015200002D00D4B984201D10B7A038601238382AE
:1015300070470000002C01400034014000040040CE
:1015400000080040000C0040001000400014004063
:1015500000400140004401400048014070B588B09F
:1015600006460C46154601210420FFF78BF818208B
:101570008DF81F0003208DF81E000F20ADF81C0011
:1015800007A92548FEF766FF01210820FFF75AF852
:10159000ADF81060ADF814400020ADF8120004A9B9
:1015A0001E48FFF789FF6020ADF800000020ADF86D
:1015B0000800ADF806500120ADF802006946184851
:1015C000FFF7F0FD69461648FFF742FE69461448EA
:1015D000FFF79EFE69461248FFF7F4FE08210F4808
:1015E000FFF72CFE08210D48FFF784FE08210B4869
:1015F000FFF7DEFE08210948FFF722FF0121074817
:10160000FFF70CFC01210548FFF71AFC01210348F4
:10161000FFF722FC08B070BD00080140000C00403C
:10162000002C01401FB501214120FFF72BF81020AD
:101630008DF8030003208DF802000520ADF80000AE
:1016400069462448FEF706FF04208DF803000A20AF
:10165000ADF8000069461F48FEF7FCFE002201219C
:101660001C48FEF78DFF002204211A48FEF788FF70
:101670000A20FEF71FFE01210420FEF7CBFE0A2000
:10168000019000208DF8080010208DF8090001203D
:101690008DF80A0001A8FEF727FE03210420FEF7BB
:1016A000B9FE01A8FEF720FE07208DF80C000320EC
:1016B0008DF80D008DF80E0001208DF80F0003A8A5
:1016C000FEF768FF09208DF80C0003A8FEF762FF03
:1016D0001FBD00000018014010B51048007810B977
:1016E00000200F49087000200C49087001221146A3
:1016F0000C48FEF745FF012204210A48FEF740FF8F
:101700000F2000F0DDF8002201210648FEF738FF27
:10171000002204210348FEF733FF10BD64000020BF
:10172000400000200018014000BFFEE70FB4054B49
:1017300010B503A9044A029800F018F810BC5DF82F
:1017400014FB0000DD1800085800002002E008C863
:10175000121F08C1002AFAD170477047002001E02B
:1017600001C1121F002AFBD1704700002DE9FF4F75
:1017700089B09B460446002506E025280BD05A4632
:101780000B999047641C6D1C20780028F5D10DB092
:101790002846BDE8F08F0027B8460122474900E0FF
:1017A000074314F8013F203B02FA03F00842F7D147
:1017B00020782E2819D114F8010F47F004072A28A1
:1017C0000ED06FF02F022078A0F1300109290CD83B
:1017D00008EB880102EB410100EB0108641CF2E711
:1017E0000A98641C50F8048B0A9020780028CED008
:1017F000642808D0692806D075281ED05A460B994F
:1018000090476D1C58E00A994FF00A0901C90A91E6
:10181000002802DA40422D2102E0390504D52B21AF
:101820008DF82010012103E0F90704D02021F7E70B
:101830008A4608AE0DE00021FAE70A994FF00A093E
:1018400001C90A91F7E74946FEF78EFC303106F8E8
:10185000011D0028F7D1ADEB060000F12009780743
:1018600001D44FF00108C84502DDA8EB090000E0F3
:1018700000208046002706E008A85A46C05D0B9964
:1018800090476D1C7F1C5745F6DB04E030205A461C
:101890000B9990476D1CB8F10001A8F10108F5DC27
:1018A00005E016F8010B5A460B9990476D1CB9F1EB
:1018B0000001A9F10109F4DC641C65E709280100B5
:1018C000002107E0002201E0531C9AB2092AFBDB49
:1018D0004B1C99B28142F5DB70470000074A126841
:1018E00002F0807242B100BF4FF060421268002ADD
:1018F000FAD04FF06043187070470000FCED00E034
:1019000013480088134908600846006812490968AE
:10191000401A124908600846006810F57A6F05DA27
:101920000846006800F5FA5008600AE00B480068B5
:10193000B0F57A6F05DD09480068A0F5FA5007494F
:10194000086003480088044908600448006870473C
:10195000240800400C0000200000002004000020AB
:10196000472431251E264FF4A060FEF74BFE324679
:1019700029462046FFF7F2FDFEF700FD00F014F8BF
:10198000FFF79CF9FFF792F8FFF7CEF8FFF74AFE52
:1019900006E04FF08040818C02A0FFF7C7FE00BF39
:1019A000F7E700002564200010B5124800684FF4E6
:1019B0007A71B0FBF1F0322100FB01F4B4F1807FC9
:1019C00000D311E024F07F40401E4FF0E021486139
:1019D0000F214FF0FF30FEF71FFE00204FF0E021F7
:1019E00088610720086100BF0021481EFEF714FE31
:1019F00010BD000044000020181A0008000000205C
:101A0000680000004C170008801A000868000020D9
:101A1000000400005C170008000000000000000047
:101A2000000000000000000000000000FFFFFFFFBA
:101A300000000000FFFFFFFF0000000000000000AA
:101A40000000000000000000000000000000000096
:101A500000000000000000000000000000A24A0496
:101A6000000000000000000001020304060708094E
:101A70000000000000000000000000000000000066
:0400000508000145A9
:00000001FF
