:020000040800F2
:10000000E804002045010008970500088F05000856
:1000100093050008B9010008F91700080000000066
:10002000000000000000000000000000C9060008F9
:10003000BD0100080000000045060008B5070008E3
:100040005F0100085F0100085F0100085F01000810
:100050005F0100085F0100085F010008C10100089E
:100060005F010008390200085F0100085F01000815
:100070005F0100085F0100085F0100085F010008E0
:100080005F0100085F0100085F0100085F010008D0
:100090005F0100085F0100085F0100085F010008C0
:1000A0005F0100085F0100085F0100085F010008B0
:1000B000C90A00085F0100085F0100085F0100082D
:1000C0005F0100085F0100085F0100085F01000890
:1000D0005F0100085F0100085F0100085F01000880
:1000E0005F0100085F0100085F0100085F01000870
:1000F000590E00085F010008A50B00085F01000809
:100100005F0100085F0100085F0100085F0100084F
:100110005F0100085F010008510B00085F01000843
:100120005F0100085F0100085F0100085F0100082F
:10013000DFF80CD000F02EF8004800473D1A000808
:10014000E80400200648804706480047FEE7FEE72F
:10015000FEE7FEE7FEE7FEE7FEE7FEE7FEE7FEE777
:10016000290800083101000830B50B46014600207F
:100170002022012409E021FA02F59D4205D303FA69
:1001800002F5491B04FA02F52844151EA2F10102EA
:10019000F1DC30BD064C074D06E0E06840F001039D
:1001A00094E8070098471034AC42F6D3FFF7C4FF39
:1001B000C81C0008E81C000800BFFEE770470000EC
:1001C00010B5022000F07CF850B3022000F072F865
:1001D0000221144800F0C9F901280ED1002180073E
:1001E00001F095F90020104908700121880700F0FE
:1001F00081FE01200D49087012E000214FF080407F
:1002000000F078FE0948007850B10748007820B91E
:100210000120074908700749087000200349087049
:1002200010BD000000180140900000209200002046
:10023000480000209400002010B5082000F040F88D
:1002400050B3082000F036F80821144800F08DF96A
:1002500001280ED10021124801F059F9002011495E
:10026000087001210E4800F045FE01200E4908707B
:1002700012E000210A4800F03DFE0B48007858B11A
:100280000848007828B90120084908700220084968
:10029000087000200449087010BD000000180140DB
:1002A00000100040910000209300002094000020E6
:1002B0004800002001490860704700001404014014
:1002C000014600200022074B1B6803EA0102054B90
:1002D00014331B680B4013B10AB1012000E0002069
:1002E0007047000000040140002123498279002A60
:1002F0003AD00A46126803689A430B461A600A1DF0
:10030000126803689A430B1D1A60027911440A6847
:1003100003681A430A60184A0832126803689A434D
:10032000154B08331A601A1D126803689A43124B62
:100330000C331A604279102A0ED11A1F1268036812
:100340001A430D4B08331A601A1D126803681A43CA
:10035000094B0C331A600DE00749427911440A68D1
:1003600003681A430A6005E0027911440A680368C9
:100370009A430A60704700000004014000B587B04E
:100380000121042000F060F90121082000F07CF92F
:10039000C020ADF8180004208DF81B0003208DF854
:1003A0001A0006A9194800F055F80020ADF80C0015
:1003B000ADF80E0041F63F70ADF810000020ADF82A
:1003C00012008DF8140003A9114801F0CFF80A2398
:1003D0001A4603210E4800F09DFE684600F02AFFF1
:1003E0000620ADF808006946094800F0CDFE01215D
:1003F000074800F079FD0021054801F088F8012147
:10040000034800F077FD07B000BD0000000C01407C
:100410000008004030B500228B071C0F0F2303FAA1
:1004200004F20B4B8C1053F824309343084C8D107E
:1004300044F8253023468C1053F824308C07240FC1
:1004400000FA04F42343024C8D1044F8253030BDEB
:10045000080001402DE9F041024600250026002059
:1004600000230024002791F803C00CF00F0591F839
:1004700003C00CF0100CBCF1000F03D091F802C0C7
:100480004CEA050591F800C0BCF1000F31D01468AA
:1004900000202BE04FF0010C0CFA00F3B1F800C083
:1004A0000CEA03069E4220D183004FF00F0C0CFA99
:1004B00003F7BC4305FA03FC4CEA040491F803C0BB
:1004C000BCF1280F06D14FF0010C0CFA00FCC2F869
:1004D00014C00AE091F803C0BCF1480F05D14FF0F9
:1004E000010C0CFA00FCC2F810C0401C0828D1D343
:1004F0001460B1F800C0BCF1FF0F34DD5468002077
:100500002EE000F1080C4FF0010808FA0CF3B1F8E6
:1005100000C00CEA03069E4221D183004FF00F0C6D
:100520000CFA03F7BC4305FA03FC4CEA040491F807
:1005300003C0BCF1280F05D100F1080C08FA0CF833
:10054000C2F8148091F803C0BCF1480F07D100F144
:10055000080C4FF0010808FA0CF8C2F81080401C93
:100560000828CED35460BDE8F0810246002093688D
:100570000B400BB1012000E0002070474161704743
:10058000016170470AB1016100E04161704700BF3D
:10059000FEE700BFFEE7704770B5002100230F2281
:1005A000C47804B3154C246804F4E064C4F5E06432
:1005B000210AC1F10403CA40447804FA03F18478A3
:1005C0001440214309010E4C0678A155047804F02B
:1005D0001F050124AC4005786D11AD0005F1E02543
:1005E000C5F8004109E0047804F01F050124AC407F
:1005F000044D0678761145F8264070BD0CED00E0FC
:1006000000E400E080E100E002490143024A116099
:10061000704700000000FA050CED00E010B500285E
:1006200007DA0A07140E054A00F00F031B1FD45403
:1006300003E00A07130E024A135410BD18ED00E040
:1006400000E400E07047000029B1064AD269024385
:10065000044BDA6104E0034AD2698243014BDA6158
:10066000704700000010024029B1064A1269024397
:10067000044B1A6104E0034A12698243014B1A6178
:10068000704700000010024029B1064A92690243F7
:10069000044B9A6104E0034A92698243014B9A61D8
:1006A000704700000010024029B1064AD268024398
:1006B000044BDA6004E0034AD2688243014BDA60FB
:1006C0007047000000100240704710B500F002F8BB
:1006D00010BD00000CB50020019000903348006868
:1006E00040F480303149086000BF3048006800F4B1
:1006F000003000900198401C0190009818B90198B2
:10070000B0F5A06FF1D12948006800F4003010B1B5
:100710000120009001E0002000900098012843D1C2
:100720002348006840F0100021490860084600682E
:1007300020F0030008600846006840F002000860EE
:100740001A484068194948600846406848600846A9
:10075000406840F4806048600846406820F47C109F
:1007600048600846406840F4E81048600846006861
:1007700040F08070086000BF0C48006800F0007016
:100780000028F9D00948406820F003000749486074
:100790000846406840F00200486000BF03484068D7
:1007A00000F00C000828F9D10CBD00000010024038
:1007B0000020024010B501F011F9154908601548F4
:1007C0001549086012480068D22148434FF47A71F5
:1007D000484300EB8000400010490860084600686C
:1007E0000D49096890FBF1F00D4908600D4800784B
:1007F000C0F101000B4908700846007808B900F004
:10080000D3FF01221146104601F06CF910BD000023
:100810004C00002078260700440000204000002003
:10082000100000204900002010B51348006840F077
:1008300001001149086008464068104908400E4907
:100840004860084600680E4908400B4908600846A1
:10085000006820F4802008600846406820F4FE000C
:1008600048604FF41F008860FFF72FFF4FF00060D3
:100870000449086010BD0000001002400000FFF8AD
:10088000FFFFF6FE08ED00E0F0B50C46154600222D
:100890000021068C4FF6FE773E400684028B018CC9
:1008A0004FF60C7632407E1C06EA03162E43324386
:1008B000104EB0420ED0104EB0420BD0B0F1804F6F
:1008C00008D00E4EB04205D00D4EB04202D00D4EB3
:1008D000B04206D14FF6FD76314044F00106314377
:1008E00005E04FF6F576314044F0010631430283CE
:1008F0000184F0BD002C01400034014000040040A0
:1009000000080040000C0040F0B50C4615460022DF
:1009100000210026078C4FF6EF7C07EA0C070784BE
:10092000028B018C4FF6FF7707EA041640F6FF476B
:100930003A404FF6FF7707EA03373A434FF6FF771F
:1009400007EA05273A43114FB8420ED0104FB8427C
:100950000BD0B0F1804F08D00E4FB84205D00E4FEB
:10096000B84202D00D4FB84206D14FF6DF7739407A
:1009700046F01007394305E04FF65F77394044F001
:100980001007394302830184F0BD0000002C0140B0
:10099000003401400004004000080040000C00400A
:1009A000F0B50C461546002200210026078C4FF6B4
:1009B000FF6C07EA0C070784828B018C4FF6FF77E8
:1009C00007EA04264FF60C773A404FF6FF7707EA1E
:1009D00003172F433A43114FB8420ED0104FB8427D
:1009E0000BD0B0F1804F08D00E4FB84205D00E4F5B
:1009F000B84202D00D4FB84206D14FF6FF573940EA
:100A000046F48077394305E04FF2FF57394044F40C
:100A10008077394382830184F0BD0000002C0140BF
:100A2000003401400004004000080040000C004079
:100A3000F0B50C461546002200210026078C4EF624
:100A4000FF7C07EA0C070784828B018C4FF6FF7747
:100A500007EA043640F6FF473A404FF6FF7707EAC9
:100A600005273A434FF6FF7707EA03373A43114F1A
:100A7000B8420ED0104FB8420BD0B0F1804F08D022
:100A80000E4FB84205D00E4FB84202D00D4FB842BB
:100A900006D14DF6FF77394046F48057394305E0DB
:100AA00047F6FF57394044F4805739438283018425
:100AB000F0BD0000002C0140003401400004004063
:100AC00000080040000C004010B5012003490870E8
:100AD0000121800700F00BFA10BD000090000020FB
:100AE0001FB501210846FFF7AFFD4FF0804000F031
:100AF0001DFA40F6B830ADF808004720ADF8040004
:100B00000020ADF80A00ADF8060001A94FF08040C2
:100B100000F02CFD01221146900700F094FB00210B
:100B20004FF0804000F0E6F91C208DF80000022014
:100B30008DF801008DF8020001208DF80300684651
:100B4000FFF72AFD0121880700F0D1F91FBD000041
:100B50000120014908707047910000200EB5012165
:100B60001020FFF771FD0E4800F0E0F940F6B830B4
:100B7000ADF804004720ADF800000020ADF80600F5
:100B8000ADF802006946064800F0F0FC012211466B
:100B9000034800F058FB0021014800F0ABF90EBDFE
:100BA0000010004010B502215848FFF7DEFC012874
:100BB00002D15749087002E0002055490870082109
:100BC000544800F0CFFA01284CD10821514800F0D8
:100BD0008EF9504800F0BFFA4F4908604F4800684E
:100BE00040F2537148434C49096801EB40104C49AD
:100BF0000968401A4B49086000214A48006800F023
:100C00003DFF48490860484800686421B0FBF1F0A6
:100C1000D221484300EB800040004449086041482D
:100C2000006840F627114843414908603848007879
:100C300038B13E4800680968B0FBF1F03D490860F2
:100C400008E03A480068404239490968B0FBF1F0D1
:100C5000384908600020314908602F480068304951
:100C6000086051E010212B4800F07CFA01284BD19C
:100C70001021284800F03BF9264800F06FFA2E4971
:100C800008602E48006840F2537148432A490968B9
:100C900001EB40102A490968401A2A4908600121DD
:100CA0002848006800F0EAFE264908601E480068EF
:100CB0006421B0FBF1F0D221484300EB80004000FA
:100CC0001A4908601F48006840F627114843184930
:100CD00008600F48007838B1144800680968B0FB14
:100CE000F1F01949086008E01048006840421049D6
:100CF0000968B0FBF1F0144908600F48006810491A
:100D0000086000200D49086010BD00000018014077
:100D10008400002000340140180000203000002032
:100D20001C0000202800002054000020400000206B
:100D30004400002038000020200000203400002063
:100D4000240000202C0000203C00002000B589B0C9
:100D500001214803FFF798FC01211020FFF794FCC4
:100D60004FF44070ADF8040028208DF807000320F0
:100D70008DF8060001A93548FFF76CFB4FF4407170
:100D80003248FFF7FBFB4EF65F20ADF81000632002
:100D9000ADF80C000020ADF81200ADF80E008DF893
:100DA000140003A92A4800F0E1FB06A800F042FA6B
:100DB0000820ADF818000020ADF81A000120ADF8A9
:100DC0001C000020ADF81E00ADF8200006A9204848
:100DD00000F0DAF90C20ADF8180006A91C4800F064
:100DE000D3F92E208DF8080002208DF809008DF827
:100DF0000A0001208DF80B0002A8FFF7CDFB2C2084
:100E00008DF8080001208DF809008DF80A0002A86D
:100E1000FFF7C2FB012219210D4800F014FA01214D
:100E20000B4800F067F801214020FFF72DFC04205B
:100E30008DF8070003208DF806006020ADF804004F
:100E400001A90448FFF706FB09B000BD00100140EE
:100E5000003401400018014010B50121174800F08E
:100E600081F9012829D116480068401C14490860FE
:100E700008460068052809DD00201249086010486E
:100E800000680A2802DD0A200D4908600E48006843
:100E9000401C0D49086008460068052809DD00204F
:100EA0000A490860084800680A2802DD0A20064945
:100EB00008600121014800F01AF810BD003401401B
:100EC0003000002038000020340000203C000020CA
:100ED00021B1028842F08002028004E002884FF6CD
:100EE0007F731A4002807047CA4302827047CA4328
:100EF0000282704721B1028842F00102028004E0C0
:100F000002884FF6FE731A400280704731B1B0F884
:100F1000442042F40042A0F8442005E0B0F8442008
:100F2000C2F30E02A0F844207047000010B504463A
:100F30006848844208D10121C014FFF7B5FB0021A5
:100F4000E014FFF7B1FBC4E0B4F1804F08D10121F8
:100F50000846FFF789FB00210120FFF785FBB8E079
:100F60005D48844208D101210220FFF77DFB00216A
:100F70000220FFF779FBACE05848844208D10121F8
:100F80000420FFF771FB00210420FFF76DFBA0E0B8
:100F90005348844208D101210820FFF765FB002156
:100FA0000820FFF761FB94E04E48844208D10121FC
:100FB0001020FFF759FB00211020FFF755FB88E0B8
:100FC0004948844208D101212020FFF74DFB002130
:100FD0002020FFF749FB7CE04448844208D10121EE
:100FE0004014FFF761FB00216014FFF75DFB70E028
:100FF0003F48844209D10121C804FFF755FB002175
:101000004FF40020FFF750FB63E03A48844209D1D7
:1010100001210805FFF748FB00214FF48010FFF77E
:1010200043FB56E03448844209D101214805FFF7CB
:101030003BFB00214FF40010FFF736FB49E02F483F
:10104000844208D101214020FFF70EFB00214020FF
:10105000FFF70AFB3DE02A48844208D101218020A5
:10106000FFF702FB00218020FFF7FEFA31E0254860
:10107000844208D101218015FFF7F6FA0021A0155E
:10108000FFF7F2FA25E02048844209D10121080443
:10109000FFF70AFB00214FF48030FFF705FB18E053
:1010A0001A48844209D101214804FFF7FDFA0021C2
:1010B0004FF40030FFF7F8FA0BE01548844208D1EE
:1010C00001218804FFF7F0FA00214FF48020FFF798
:1010D000EBFA10BD002C0140000400400008004065
:1010E000000C00400010004000140040003401409B
:1010F000004C0140005001400054014000180040E5
:10110000001C00400020004000400140004401401D
:1011100000480140F0B50C4615461E46002100224D
:1011200000230189028B038C4FF6F8773940214365
:101130004FF6FC473A4040F201173A434FF6DD774D
:101140003B404FF6FF7707EA06172F433B430181E9
:1011500002830384F0BD0146888F70470146B1F8D1
:101160004000704730B50246002000230024158A55
:1011700005EA0103958905EA010413B10CB10120C8
:1011800000E0002030BD000070B505460C46244844
:1011900085420ED0234885420BD0B5F1804F08D050
:1011A0002148854205D02148854202D02048854209
:1011B00000D100E000BF208850B92389A28861884F
:1011C0002846FFF761FBE188284600F0A2F925E0F8
:1011D000208804280AD12389A28861882846FFF73D
:1011E00093FBE188284600F09DF917E02088082845
:1011F0000AD12389A28861882846FFF7D1FBE188BC
:10120000284600F09CF909E02389A28861882846D5
:10121000FFF70EFCE188284600F09AF970BD000047
:10122000002C014000340140000400400008004050
:10123000000C0040002101804180012181800021BB
:10124000C180018170471AB183890B43838102E019
:1012500083898B438381704770B50024002200236B
:10126000058C4FF6FE7635400584028C8388048B0E
:101270004FF68F752C40B51E2C400D882C43751EE3
:101280002A400D892A434D882A43144DA8420BD089
:10129000134DA84208D0134DA84205D0124DA842C4
:1012A00002D0124DA84213D14FF6F7752A404D894E
:1012B0002A434FF6FB752A408D882A434FF6FF6577
:1012C0002B404FF6FF552B408D892B43CD892B4367
:1012D00083800483CD888586028470BD002C014004
:1012E00000340140004001400044014000480140FA
:1012F0000A460021018B4FF6F77319401143018311
:101300007047000070B5002400220023058C4FF6C2
:10131000EF7635400584028C8388048B48F6FF7590
:101320002C404FF6FF452C400D884FF6FF7606EA1D
:1013300005252C434FF6DF752A400D8906EA051571
:101340002A434D8806EA05152A43154DA84202D0C6
:10135000144DA8421DD14FF67F752A404D894FF696
:10136000FF7606EA05152A434FF6BF752A408D8899
:1013700006EA05152A434FF6FF352B404FF2FF755D
:101380002B408D8906EA85052B43CD8906EA850524
:101390002B4383800483CD880587028470BD0000C1
:1013A000002C0140003401400A460021018B4FF21D
:1013B000FF7319404FF6FF7303EA022319430183B9
:1013C0007047000070B5002400220023058C4FF602
:1013D000FF6635400584028C8388848B4FF68F75B9
:1013E0002C404FF6FC752C400D882C434FF6FF55D2
:1013F0002A400D894FF6FF7606EA05252A434D88D7
:1014000006EA05252A43154DA84202D0144DA842EC
:101410001DD14FF2FF752A404D894FF6FF7606EA3F
:1014200005252A434FF6FF352A408D8806EA052513
:101430002A434EF6FF752B404DF6FF752B408D89E4
:1014400006EA05152B43CD8906EA05152B43838053
:101450008483CD888587028470BD0000002C014004
:10146000003401400A460021818B4FF6F773194082
:10147000114381837047000070B5002200230024CF
:10148000058C4EF6FF7635400584038C8488828B6C
:1014900048F6FF752A404FF6FF452A400D884FF663
:1014A000FF7606EA05252A434DF6FF752B400D8988
:1014B00006EA05352B434D8806EA05352B430B4DCF
:1014C000A84202D00A4DA84208D14BF6FF752C4025
:1014D0008D894FF6FF7606EA85152C43848082833A
:1014E000CD88A0F84050038470BD0000002C01405E
:1014F000003401400A460021818B4FF2FF731940EE
:101500004FF6FF7303EA02231943818370478184F6
:101510007047028B4FF6F3731A400283028B0A4323
:1015200002837047028B4FF2FF331A400283028B13
:101530004FF6FF7303EA01231A4302837047828B3D
:101540004FF6F3731A408283828B0A43828370477B
:10155000828B4FF2FF331A408283828B4FF6FF73E8
:1015600003EA01231A4382837047000000220288A5
:101570001D4B98420ED01D4B98420BD0B0F1804FBE
:1015800008D01B4B984205D01A4B984202D01A4BF8
:10159000984204D14FF68F731A404B881A43174B69
:1015A000984207D0164B984204D04FF6FF431A409A
:1015B000CB881A4302808B8883850B8803850A4B6E
:1015C00098420BD0094B984208D00E4B984205D058
:1015D0000D4B984202D00D4B984201D10B7A0386F5
:1015E0000123838270470000002C01400034014039
:1015F0000004004000080040000C004000100040C3
:1016000000140040004001400044014000480140F7
:1016100038B505460C4601210420FFF735F818209F
:101620008DF8030003208DF802000F20ADF80000B4
:1016300069462C48FEF70EFF01210820FFF704F849
:10164000294805802948008827498880002048804B
:101650002748FFF78BFF602026490880002008817B
:101660000846C480012048802148FFF7F5FD214944
:101670001F48FFF747FE1F491D48FFF7A3FE1D49FE
:101680001B48FFF7F9FE08211948FFF731FE082132
:101690001748FFF789FE08211548FFF7E3FE0821E8
:1016A0001348FFF727FF01211148FFF711FC012123
:1016B0000F48FFF71FFC01210D48FFF727FC012110
:1016C0002020FEF7E1FF10208DF8030003208DF8A5
:1016D0000200FF20ADF8000069460748FEF7BAFE99
:1016E00038BD0000000801409C00002002000020DE
:1016F000000C0040A6000020001401401FB501218D
:101700004120FEF7C1FF10208DF8030003208DF863
:1017100002000520ADF8000069462248FEF79AFE57
:1017200028208DF803000A20ADF8000069461D4806
:10173000FEF790FE002201211A48FEF723FF002247
:1017400004211848FEF71EFF0A20FEF7B3FD012111
:101750000420FEF75FFE03210420FEF75BFE0A2053
:10176000019000208DF8080010208DF8090001205C
:101770008DF80A0001A8FEF7B7FD07208DF80C00D0
:1017800003208DF80D008DF80E0001208DF80F005C
:1017900003A8FEF701FF09208DF80C0003A8FEF74F
:1017A000FBFE1FBD0018014010B51048007810B9AD
:1017B00000200F49087000200C49087001221146D2
:1017C0000C48FEF7DFFE012204210A48FEF7DAFE8C
:1017D0000F2000F0E3F8002201210648FEF7D2FEB8
:1017E000002204210348FEF7CDFE10BD9400002026
:1017F000480000200018014000BFFEE70FB4054B71
:1018000010B503A9044A029800F018F810BC5DF85E
:1018100014FB0000B91900086800002002E008C8A5
:10182000121F08C1002AFAD170477047002001E05A
:1018300001C1121F002AFBD1704700002DE9FF4FA4
:1018400089B09B460446002506E025280BD05A4661
:101850000B999047641C6D1C20780028F5D10DB0C1
:101860002846BDE8F08F0027B8460122474900E02E
:10187000074314F8013F203B02FA03F00842F7D176
:1018800020782E2819D114F8010F47F004072A28D0
:101890000ED06FF02F022078A0F1300109290CD86A
:1018A00008EB880102EB410100EB0108641CF2E740
:1018B0000A98641C50F8048B0A9020780028CED037
:1018C000642808D0692806D075281ED05A460B997E
:1018D00090476D1C58E00A994FF00A0901C90A9116
:1018E000002802DA40422D2102E0390504D52B21DF
:1018F0008DF82010012103E0F90704D02021F7E73B
:101900008A4608AE0DE00021FAE70A994FF00A096D
:1019100001C90A91F7E74946FEF726FC303106F87F
:10192000011D0028F7D1ADEB060000F12009780772
:1019300001D44FF00108C84502DDA8EB090000E022
:1019400000208046002706E008A85A46C05D0B9993
:1019500090476D1C7F1C5745F6DB04E030205A464B
:101960000B9990476D1CB8F10001A8F10108F5DC56
:1019700005E016F8010B5A460B9990476D1CB9F11A
:101980000001A9F10109F4DC641C65E709280100E4
:10199000642001490860704750000020002107E0E2
:1019A000002201E0531C9AB2092AFBDB4B1C99B2BE
:1019B0008142F5DB70470000074A126802F080722E
:1019C00042B100BF4FF060421268002AFAD04FF0D7
:1019D0006043187070470000FCED00E01348008879
:1019E000134908600846006812490968401A1249FC
:1019F00008600846006810F57A6F05DA0846006846
:101A000000F5FA5008600AE00B480068B0F57A6FFC
:101A100005DD09480068A0F5FA5007490860034849
:101A200000880449086004480068704724080040A2
:101A300014000020080000200C0000204FF4A060DB
:101A4000FEF7E2FD0B4801880B480088FFF7E0FD38
:101A5000FEF794FC00F010F9FFF778F9FFF740F873
:101A6000FFF77CF8FFF74AFE02E0FFF791FF00BFA7
:101A7000FBE70000040000200000002070B50346D2
:101A8000164C54F8214001EB4105154E56F83550DF
:101A9000641B1C44114D45F8214001EB41043546BF
:101AA00005EBC404636104220FE001EB41040C4D1B
:101AB00005EBC405541C55F8244001EB4105084EC4
:101AC00006EBC50545F82240521E002AEDDA034C0C
:101AD00054F82140052594FBF5F070BD88000020E6
:101AE000B800002070B504460D4616464F48006801
:101AF0004F490968401A4F490860084600684E4936
:101B00000968401A60434B49096805FB01004949CF
:101B10000968494A1268022303FB1211474A1268F6
:101B2000114406FB010046490860434800684349E8
:101B300008604048006840490860424800684049E1
:101B4000096808443F49086008460068002819DA17
:101B500001213D48FEF714FD02213B48FEF70EFD32
:101B600038480068394909884942884204DA3748C8
:101B70000088404233490860324800884042344976
:101B8000C88015E002213048FEF7FAFC01212E48FA
:101B9000FEF7F4FC2B4800682C490988884203DDD5
:101BA0002A48008827490860264800882849C880B4
:101BB000204803681E4802682248016825A0FFF7F4
:101BC0001DFE23492B48FFF747FB21492948FFF712
:101BD00099FB1F492748FFF7F5FB1D492548FFF7EB
:101BE0004BFC08212348FFF783FB08212148FFF71E
:101BF000DBFB08211F48FFF735FC08211D48FFF7D4
:101C000079FC01211B48FFF763F901211948FFF70F
:101C100071F901211748FFF779F901211548FFF7FC
:101C200069F901211348FFF771F970BD50000020D8
:101C300010000020700000207400002078000020B8
:101C40007C000020800000200014014002000020E1
:101C5000A600002070756C7365203D2025642076F9
:101C6000203D2025642020657272203D20256420BF
:101C70000A000000000C004010B5124800684FF444
:101C80007A71B0FBF1F0322100FB01F4B4F1807FF6
:101C900000D311E024F07F40401E4FF0E021486166
:101CA0000F214FF0FF30FEF7B9FC00204FF0E0218C
:101CB00088610720086100BF0021481EFEF7AEFCC6
:101CC00010BD000054000020E81C000800000020A7
:101CD0009C0000001C180008841D00089C000020C7
:101CE0004C0400002C1800084700E8032C010000F9
:101CF00000000000000000000000000000000000E4
:101D000000000000FFFFFFFF00000000FFFFFFFFDB
:101D100000000000000000000000000000000000C3
:101D200000000000000000000000000000000000B3
:101D300000000000000000000000000000A24A04B3
:101D4000000000000000000001020304060708096B
:101D50000000000000000000000000000000000083
:101D60000000000000000000000000000100000072
:101D70000000000000000000000000000000000063
:041D8000000000005F
:0400000508000145A9
:00000001FF
