:020000040800F2
:10000000A004002045010008670500085F050008FE
:10001000630500088D01000871170008000000004A
:100020000000000000000000000000009906000829
:10003000910100080000000015060008850700086F
:100040005F0100085F0100085F0100085F01000810
:100050005F0100085F0100085F01000895010008CA
:100060005F0100080D0200085F0100085F01000841
:100070005F0100085F0100085F0100085F010008E0
:100080005F0100085F0100085F0100085F010008D0
:100090005F0100085F0100085F0100085F010008C0
:1000A0005F0100085F0100085F0100085F010008B0
:1000B000690A00085F0100085F0100085F0100088D
:1000C0005F0100085F0100085F0100085F01000890
:1000D0005F0100085F0100085F0100085F01000880
:1000E0005F0100085F0100085F0100085F01000870
:1000F000F90D00085F010008450B00085F010008CA
:100100005F0100085F0100085F0100085F0100084F
:100110005F0100085F010008F10A00085F010008A4
:100120005F0100085F0100085F0100085F0100082F
:10013000DFF80CD000F018F8004800470D18000850
:10014000A00400200648804706480047FEE7FEE777
:10015000FEE7FEE7FEE7FEE7FEE7FEE7FEE7FEE777
:10016000C907000831010008064C074D06E0E068A9
:1001700040F0010394E8070098471034AC42F6D3EE
:10018000FFF7DAFFFC1800081C19000800BFFEE7A3
:100190007047000010B5022000F07CF850B3022038
:1001A00000F072F80221144800F0C9F901280ED1BC
:1001B0000021800701F07BF900201049087001211F
:1001C000880700F067FE01200D49087012E0002149
:1001D0004FF0804000F05EFE0948007850B10748BB
:1001E000007820B9012007490870074908700020ED
:1001F0000349087010BD0000001801406400002091
:1002000066000020400000206800002010B5082093
:1002100000F040F850B3082000F036F808211448E8
:1002200000F08DF901280ED10021124801F03FF9AC
:1002300000201149087001210E4800F02BFE01201A
:100240000E49087012E000210A4800F023FE0B4816
:10025000007858B10848007828B90120084908708A
:1002600002200849087000200449087010BD0000F1
:1002700000180140001000406500002067000020C9
:10028000680000204000002001490860704700001D
:1002900014040140014600200022074B1B6803EABA
:1002A0000102054B14331B680B4013B10AB1012046
:1002B00000E00020704700000004014000212349B5
:1002C0008279002A3AD00A46126803689A430B469C
:1002D0001A600A1D126803689A430B1D1A6002799E
:1002E00011440A6803681A430A60184A08321268FF
:1002F00003689A43154B08331A601A1D1268036885
:100300009A43124B0C331A604279102A0ED11A1FED
:10031000126803681A430D4B08331A601A1D1268DD
:1003200003681A43094B0C331A600DE00749427900
:1003300011440A6803681A430A6005E0027911440F
:100340000A6803689A430A6070470000000401408D
:1003500000B587B00121042000F05EF901210820DA
:1003600000F07AF9C020ADF8180004208DF81B00C9
:1003700003208DF81A0006A9194800F055F800204E
:10038000ADF80C00ADF80E0041F63F70ADF810006E
:100390000020ADF812008DF8140003A9114801F0F7
:1003A000B5F80A231A4603210E4800F083FE68467A
:1003B00000F010FF0620ADF808006946094800F07B
:1003C000B3FE0121074800F05FFD0021054801F060
:1003D0006EF80121034800F05DFD07B000BD00008C
:1003E000000C01400008004030B500228B071C0FB4
:1003F0000F2303FA04F20B4B8C1053F82430934371
:10040000084C8D1044F8253023468C1053F82430C6
:100410008C07240F00FA04F42343024C8D1044F897
:10042000253030BD080001402DE9F041024600258D
:100430000026002000230024002791F803C00CF0C0
:100440000F0591F803C00CF0100CBCF1000F03D0A5
:1004500091F802C04CEA050591F800C0BCF1000F0C
:1004600031D0146800202BE04FF0010C0CFA00F39F
:10047000B1F800C00CEA03069E4220D183004FF081
:100480000F0C0CFA03F7BC4305FA03FC4CEA040416
:1004900091F803C0BCF1280F06D14FF0010C0CFA03
:1004A00000FCC2F814C00AE091F803C0BCF1480F88
:1004B00005D14FF0010C0CFA00FCC2F810C0401C32
:1004C0000828D1D31460B1F800C0BCF1FF0F34DDAF
:1004D000546800202EE000F1080C4FF0010808FAE3
:1004E0000CF3B1F800C00CEA03069E4221D1830050
:1004F0004FF00F0C0CFA03F7BC4305FA03FC4CEA6F
:10050000040491F803C0BCF1280F05D100F1080CD8
:1005100008FA0CF8C2F8148091F803C0BCF1480F37
:1005200007D100F1080C4FF0010808FA0CF8C2F8E6
:100530001080401C0828CED35460BDE8F0810246EC
:10054000002093680B400BB1012000E000207047B1
:10055000416170470AB1016100E04161704700BF2D
:10056000FEE700BFFEE7704770B5002100230F22B1
:10057000C47804B3154C246804F4E064C4F5E06462
:10058000210AC1F10403CA40447804FA03F18478D3
:100590001440214309010E4C0678A155047804F05B
:1005A0001F050124AC4005786D11AD0005F1E02573
:1005B000C5F8004109E0047804F01F050124AC40AF
:1005C000044D0678761145F8264070BD0CED00E02C
:1005D00000E400E080E100E002490143024A1160CA
:1005E000704700000000FA050CED00E010B500288F
:1005F00007DA0A07140E054A00F00F031B1FD45434
:1006000003E00A07130E024A135410BD18ED00E070
:1006100000E400E07047000029B1064AD2690243B5
:10062000044BDA6104E0034AD2698243014BDA6188
:10063000704700000010024029B1064A12690243C7
:10064000044B1A6104E0034A12698243014B1A61A8
:10065000704700000010024029B1064A9269024327
:10066000044B9A6104E0034A92698243014B9A6108
:10067000704700000010024029B1064AD2680243C8
:10068000044BDA6004E0034AD2688243014BDA602B
:100690007047000000100240704710B500F002F8EB
:1006A00010BD00000CB50020019000903348006898
:1006B00040F480303149086000BF3048006800F4E1
:1006C000003000900198401C0190009818B90198E2
:1006D000B0F5A06FF1D12948006800F4003010B1E6
:1006E0000120009001E0002000900098012843D1F3
:1006F0002348006840F0100021490860084600685F
:1007000020F0030008600846006840F0020008601E
:100710001A484068194948600846406848600846D9
:10072000406840F4806048600846406820F47C10CF
:1007300048600846406840F4E81048600846006891
:1007400040F08070086000BF0C48006800F0007046
:100750000028F9D00948406820F0030007494860A4
:100760000846406840F00200486000BF0348406807
:1007700000F00C000828F9D10CBD00000010024068
:100780000020024070B50D4C01F010F8D221484312
:100790004FF47A71484300EB8000450095FBF4F07C
:1007A0000749086007480078C0F101000549087052
:1007B0000846007808B900F0B3FF70BD782607003E
:1007C000080000204100002010B51348006840F0E8
:1007D00001001149086008464068104908400E4968
:1007E0004860084600680E4908400B490860084602
:1007F000006820F4802008600846406820F4FE006D
:1008000048604FF41F008860FFF747FF4FF000601B
:100810000449086010BD0000001002400000FFF80D
:10082000FFFFF6FE08ED00E0F0B50C46154600228D
:100830000021068C4FF6FE773E400684028B018C29
:100840004FF60C7632407E1C06EA03162E433243E6
:10085000104EB0420ED0104EB0420BD0B0F1804FCF
:1008600008D00E4EB04205D00D4EB04202D00D4E13
:10087000B04206D14FF6FD76314044F001063143D7
:1008800005E04FF6F576314044F00106314302832E
:100890000184F0BD002C0140003401400004004000
:1008A00000080040000C0040F0B50C461546002240
:1008B00000210026078C4FF6EF7C07EA0C0707841F
:1008C000028B018C4FF6FF7707EA041640F6FF47CC
:1008D0003A404FF6FF7707EA03373A434FF6FF7780
:1008E00007EA05273A43114FB8420ED0104FB842DD
:1008F0000BD0B0F1804F08D00E4FB84205D00E4F4C
:10090000B84202D00D4FB84206D14FF6DF773940DA
:1009100046F01007394305E04FF65F77394044F061
:100920001007394302830184F0BD0000002C014010
:10093000003401400004004000080040000C00406A
:10094000F0B50C461546002200210026078C4FF614
:10095000FF6C07EA0C070784828B018C4FF6FF7748
:1009600007EA04264FF60C773A404FF6FF7707EA7E
:1009700003172F433A43114FB8420ED0104FB842DD
:100980000BD0B0F1804F08D00E4FB84205D00E4FBB
:10099000B84202D00D4FB84206D14FF6FF5739404A
:1009A00046F48077394305E04FF2FF57394044F46D
:1009B0008077394382830184F0BD0000002C014020
:1009C000003401400004004000080040000C0040DA
:1009D000F0B50C461546002200210026078C4EF685
:1009E000FF7C07EA0C070784828B018C4FF6FF77A8
:1009F00007EA043640F6FF473A404FF6FF7707EA2A
:100A000005273A434FF6FF7707EA03373A43114F7A
:100A1000B8420ED0104FB8420BD0B0F1804F08D082
:100A20000E4FB84205D00E4FB84202D00D4FB8421B
:100A300006D14DF6FF77394046F48057394305E03B
:100A400047F6FF57394044F4805739438283018485
:100A5000F0BD0000002C01400034014000040040C3
:100A600000080040000C004010B501200349087048
:100A70000121800700F00BFA10BD00006400002087
:100A80001FB501210846FFF7C7FD4FF0804000F079
:100A90001DFA40F6B830ADF808004720ADF8040064
:100AA0000020ADF80A00ADF8060001A94FF0804023
:100AB00000F02CFD01221146900700F094FB00216C
:100AC0004FF0804000F0E6F91C208DF80000022075
:100AD0008DF801008DF8020001208DF803006846B2
:100AE000FFF742FD0121880700F0D1F91FBD00008A
:100AF0000120014908707047650000200EB50121F2
:100B00001020FFF789FD0E4800F0E0F940F6B830FC
:100B1000ADF804004720ADF800000020ADF8060055
:100B2000ADF802006946064800F0F0FC01221146CB
:100B3000034800F058FB0021014800F0ABF90EBD5E
:100B40000010004010B502215848FFF7F8FC0128BA
:100B500002D15749087002E0002055490870082169
:100B6000544800F0CFFA01284CD10821514800F038
:100B70008EF9504800F0BFFA4F4908604F480068AE
:100B800040F2537148434C49096801EB40104C490D
:100B90000968401A4B49086000214A48006800F083
:100BA00051FE48490860484800686421B0FBF1F0F4
:100BB000D221484300EB800040004449086041488E
:100BC000006840F6271148434149086038480078DA
:100BD00038B13E4800680968B0FBF1F03D49086053
:100BE00008E03A480068404239490968B0FBF1F032
:100BF000384908600020314908602F4800683049B2
:100C0000086051E010212B4800F07CFA01284BD1FC
:100C10001021284800F03BF9264800F06FFA2E49D1
:100C200008602E48006840F2537148432A49096819
:100C300001EB40102A490968401A2A49086001213D
:100C40002848006800F0FEFD264908601E4800683C
:100C50006421B0FBF1F0D221484300EB800040005A
:100C60001A4908601F48006840F627114843184990
:100C700008600F48007838B1144800680968B0FB74
:100C8000F1F01949086008E0104800684042104936
:100C90000968B0FBF1F0144908600F48006810497A
:100CA000086000200D49086010BD000000180140D8
:100CB00058000020003401401000002028000020CF
:100CC00014000020200000204400002038000020F4
:100CD0003C00002030000020180000202C000020E4
:100CE0001C000020240000203400002000B589B042
:100CF00001214803FFF7B0FC01211020FFF7ACFCF5
:100D00004FF44070ADF8040028208DF80700032050
:100D10008DF8060001A93548FFF786FB4FF44071B6
:100D20003248FFF715FC4EF65F20ADF81000632047
:100D3000ADF80C000020ADF81200ADF80E008DF8F3
:100D4000140003A92A4800F0E1FB06A800F042FACB
:100D50000820ADF818000020ADF81A000120ADF809
:100D60001C000020ADF81E00ADF8200006A92048A8
:100D700000F0DAF90C20ADF8180006A91C4800F0C4
:100D8000D3F92E208DF8080002208DF809008DF887
:100D90000A0001208DF80B0002A8FFF7E5FB2C20CC
:100DA0008DF8080001208DF809008DF80A0002A8CE
:100DB000FFF7DAFB012219210D4800F014FA012196
:100DC0000B4800F067F801214020FFF745FC0420A4
:100DD0008DF8070003208DF806006020ADF80400B0
:100DE00001A90448FFF720FB09B000BD0010014035
:100DF000003401400018014010B50121174800F0EF
:100E000081F9012829D116480068401C144908605E
:100E100008460068052809DD0020124908601048CE
:100E200000680A2802DD0A200D4908600E480068A3
:100E3000401C0D49086008460068052809DD0020AF
:100E40000A490860084800680A2802DD0A200649A5
:100E500008600121014800F01AF810BD003401407B
:100E600028000020300000202C000020340000204A
:100E700021B1028842F08002028004E002884FF62D
:100E80007F731A4002807047CA4302827047CA4388
:100E90000282704721B1028842F00102028004E020
:100EA00002884FF6FE731A400280704731B1B0F8E5
:100EB000442042F40042A0F8442005E0B0F8442069
:100EC000C2F30E02A0F844207047000010B504469B
:100ED0006848844208D10121C014FFF7CDFB0021EE
:100EE000E014FFF7C9FBC4E0B4F1804F08D1012141
:100EF0000846FFF7A1FB00210120FFF79DFBB8E0AA
:100F00005D48844208D101210220FFF795FB0021B2
:100F10000220FFF791FBACE05848844208D1012140
:100F20000420FFF789FB00210420FFF785FBA0E0E8
:100F30005348844208D101210820FFF77DFB00219E
:100F40000820FFF779FB94E04E48844208D1012144
:100F50001020FFF771FB00211020FFF76DFB88E0E8
:100F60004948844208D101212020FFF765FB002178
:100F70002020FFF761FB7CE04448844208D1012136
:100F80004014FFF779FB00216014FFF775FB70E058
:100F90003F48844209D10121C804FFF76DFB0021BD
:100FA0004FF40020FFF768FB63E03A48844209D120
:100FB00001210805FFF760FB00214FF48010FFF7C7
:100FC0005BFB56E03448844209D101214805FFF714
:100FD00053FB00214FF40010FFF74EFB49E02F4870
:100FE000844208D101214020FFF726FB0021402048
:100FF000FFF722FB3DE02A48844208D101218020EE
:10100000FFF71AFB00218020FFF716FB31E025488F
:10101000844208D101218015FFF70EFB0021A015A5
:10102000FFF70AFB25E02048844209D1012108048A
:10103000FFF722FB00214FF48030FFF71DFB18E083
:101040001A48844209D101214804FFF715FB002109
:101050004FF40030FFF710FB0BE01548844208D135
:1010600001218804FFF708FB00214FF48020FFF7DF
:1010700003FB10BD002C01400004004000080040AC
:10108000000C0040001000400014004000340140FB
:10109000004C014000500140005401400018004045
:1010A000001C00400020004000400140004401407E
:1010B00000480140F0B50C4615461E4600210022AE
:1010C00000230189028B038C4FF6F87739402143C6
:1010D0004FF6FC473A4040F201173A434FF6DD77AE
:1010E0003B404FF6FF7707EA06172F433B4301814A
:1010F00002830384F0BD0146888F70470146B1F832
:101100004000704730B50246002000230024158AB5
:1011100005EA0103958905EA010413B10CB1012028
:1011200000E0002030BD000070B505460C462448A4
:1011300085420ED0234885420BD0B5F1804F08D0B0
:101140002148854205D02148854202D02048854269
:1011500000D100E000BF208850B92389A2886188AF
:101160002846FFF761FBE188284600F0A2F925E058
:10117000208804280AD12389A28861882846FFF79D
:1011800093FBE188284600F09DF917E020880828A5
:101190000AD12389A28861882846FFF7D1FBE1881C
:1011A000284600F09CF909E02389A2886188284636
:1011B000FFF70EFCE188284600F09AF970BD0000A8
:1011C000002C0140003401400004004000080040B1
:1011D000000C00400021018041800121818000211C
:1011E000C180018170471AB183890B43838102E07A
:1011F00083898B438381704770B5002400220023CC
:10120000058C4FF6FE7635400584028C8388048B6E
:101210004FF68F752C40B51E2C400D882C43751E43
:101220002A400D892A434D882A43144DA8420BD0E9
:10123000134DA84208D0134DA84205D0124DA84224
:1012400002D0124DA84213D14FF6F7752A404D89AE
:101250002A434FF6FB752A408D882A434FF6FF65D7
:101260002B404FF6FF552B408D892B43CD892B43C7
:1012700083800483CD888586028470BD002C014064
:10128000003401400040014000440140004801405A
:101290000A460021018B4FF6F77319401143018371
:1012A0007047000070B5002400220023058C4FF623
:1012B000EF7635400584028C8388048B48F6FF75F1
:1012C0002C404FF6FF452C400D884FF6FF7606EA7E
:1012D00005252C434FF6DF752A400D8906EA0515D2
:1012E0002A434D8806EA05152A43154DA84202D027
:1012F000144DA8421DD14FF67F752A404D894FF6F7
:10130000FF7606EA05152A434FF6BF752A408D88F9
:1013100006EA05152A434FF6FF352B404FF2FF75BD
:101320002B408D8906EA85052B43CD8906EA850584
:101330002B4383800483CD880587028470BD000021
:10134000002C0140003401400A460021018B4FF27D
:10135000FF7319404FF6FF7303EA02231943018319
:101360007047000070B5002400220023058C4FF662
:10137000FF6635400584028C8388848B4FF68F7519
:101380002C404FF6FC752C400D882C434FF6FF5532
:101390002A400D894FF6FF7606EA05252A434D8837
:1013A00006EA05252A43154DA84202D0144DA8424D
:1013B0001DD14FF2FF752A404D894FF6FF7606EAA0
:1013C00005252A434FF6FF352A408D8806EA052574
:1013D0002A434EF6FF752B404DF6FF752B408D8945
:1013E00006EA05152B43CD8906EA05152B438380B4
:1013F0008483CD888587028470BD0000002C014065
:10140000003401400A460021818B4FF6F7731940E2
:10141000114381837047000070B50022002300242F
:10142000058C4EF6FF7635400584038C8488828BCC
:1014300048F6FF752A404FF6FF452A400D884FF6C3
:10144000FF7606EA05252A434DF6FF752B400D89E8
:1014500006EA05352B434D8806EA05352B430B4D2F
:10146000A84202D00A4DA84208D14BF6FF752C4085
:101470008D894FF6FF7606EA85152C43848082839A
:10148000CD88A0F84050038470BD0000002C0140BE
:10149000003401400A460021818B4FF2FF7319404E
:1014A0004FF6FF7303EA0223194381837047818457
:1014B0007047028B4FF6F3731A400283028B0A4384
:1014C00002837047028B4FF2FF331A400283028B74
:1014D0004FF6FF7303EA01231A4302837047828B9E
:1014E0004FF6F3731A408283828B0A4382837047DC
:1014F000828B4FF2FF331A408283828B4FF6FF7349
:1015000003EA01231A438283704700000022028805
:101510001D4B98420ED01D4B98420BD0B0F1804F1E
:1015200008D01B4B984205D01A4B984202D01A4B58
:10153000984204D14FF68F731A404B881A43174BC9
:10154000984207D0164B984204D04FF6FF431A40FA
:10155000CB881A4302808B8883850B8803850A4BCE
:1015600098420BD0094B984208D00E4B984205D0B8
:101570000D4B984202D00D4B984201D10B7A038655
:101580000123838270470000002C01400034014099
:101590000004004000080040000C00400010004023
:1015A0000014004000400140004401400048014058
:1015B00070B588B006460C46154601210420FFF799
:1015C0004BF818208DF81F0003208DF81E000F2007
:1015D000ADF81C0007A92548FEF726FF01210820C9
:1015E000FFF71AF8ADF81060ADF814400020ADF820
:1015F000120004A91E48FFF789FF6020ADF8000023
:101600000020ADF80800ADF806500120ADF802004A
:1016100069461748FFF7F0FD69461548FFF742FE97
:1016200069461348FFF79EFE69461148FFF7F4FE2E
:1016300008210F48FFF72CFE08210D48FFF784FE14
:1016400008210B48FFF7DEFE08210948FFF722FFBB
:1016500001210748FFF70CFC01210548FFF71AFCA0
:1016600001210348FFF722FC08B070BD00080140CB
:10167000000C00401FB501214120FEF7EDFF1020B6
:101680008DF8030003208DF802000520ADF800005E
:1016900069462248FEF7C8FE28208DF803000A207C
:1016A000ADF8000069461D48FEF7BEFE002201218C
:1016B0001A48FEF74FFF002204211848FEF74AFFA0
:1016C0000A20FEF7E1FD01210420FEF78DFE032133
:1016D0000420FEF789FE0A20019000208DF8080002
:1016E00010208DF8090001208DF80A0001A8FEF7EE
:1016F000E5FD07208DF80C0003208DF80D008DF816
:101700000E0001208DF80F0003A8FEF72DFF092021
:101710008DF80C0003A8FEF727FF1FBD001801403D
:1017200010B51048007810B900200F49087000204B
:101730000C490870012211460C48FEF70BFF0122EC
:1017400004210A48FEF706FF0F2000F022F80022CD
:1017500001210648FEF7FEFE002204210348FEF7A1
:10176000F9FE10BD68000020400000200018014074
:1017700000BFFEE702E008C8121F08C1002AFAD124
:1017800070477047002001E001C1121F002AFBD101
:101790007047002107E0002201E0531C9AB2092A99
:1017A000FBDB4B1C99B28142F5DB70471348008884
:1017B000134908600846006812490968401A12492E
:1017C00008600846006810F57A6F05DA0846006878
:1017D00000F5FA5008600AE00B480068B0F57A6F2F
:1017E00005DD09480068A0F5FA500749086003487C
:1017F00000880449086004480068704724080040D5
:101800000C000020000000200400002047243125A7
:101810001E264FF4A060FEF7DFFE32462946204622
:10182000FFF7C6FEFEF794FD00F040F8FFF75EFA02
:10183000FFF726F9FFF762F9FFF71CFF00E000BF92
:10184000FDE7000070B50346164C54F8214001EB4B
:101850004105154E56F83550641B1C44114D45F892
:10186000214001EB4104354605EBC40463610422C9
:101870000FE001EB41040C4D05EBC405541C55F879
:10188000244001EB4105084E06EBC50545F8224012
:10189000521E002AEDDA034C54F82140052594FB32
:1018A000F5F070BD5C0000207000002010B51248FB
:1018B00000684FF47A71B0FBF1F0322100FB01F4C3
:1018C000B4F1807F00D311E024F07F40401E4FF040
:1018D000E02148610F214FF0FF30FEF787FE002026
:1018E0004FF0E02188610720086100BF0021481EF9
:1018F000FEF77CFE10BD0000440000201C1900080B
:101900000000002070000000741700088C19000807
:101910007000002030040000841700080000000060
:1019200000000000000000000000000000000000B7
:10193000FFFFFFFF00000000FFFFFFFF00000000AF
:101940000000000000000000000000000000000097
:101950000000000000000000000000000000000087
:1019600000A24A040000000000000000010203047D
:101970000607080901000000000000000000000048
:0C1980000000000000000000000000005B
:0400000508000145A9
:00000001FF
