:020000040800F2
:100000009808002045010008B109000841090008CE
:10001000AD09000881040008551F00080000000019
:10002000000000000000000000000000890B000834
:100030008504000800000000610A0008B10E0008F5
:100040005F0100085F0100085F0100085F01000810
:100050005F0100085F0100085F01000889040008D3
:100060005F010008010500085F0100085F0100084A
:100070005F0100085F0100085F0100085F010008E0
:100080005F0100085F0100085F0100085F010008D0
:100090005F0100085F0100085F0100085F010008C0
:1000A0005F010008D91400085F0100082112000850
:1000B000511500085F0100085F0100085F0100089A
:1000C0005F0100085F0100085F0100085F01000890
:1000D0005F0100085F0100085F0100085F01000880
:1000E0005F0100085F0100085F0100085F01000870
:1000F0005F0100085F0100085F0100085F01000860
:100100005F0100085F0100085F0100085F0100084F
:100110005F0100085F010008D91500085F010008B1
:100120005F0100085F0100085F0100085F0100082F
:10013000DFF80CD000F018F8004800478D220008C6
:10014000980800200648804706480047FEE7FEE77B
:10015000FEE7FEE7FEE7FEE7FEE7FEE7FEE7FEE777
:10016000810F000831010008064C074D06E0E068E9
:1001700040F0010394E8070098471034AC42F6D3EE
:10018000FFF7DAFF202900084029000870B58C1815
:1001900010F8015B15F0070301D110F8013B2A119B
:1001A00006D110F8012B03E010F8016B01F8016B88
:1001B0005B1EF9D12B0705D40023521E0DD401F884
:1001C000013BFAE710F8013BCB1A921C03E013F84D
:1001D000015B01F8015B521EF9D5A142D8D3002082
:1001E00070BD21B1826842F00102826003E0826842
:1001F00022F001028260704710B504461248844222
:1002000008D10121401500F069FC0021601500F0C3
:1002100065FC17E00D48844208D10121001500F06B
:100220005DFC0021201500F059FC0BE008488442D9
:1002300008D10121C80300F051FC00214FF4004017
:1002400000F04CFC10BD00000024014000280140DB
:10025000003C0140014600208A6802F004020AB115
:10026000012000E0002070470146C86C80B2704752
:100270000246002013680B400BB1012000E0002073
:100280007047014600208A6802F008020AB1012086
:1002900000E000207047000030B502460020002337
:1002A00050680F4C20400D790C6844EA0524204327
:1002B000506090680B4C2040D1E902542C434D799A
:1002C00044EA450420439060D06A20F470000C7C1E
:1002D000641EE4B2234340EA0350D06230BD000004
:1002E000FFFEF0FFFDF7F1FFF0B504460D460020DC
:1002F0000021092D11DDE068A5F10A0606EB46078D
:10030000072606FA07F18843A5F10A0606EB46061A
:1003100003FA06F10843E0600CE0206905EB4507AD
:10032000072606FA07F1884305EB450603FA06F1AE
:1003300008432061072A0FDA606B561E06EB86071A
:100340001F2606FA07F18843561E06EB860605FAB5
:1003500006F10843606322E00D2A0FDA206BD61FF6
:1003600006EB86071F2606FA07F18843D61F06EB21
:10037000860605FA06F10843206310E0E06AA2F160
:100380000D0606EB86071F2606FA07F18843A2F141
:100390000D0606EB860605FA06F10843E062F0BD9D
:1003A000816841F008018160704721B1826842F4A0
:1003B000A002826003E0826822F4A002826070479B
:1003C000816841F0040181607047000000B587B08A
:1003D00001214FF4017000F071FB4FF4004000F078
:1003E00041FB2020ADF8040000208DF8070001A992
:1003F000214800F0D9F94020ADF8040010208DF814
:10040000070003208DF8060001A91B4800F0CCF975
:100410008020ADF8040001A9174800F0C5F917487D
:10042000FFF7EAFE002002908DF80C008DF80D0019
:100430004FF4602004900020059001208DF81800F2
:1004400002A90E48FFF728FF01210C48FFF7C9FE5B
:100450000A48FFF7A5FF00BF0848FFF712FF002872
:10046000FAD10648FFF7ACFF00BF0448FFF7F2FEE1
:100470000028FAD107B000BD000801400024014067
:1004800000BFFEE77047000010B5022000F07CF8C6
:1004900050B3022000F072F80221144800F00FFA65
:1004A00001280ED10021800701F0DFFB0020104958
:1004B00008700121880701F0CBF801200D49087070
:1004C00012E000214FF0804001F0C2F809480078A6
:1004D00050B10748007820B9012007490870074942
:1004E000087000200349087010BD0000001801408A
:1004F00014010020160100207400002018010020C3
:1005000010B5082000F040F850B3082000F036F88D
:100510000821144800F0D3F901280ED10021124817
:1005200001F0A3FB00201149087001210E4801F0E1
:100530008FF801200E49087012E000210A4801F0EE
:1005400087F80B48007858B10848007828B901208E
:100550000849087002200849087000200449087002
:1005600010BD0000001801400010004015010020DF
:1005700017010020180100207400002001490860C4
:100580007047000014040140014600200022074B80
:100590001B6803EA0102054B14331B680B4013B1BF
:1005A0000AB1012000E00020704700000004014073
:1005B000002123498279002A3AD00A46126803684A
:1005C0009A430B461A600A1D126803689A430B1D72
:1005D0001A60027911440A6803681A430A60184ACB
:1005E0000832126803689A43154B08331A601A1DC3
:1005F000126803689A43124B0C331A604279102A2E
:100600000ED11A1F126803681A430D4B08331A6083
:100610001A1D126803681A43094B0C331A600DE067
:100620000749427911440A6803681A430A6005E0E1
:10063000027911440A6803689A430A60704700000F
:100640000004014000B58DB00121042000F016FA2D
:100650000121082000F032FAC020ADF8300004205B
:100660008DF8330003208DF832000CA93A4800F0D1
:100670009BF80020ADF82400ADF8260041F63F704D
:10068000ADF828000020ADF82A008DF82C0009A94B
:10069000324801F019FB0A231A4603212F4801F0C2
:1006A000E7F806A801F074F90620ADF8200006A9C5
:1006B0002A4801F017F90121284800F0C3FF002162
:1006C000264801F0D2FA0121244800F0C1FF01219F
:1006D000480300F0F3F90121102000F0EFF9C020E9
:1006E000ADF8300004208DF8330003208DF832007F
:1006F0000CA91B4800F058F80020ADF80C00ADF82C
:100700000E0041F63F70ADF810000020ADF8120069
:100710008DF8140003A9134801F0D6FA0A231A46EB
:100720000321104801F0A4F8684601F031F90620D1
:10073000ADF8080069460B4801F0D4F801210948DA
:1007400000F080FF0021074801F08FFA01210548E1
:1007500000F07EFF0DB000BD000C0140000800401D
:10076000001001400034014030B500228B071C0FFF
:100770000F2303FA04F20B4B8C1053F824309343ED
:10078000084C8D1044F8253023468C1053F8243043
:100790008C07240F00FA04F42343024C8D1044F814
:1007A000253030BD080001402DE9F041024600250A
:1007B0000026002000230024002791F803C00CF03D
:1007C0000F0591F803C00CF0100CBCF1000F03D022
:1007D00091F802C04CEA050591F800C0BCF1000F89
:1007E00031D0146800202BE04FF0010C0CFA00F31C
:1007F000B1F800C00CEA03069E4220D183004FF0FE
:100800000F0C0CFA03F7BC4305FA03FC4CEA040492
:1008100091F803C0BCF1280F06D14FF0010C0CFA7F
:1008200000FCC2F814C00AE091F803C0BCF1480F04
:1008300005D14FF0010C0CFA00FCC2F810C0401CAE
:100840000828D1D31460B1F800C0BCF1FF0F34DD2B
:10085000546800202EE000F1080C4FF0010808FA5F
:100860000CF3B1F800C00CEA03069E4221D18300CC
:100870004FF00F0C0CFA03F7BC4305FA03FC4CEAEB
:10088000040491F803C0BCF1280F05D100F1080C55
:1008900008FA0CF8C2F8148091F803C0BCF1480FB4
:1008A00007D100F1080C4FF0010808FA0CF8C2F863
:1008B0001080401C0828CED35460BDE8F081024669
:1008C000002093680B400BB1012000E0002070472E
:1008D00041617047016170470AB1016100E0416107
:1008E000704710B5034600248B4202DD0C461946C2
:1008F0002346914202DD14460A4621468B4202DD20
:100900000C4619462346084610BD000010B50446A3
:100910000723012221460948FFF7E6FC0121074889
:10092000FFF743FD00BF02210448FFF7A1FC0028A8
:10093000F9D00248FFF798FC10BD000000240140E8
:1009400000BFFEE710B51648007816490870012070
:100950001549087018E0124C134B1B785B1CE25CC5
:100960002346114C2478195D0F4B1B785B1E0C4CF1
:10097000E05CFFF7B6FF0B490B4A127888540A482F
:100980000078401C08490870074800787F28E2DB9F
:10099000034890F87F00034981F87F0010BD0000F4
:1009A0009C0100201C0200204001002000BFFEE747
:1009B0007047000070B5002100230F22C47804B3F3
:1009C000154C246804F4E064C4F5E064210AC1F124
:1009D0000403CA40447804FA03F1847814402143A4
:1009E00009010E4C0678A155047804F01F05012476
:1009F000AC4005786D11AD0005F1E025C5F800416A
:100A000009E0047804F01F050124AC40044D067889
:100A1000761145F8264070BD0CED00E000E400E0E2
:100A200080E100E002490143024A11607047000082
:100A30000000FA050CED00E010B5002807DA0A07FF
:100A4000140E054A00F00F031B1FD45403E00A07DD
:100A5000130E024A135410BD18ED00E000E400E04C
:100A60007047000001460020034A506820F44040CF
:100A700008435060704700000010024029B1064A48
:100A8000D2690243044BDA6104E0034AD26982432B
:100A9000014BDA61704700000010024029B1064A9C
:100AA00012690243044B1A6104E0034A126982434B
:100AB000014B1A61704700000010024029B1064A3C
:100AC00092690243044B9A6104E0034A92698243AB
:100AD000014B9A61704700000010024029B1064A9C
:100AE000D2680243044BDA6004E0034AD2688243CE
:100AF000014BDA60704700000010024070B500241E
:100B0000002580211E48FFF7E3FE012001F026FBAF
:100B100080211B48FFF7DEFE012001F01FFB402172
:100B20001748FFF7D5FE012001F018FB40211448BB
:100B3000FFF7D0FE80211248FFF7CAFE012001F026
:100B40000DFB00BF18E040210D48FFF7C1FE01205A
:100B500001F004FB0520FFF7D9FEC0F30710094997
:100B60004855681CC5B240210548FFF7B3FE012077
:100B700001F0F4FA601CC4B2802CE4DB70BD00000C
:100B8000000801409C01002070470000F0B50020E3
:100B90005E4D2D686C425E4D2D681A2D03DA1A25C4
:100BA0005B4E356006E05A4D2D68652D02DD6525EA
:100BB000574E3560564D2D78564E357020E048B969
:100BC000554D544E367855F82650A54202DA514D0F
:100BD0002A78012001280ED14F4D4E4E367855F817
:100BE00026504A4E3668B54205DD4A4D2978022026
:100BF0008D1AEBB208E0474D2D786D1C454E3570CF
:100C0000444D2D787F2DDADB00BF02280ED1032B57
:100C10000CDD0F2B0ADA8D1805EBD57676103F4FD9
:100C20003E6001253E4E3570002003E000253C4E1D
:100C300035700020364D2D78364E357020E058B98D
:100C4000354D344E367855F82650304E3668B5421C
:100C500002DD304D2978012001280CD12E4D2D4E7A
:100C6000367855F82650A54205DA2A4D2A78022012
:100C70008D1AEBB208E0274D2D786D1E254E35708C
:100C8000244D2D78002DDADC00BF02280ED1032B75
:100C90000CDD0F2B0ADA8D1805EBD5767610214F77
:100CA0003E600125204E3570002003E000251E4ED9
:100CB000357000201C4D2D78012D0DD1184D2D784B
:100CC000012D09D1174E3668144F3F68F51905EB11
:100CD000D57676100E4F3E60134D2D78012D08D13C
:100CE0000F4D2D782DB90F4D2D681935084E3560F3
:100CF0000BE00D4D2D7845B9094D2D78012D04D10E
:100D0000064D2D68193D024E3560F0BD6001002092
:100D100054010020400100209C0200204C010020D2
:100D200050010020440100204801002000202049FB
:100D3000087031E01F491E480078401C085C1C4ABE
:100D40001278895C411A1C48194A127840F822101E
:100D50001749097850F8210018490968884206DDCA
:100D600015481349097850F82100144908601248C1
:100D70000F49097850F8210011490968884206DABC
:100D80000D480B49097850F821000D4908600848C2
:100D90000078401C06490870054800787F28C9DBA8
:100DA0000649086800EBD0714910064A1160704787
:100DB000400100201C0200209C020020580100205D
:100DC0005C0100206001002010B500F001F810BDAA
:100DD0000CB50020019000903348006840F480304A
:100DE0003149086000BF3048006800F400300090CE
:100DF0000198401C0190009818B90198B0F5A06FB7
:100E0000F1D12948006800F4003010B101200090B1
:100E100001E0002000900098012843D12348006899
:100E200040F01000214908600846006820F00300E7
:100E300008600846006840F0020008601A484068F0
:100E4000194948600846406848600846406840F4D0
:100E5000806048600846406820F47C10486008467E
:100E6000406840F4E81048600846006840F0807030
:100E7000086000BF0C48006800F000700028F9D03E
:100E80000948406820F00300074948600846406868
:100E900040F00200486000BF0348406800F00C00CA
:100EA0000828F9D10CBD00000010024000200240CB
:100EB0002C480068401C2B490860084600682A49F5
:100EC00090FBF1F201FB1200264908600846006819
:100ED0000A2190FBF1F201FB120018B9012023490D
:100EE000086002E00020214908601E4800683221A5
:100EF00090FBF1F201FB120018B901201C490860B7
:100F000002E000201A490860164800686B2190FB37
:100F1000F1F201FB120018B901201649086002E045
:100F20000020144908600F480068672190FBF1F227
:100F300001FB120018B901200F49086002E00020EF
:100F40000D490860074800680E2190FBF1F201FB93
:100F5000120018B901200949086002E00020074981
:100F6000086070478C00002080EE36009000002062
:100F70009C0000209800002094000020A000002089
:100F800010B51348006840F0010011490860084698
:100F90004068104908400E494860084600680E49FC
:100FA00008400B4908600846006820F4802008606B
:100FB0000846406820F4FE0048604FF41F00886037
:100FC000FFF702FF4FF000600449086010BD000009
:100FD000001002400000FFF8FFFFF6FE08ED00E001
:100FE000F0B50C46154600220021068C4FF6FE7720
:100FF0003E400684028B018C4FF60C7632407E1CFC
:1010000006EA03162E433243104EB0420ED0104E65
:10101000B0420BD0B0F1804F08D00E4EB04205D098
:101020000D4EB04202D00D4EB04206D14FF6FD76C5
:10103000314044F00106314305E04FF6F57631408A
:1010400044F00106314302830184F0BD002C0140CD
:10105000003401400004004000080040000C004043
:10106000F0B50C461546002200210026078C4FF6ED
:10107000EF7C07EA0C070784028B018C4FF6FF77A1
:1010800007EA041640F6FF473A404FF6FF7707EAB3
:1010900003373A434FF6FF7707EA05273A43114FE4
:1010A000B8420ED0104FB8420BD0B0F1804F08D0EC
:1010B0000E4FB84205D00E4FB84202D00D4FB84285
:1010C00006D14FF6DF77394046F01007394305E087
:1010D0004FF65F77394044F01007394302830184AB
:1010E000F0BD0000002C014000340140000400402D
:1010F00000080040000C0040F0B50C4615460022E8
:1011000000210026078C4FF6FF6C07EA0C070784C6
:10111000828B018C4FF6FF7707EA04264FF60C7797
:101120003A404FF6FF7707EA03172F433A43114F30
:10113000B8420ED0104FB8420BD0B0F1804F08D05B
:101140000E4FB84205D00E4FB84202D00D4FB842F4
:1011500006D14FF6FF57394046F48077394305E012
:101160004FF2FF57394044F480773943828301843A
:10117000F0BD0000002C014000340140000400409C
:1011800000080040000C0040F0B50C461546002257
:1011900000210026078C4EF6FF7C07EA0C07078427
:1011A000828B018C4FF6FF7707EA043640F6FF4743
:1011B0003A404FF6FF7707EA05273A434FF6FF77A5
:1011C00007EA03373A43114FB8420ED0104FB842E6
:1011D0000BD0B0F1804F08D00E4FB84205D00E4F63
:1011E000B84202D00D4FB84206D14DF6FF773940D4
:1011F00046F48057394305E047F6FF57394044F439
:101200008057394382830184F0BD0000002C0140E7
:10121000003401400004004000080040000C004081
:1012200010B520215948FFF74AFB012802D158493F
:10123000087002E00020564908700221554800F06D
:101240003FFB01284DD10221524800F0FEF95148E0
:1012500000F02FFB504908605048006840F253717D
:1012600048434D49096801EB40104D490968401A4F
:101270004C4908604C4800686421B0FBF1F0D22171
:10128000484300EB8000400048490860454800683A
:1012900040F62711484346490860464804684348D9
:1012A00000680968B0FBF1F04249086038480078EE
:1012B00018B908460068404208603E49086800289E
:1012C00001DB014600E04142B1F57A7F01DD39489A
:1012D00004600020314908602F48006830490860E8
:1012E00052E010212B4800F0EBFA01284CD11021DC
:1012F000284800F0AAF9274800F0DEFA2E490860D5
:101300002E48006840F2537148432B49096801EBAD
:1013100040102B490968401A2A4908602248006891
:101320006421B0FBF1F0D221484300EB8000400083
:101330001E4908602348006840F6271148431C49AD
:10134000086021480468194800680968B0FBF1F09A
:101350001D4908600E48007818B9084600684042E8
:10136000086019490868002801DB014600E0414295
:10137000B1F57A7F01DD144804600F480068104918
:10138000086000200D49086010BD000000180140F1
:1013900008010020002C01404C00002064000020C7
:1013A000500000205C000020A40000206C00002001
:1013B0007000002028000020540000206800002059
:1013C00058000020600000203000002000B589B0E7
:1013D0000121C802FFF772FB01211020FFF76EFB0D
:1013E0004FF41060ADF8040028208DF807000320AA
:1013F0008DF8060001A93548FFF7D6F94FF41061C2
:101400003248FFF765FA4EF65F20ADF81000632012
:10141000ADF80C000020ADF81200ADF80E008DF80C
:10142000140003A92A4800F04FFC06A800F0B0FA07
:101430000020ADF81800ADF81A000120ADF81C002E
:101440000020ADF81E00ADF8200006A9204800F0ED
:1014500049FA0C20ADF8180006A91D4800F042FA20
:101460001B208DF8080002208DF809008DF80A0075
:1014700001208DF80B0002A8FFF79CFA19208DF8C7
:10148000080001208DF809008DF80A0002A8FFF776
:1014900091FA012213210E4800F083FA01210C4831
:1014A00000F0D6F801214020FFF708FB04208DF85A
:1014B000070003208DF806006020ADF8040001A9A4
:1014C0000448FFF771F909B000BD000000080140B1
:1014D000002C01400018014010B50121174800F010
:1014E000EFF9012829D116480068401C144908600A
:1014F00008460068022809DD0020124908601048EB
:101500000068052802DD05200D4908600E480068C6
:10151000401C0D49086008460068022809DD0020CB
:101520000A49086008480068052802DD05200649C8
:1015300008600121014800F088F810BD002C01402E
:1015400064000020280000206800002030000020F7
:1015500010B50120034908700121800700F075F8DB
:1015600010BD0000140100201FB501210846FFF73F
:1015700085FA4FF0804000F087F840F6B830ADF8BB
:1015800008004720ADF804000020ADF80A00ADF8CF
:10159000060001A94FF0804000F096FB01221146A1
:1015A000900700F0FEF900214FF0804000F050F865
:1015B0001C208DF8000002208DF801008DF802003B
:1015C00001208DF803006846FFF7F4F90121880730
:1015D00000F03BF81FBD0000012001490870704772
:1015E000150100200EB501211020FFF747FA0E4823
:1015F00000F04AF840F6B830ADF804004720ADF8E6
:1016000000000020ADF80600ADF80200694606486B
:1016100000F05AFB01221146034800F0C2F90021F4
:10162000014800F015F80EBD0010004021B10288FD
:1016300042F08002028004E002884FF67F731A4075
:1016400002807047CA4302827047CA4302827047D1
:1016500021B1028842F00102028004E002884FF6C4
:10166000FE731A400280704731B1B0F8442042F452
:101670000042A0F8442005E0B0F84420C2F30E0276
:10168000A0F844207047000010B504466848844222
:1016900008D10121C014FFF721FA0021E014FFF75F
:1016A0001DFAC4E0B4F1804F08D101210846FFF7CC
:1016B000F5F900210120FFF7F1F9B8E05D48844217
:1016C00008D101210220FFF7E9F900210220FFF7EC
:1016D000E5F9ACE05848844208D101210420FFF725
:1016E000DDF900210420FFF7D9F9A0E05348844236
:1016F00008D101210820FFF7D1F900210820FFF7C8
:10170000CDF994E04E48844208D101211020FFF722
:10171000C5F900211020FFF7C1F988E0494884424B
:1017200008D101212020FFF7B9F900212020FFF77F
:10173000B5F97CE04448844208D101214014FFF708
:10174000CDF900216014FFF7C9F970E03F488442E9
:1017500009D10121C804FFF7C1F900214FF400208D
:10176000FFF7BCF963E03A48844209D1012108053A
:10177000FFF7B4F900214FF48010FFF7AFF956E0FE
:101780003448844209D101214805FFF7A7F9002117
:101790004FF40010FFF7A2F949E02F48844208D126
:1017A00001214020FFF77AF900214020FFF776F968
:1017B0003DE02A48844208D101218020FFF76EF9DC
:1017C00000218020FFF76AF931E02548844208D1E2
:1017D00001218015FFF762F90021A015FFF75EF9DE
:1017E00025E02048844209D101210804FFF776F959
:1017F00000214FF48030FFF771F918E01A48844255
:1018000009D101214804FFF769F900214FF40030A4
:10181000FFF764F90BE01548844208D101218804E0
:10182000FFF75CF900214FF48020FFF757F910BD56
:10183000002C01400004004000080040000C004063
:10184000001000400014004000340140004C0140F2
:10185000005001400054014000180040001C0040AE
:101860000020004000400140004401400048014089
:10187000F0B50C4615461E460021002200230189C2
:10188000028B038C4FF6F877394021434FF6FC4723
:101890003A4040F201173A434FF6DD773B404FF6AE
:1018A000FF7707EA06172F433B4301810283038436
:1018B000F0BD0146888E70470146B1F84000704780
:1018C00030B50246002000230024158A05EA0103F2
:1018D000958905EA010413B10CB1012000E0002054
:1018E00030BD000070B505460C46244885420ED038
:1018F000234885420BD0B5F1804F08D0214885425E
:1019000005D02148854202D02048854200D100E020
:1019100000BF208850B92389A28861882846FFF734
:101920005FFBE188284600F0A2F925E02088042822
:101930000AD12389A28861882846FFF791FBE188B4
:10194000284600F09DF917E0208808280AD123894D
:10195000A28861882846FFF7CFFBE188284600F07F
:101960009CF909E02389A28861882846FFF70CFCCE
:10197000E188284600F09AF970BD0000002C014073
:10198000003401400004004000080040000C00400A
:10199000002101804180012181800021C1800181DD
:1019A00070471AB183890B43838102E083898B439B
:1019B0008381704770B5002400220023058C4FF608
:1019C000FE7635400584028C8388048B4FF68F7534
:1019D0002C40B51E2C400D882C43751E2A400D89C5
:1019E0002A434D882A43144DA8420BD0134DA842D8
:1019F00008D0134DA84205D0124DA84202D0124D76
:101A0000A84213D14FF6F7752A404D892A434FF665
:101A1000FB752A408D882A434FF6FF652B404FF611
:101A2000FF552B408D892B43CD892B438380048325
:101A3000CD888586028470BD002C014000340140B1
:101A40000040014000440140004801400A46002196
:101A5000018B4FF6F7731940114301837047000063
:101A600070B5002400220023058C4FF6EF76354038
:101A70000584028C8388048B48F6FF752C404FF652
:101A8000FF452C400D884FF6FF7606EA05252C43CE
:101A90004FF6DF752A400D8906EA05152A434D8861
:101AA00006EA05152A43154DA84202D0144DA84256
:101AB0001DD14FF67F752A404D894FF6FF7606EA15
:101AC00005152A434FF6BF752A408D8806EA05158D
:101AD0002A434FF6FF352B404FF2FF752B408D897F
:101AE00006EA85052B43CD8906EA85052B438380CD
:101AF0000483CD880587028470BD0000002C01405E
:101B0000003401400A460021018B4FF2FF73194057
:101B10004FF6FF7303EA0223194301837047000065
:101B200070B5002400220023058C4FF6FF66354077
:101B30000584028C8388848B4FF68F752C404FF67A
:101B4000FC752C400D882C434FF6FF552A400D891B
:101B50004FF6FF7606EA05252A434D8806EA052555
:101B60002A43154DA84202D0144DA8421DD14FF270
:101B7000FF752A404D894FF6FF7606EA05252A4370
:101B80004FF6FF352A408D8806EA05252A434EF692
:101B9000FF752B404DF6FF752B408D8906EA051524
:101BA0002B43CD8906EA05152B4383808483CD889A
:101BB0008587028470BD0000002C01400034014084
:101BC0000A460021818B4FF6F77319401143818338
:101BD0007047000070B5002200230024058C4EF6EB
:101BE000FF7635400584038C8488828B48F6FF7528
:101BF0002A404FF6FF452A400D884FF6FF7606EA49
:101C000005252A434DF6FF752B400D8906EA05355B
:101C10002B434D8806EA05352B430B4DA84202D0D5
:101C20000A4DA84208D14BF6FF752C408D894FF61E
:101C3000FF7606EA85152C4384808283CD88A0F840
:101C40004050038470BD0000002C0140003401406E
:101C50000A460021818B4FF2FF7319404FF6FF7344
:101C600003EA022319438183704781847047028B02
:101C70004FF6F3731A400283028B0A4302837047C4
:101C8000028B4FF2FF331A400283028B4FF6FF7331
:101C900003EA01231A4302837047828B4FF6F373E2
:101CA0001A408283828B0A4382837047828B4FF271
:101CB000FF331A408283828B4FF6FF7303EA0123BE
:101CC0001A43828370470000002202881D4B98420D
:101CD0000ED01D4B98420BD0B0F1804F08D01B4B5B
:101CE000984205D01A4B984202D01A4B984204D120
:101CF0004FF68F731A404B881A43174B984207D000
:101D0000164B984204D04FF6FF431A40CB881A4333
:101D100002808B8883850B8803850A4B98420BD001
:101D2000094B984208D00E4B984205D00D4B984273
:101D300002D00D4B984201D10B7A03860123838296
:101D400070470000002C01400034014000040040B6
:101D500000080040000C004000100040001400404B
:101D600000400140004401400048014038B50546AC
:101D70000C4601210420FEF7A1FE18208DF8030077
:101D800003208DF802000F20ADF8000069462C48B2
:101D9000FEF70AFD01210820FEF770FE29480580A4
:101DA0002948008827498880002048802748FFF775
:101DB0008BFF602026490880002008810846C480E7
:101DC000012048802148FFF7F5FD21491F48FFF712
:101DD00047FE1F491D48FFF7A3FE1D491B48FFF79B
:101DE000F9FE08211948FFF731FE08211748FFF7CF
:101DF00089FE08211548FFF7E3FE08211348FFF785
:101E000027FF01211148FFF711FC01210F48FFF7BF
:101E10001FFC01210D48FFF727FC01212020FEF7C0
:101E20004DFE10208DF8030003208DF80200FF20E6
:101E3000ADF8000069460748FEF7B6FC38BD000063
:101E400000080140800100200E000020000C00402E
:101E50008A010020001401401FB501214120FEF736
:101E60002DFE10208DF8030003208DF802000520C0
:101E7000ADF8000069462248FEF796FC28208DF850
:101E800003000A20ADF8000069461D48FEF78CFCEF
:101E9000002201211A48FEF71FFD002204211848E4
:101EA000FEF71AFD0A20FEF769FB01210420FEF768
:101EB0005BFC03210420FEF757FC0A200190002060
:101EC0008DF8080010208DF8090001208DF80A0017
:101ED00001A8FEF76DFB07208DF80C0003208DF89C
:101EE0000D008DF80E0001208DF80F0003A8FEF7FD
:101EF00061FD09208DF80C0003A8FEF75BFD1FBDF6
:101F00000018014010B51048007810B900200F49A2
:101F1000087000200C490870012211460C48FEF799
:101F2000DBFC012204210A48FEF7D6FC0F2000F05A
:101F300015F9002201210648FEF7CEFC00220421FB
:101F40000348FEF7C9FC10BD1801002074000020F2
:101F50000018014000BFFEE700200D49087011E0A5
:101F60000C480B490978405C0B49094A1278895C96
:101F700008440849064A1278885405480078401CED
:101F800003490870024800788028E9DB70470000A8
:101F9000400100209C010020A028000802E008C8A1
:101FA000121F08C1002AFAD170477047002001E0D3
:101FB00001C1121F002AFBD17047000000B5FFF7D6
:101FC000CBFFFEF7BFFCFEF7B1FEFEF7DFFD1449C5
:101FD0000968A1F13F00C11700EB5161C9114FF42D
:101FE000167251430F4A11600F490968A1F13F0071
:101FF000C11700EB5161C9114FF4167251430B4ADE
:1020000011600B490968A1F13F00C11700EB516154
:10201000C9114FF416725143064A116000BD000009
:102020004C0100200400002044010020000000209A
:10203000540100200800002070B53B4B1B683B4C4E
:10204000236023461B683A4C24681B1B4343374CD0
:10205000246801FB0433354C2468354D2D68022675
:1020600006FB1544334D2D682C4402FB0433324CDF
:1020700023602F4B1B682F4C23602C4B1B682C4C70
:1020800023602E4B1B682C4C246823442B4C23606C
:1020900023461B6840F6B83494FBF3F3284C2360C6
:1020A0002368002B01DB1C4600E05C42254D2C60C0
:1020B0002B461B68B3F57A7F04DB4FF49673224CF2
:1020C00023600AE01F4B1B68322B03DB64231E4C8A
:1020D000236002E032231C4C2360194C2468C8257D
:1020E00095FBF4F303EBD3746410641C164D2D6858
:1020F0006C43164D2C602B461B68154C2360104C0E
:102100002468C82595FBF4F303EBD3746410C4F181
:1021100001040D4D2D686C430E4D2C602B461B6841
:102120000D4C236070BD00008000002020010020C5
:102130002401002028010020300100202C01002073
:10214000380100203C010020340100201400002050
:10215000180000201C00002020000020002107E0C3
:10216000002201E0531C9AB2092AFBDB4B1C99B2F6
:102170008142F5DB7047000010B500F027F80246F9
:102180000F4CD22102FB01F04FF47A71484300EB6F
:102190008000430093FBF4F00A49086000F046F821
:1021A000024600BFD22102FB01F04FF47A7148438E
:1021B00000EB8000430093FBF4F00349086010BD7E
:1021C00078260700240000202C00002013480088F7
:1021D000134908600846006812490968401A124904
:1021E00008600846006810F57A6F05DA084600684E
:1021F00000F5FA5008600AE00B480068B0F57A6F05
:1022000005DD09480068A0F5FA5007490860034851
:10221000008804490860044800687047243401407D
:102220003C000020340000203800002013480088C3
:10223000134908600846006812490968401A1249A3
:1022400008600846006810F57A6F05DA08460068ED
:1022500000F5FA5008600AE00B480068B0F57A6FA4
:1022600005DD09480068A0F5FA50074908600348F1
:10227000008804490860044800687047240800404A
:102280004800002040000020440000204FF4A060DF
:10229000FEF7C8FB5B4801885B480088FFF766FDD6
:1022A000FEF7D0F900F0D8FAFFF790F8FFF75CF9E5
:1022B000FFF798F9FFF7D0FDFEF788F800F0C2FAB3
:1022C0009EE05248006808B1FEF718FC50480068CC
:1022D00008B1FFF751FF4F48006800284ED04E4A22
:1022E00012684E4B1B68D11A4B4A1068002801DB5C
:1022F000024600E04242032392FBF3F3002901DB94
:102300000A4600E04A42934204DA434800684349DF
:10231000086009E040490968404A1268881800EBE3
:10232000D07149103C4A11603D4A12683D4B1B6810
:10233000D11A3B4A1068002801DB024600E0424205
:10234000032392FBF3F3002901DB0A4600E04A4233
:10235000934204DA324800683249086009E03049A3
:102360000968304A1268881800EBD07149102C4A6D
:10237000116001221146104600F06AF82A480068F0
:1023800008B1FFF7BFFD29480068C8B3FFF716FE84
:102390002748007888B92748006827490968401A03
:1023A000B0F5FA6F09DD254800682549086001226B
:1023B00011461046FFF740FE22E01E4800681E4905
:1023C00008601B480078022806D01948007858B9E0
:1023D0001C480078022807D11B480068184908608B
:1023E00002201849087006E018480068144908607F
:1023F000012014490870012211461046FFF71CFE07
:102400005FE70000100000200C000020900000207A
:102410009C000020A00000202400002028000020B4
:102420002C000020300000209800002094000020A4
:10243000740000208C00002078000020080000209C
:102440008000002075000020000000200400002013
:1024500070B504460D461646DA480068DA49096840
:10246000401ADA49086008460068D9490968401AE4
:102470006043D649096805FB0100D4490968D44A7C
:102480001268022303FB1211D24A1268114406FBA0
:102490000100D1490860CE480068CE490860CB48A9
:1024A0000068CB490860CD480068CB4909680844FA
:1024B000CA49086008460068002819DA0121C8489E
:1024C000FEF708FA0221C648FEF702FAC348006880
:1024D000C44909884942884204DAC2480088404217
:1024E000BE490860BD4800884042BF49C88015E029
:1024F0000221BB48FEF7EEF90121B948FEF7E8F9E1
:10250000B6480068B7490988884203DDB5480088A5
:10251000B2490860B1480088B349C880B249B3489D
:10252000FFF748FA0821B148FFF790FAB048006871
:10253000B0490968401AB049086008460068AF49C8
:102540000968401A6043AC49096805FB0101AA48C3
:102550000068AA4A1268022303FB1200A84A126804
:10256000104406FB0010A7490860A4480068A4496D
:102570000860A1480068A1490860A3480068A14913
:1025800009680844A049086008460068002819DA6C
:1025900004219348FEF79EF908219148FEF798F927
:1025A000994800688F4909884942884204DA8D4871
:1025B00000884042944908609348008840428A4914
:1025C000C88015E004218648FEF784F90821844874
:1025D000FEF77EF98C48006882490988884203DD4D
:1025E0008048008888490860874800887E49C880FC
:1025F0007D497E48FFF734FA08217C48FFF782FACC
:102600008248006882490968401A82490860084681
:10261000006881490968401A60437E49096805FBE2
:1026200001007C4909687C4A1268022303FB1211ED
:102630007A4A1268114406FB01007949086076481D
:1026400000687649086073480068734908607548F7
:1026500000687349096808447249086008460068C0
:10266000002819DA10215E48FEF734F920215C4871
:10267000FEF72EF96B4800685A490988494288429A
:1026800004DA584800884042664908606548008876
:1026900040425549C88015E010215148FEF71AF90B
:1026A00020214F48FEF714F95E4800684D4909881B
:1026B000884203DD4B4800885A4908605948008821
:1026C0004949C88048494948FFF72AFA082147483C
:1026D000FFF776FA5448006854490968401A54498B
:1026E00008600846006853490968401A6043504929
:1026F000096805FB01014E4800684E4A1268022332
:1027000003FB12004C4A1268104406FB00104B49B0
:1027100008604848006848490860454800684549DD
:10272000086047480068454909680844444908600A
:1027300008460068002819DA40212948FEF7CAF83F
:1027400080212748FEF7C4F83D48006825490988DC
:102750004942884204DA23480088404238490860E8
:102760003748008840422049C88015E040211C4875
:10277000FEF7B0F880211A48FEF7AAF83048006842
:1027800018490988884203DD164800882C490860EA
:102790002B4800881449C88013491448FFF71AFAD7
:1027A00008211248FFF754FA01211048FEF73EFFB6
:1027B00001210E48FEF74CFF01210C48FEF754FFA3
:1027C00070BD00001400002024000020B80000208C
:1027D000BC000020C0000020C4000020C800002071
:1027E000001401400E0000208A010020000C00406F
:1027F0001800002028000020CC000020D00000207D
:10280000D4000020D8000020DC0000201C000020A4
:102810002C000020E0000020E4000020E800002060
:10282000EC000020F00000202000002030000020FC
:10283000F4000020F8000020FC000020000100202F
:102840000401002001200349086048601E208860C0
:10285000704700006401002010B5104800684FF474
:102860007A71B0FBF1F4B4F1807F00D311E024F071
:102870007F40401E4FF0E02148610F214FF0FF30B4
:10288000FEF7DAF800204FF0E021886107200861A8
:1028900000BF0021481EFEF7CFF810BDA4000020A5
:1028A0000000000000000000000000000000000028
:1028B0000000000000000000000000000000000018
:1028C0000000000000000000000000000000000008
:1028D00000000000000000000000000000000000F8
:1028E00000000000000000000000000000000000E8
:1028F00000000000000000000000000000000000D8
:1029000000000000000000000000000000000000C7
:1029100000000000000000000000000000000000B7
:102920004029000800000020640100008C0100081C
:10293000702900086401002034070000AC1F000863
:10294000C11247053EE7032C011AFF01A90801182F
:102950000B1C30F820D184A24A0400095001020364
:102960000406070809093AF772287258F240000075
:0400000508000145A9
:00000001FF
