:020000040800F2
:100000004005002045010008230600081B060008E3
:100010001F060008B9010008E518000800000000EC
:10002000000000000000000000000000550700086C
:10003000BD01000800000000D106000841080008CA
:100040005F0100085F0100085F0100085F01000810
:100050005F0100085F0100085F010008C10100089E
:100060005F010008390200085F0100085F01000815
:100070005F0100085F0100085F0100085F010008E0
:100080005F0100085F0100085F0100085F010008D0
:100090005F0100085F0100085F0100085F010008C0
:1000A0005F010008690E00085F010008B10B00083D
:1000B000E10E00085F0100085F0100085F01000811
:1000C0005F0100085F0100085F0100085F01000890
:1000D0005F0100085F0100085F0100085F01000880
:1000E0005F0100085F0100085F0100085F01000870
:1000F0005F0100085F0100085F0100085F01000860
:100100005F0100085F0100085F0100085F0100084F
:100110005F0100085F010008690F00085F01000827
:100120005F0100085F0100085F0100085F0100082F
:10013000DFF80CD000F02EF800480047151E00082C
:10014000400500200648804706480047FEE7FEE7D6
:10015000FEE7FEE7FEE7FEE7FEE7FEE7FEE7FEE777
:10016000110900083101000830B50B460146002096
:100170002022012409E021FA02F59D4205D303FA69
:1001800002F5491B04FA02F52844151EA2F10102EA
:10019000F1DC30BD064C074D06E0E06840F001039D
:1001A00094E8070098471034AC42F6D3FFF7C4FF39
:1001B000BC220008DC22000800BFFEE770470000F8
:1001C00010B5022000F07CF850B3022000F072F865
:1001D0000221144800F00FFA01280ED100218007F7
:1001E00001F00BFA0020104908700121880700F087
:1001F000F7FE01200D49087012E000214FF0804009
:1002000000F0EEFE0948007850B10748007820B9A8
:100210000120074908700749087000200349087049
:1002200010BD000000180140F8000020FA00002076
:1002300068000020FC00002010B5082000F040F805
:1002400050B3082000F036F80821144800F0D3F924
:1002500001280ED10021124801F0CFF900201149E8
:10026000087001210E4800F0BBFE01200E49087005
:1002700012E000210A4800F0B3FE0B48007858B1A4
:100280000848007828B90120084908700220084968
:10029000087000200449087010BD000000180140DB
:1002A00000100040F9000020FB000020FC000020AE
:1002B00068000020014908607047000014040140F4
:1002C000014600200022074B1B6803EA0102054B90
:1002D00014331B680B4013B10AB1012000E0002069
:1002E0007047000000040140002123498279002A60
:1002F0003AD00A46126803689A430B461A600A1DF0
:10030000126803689A430B1D1A60027911440A6847
:1003100003681A430A60184A0832126803689A434D
:10032000154B08331A601A1D126803689A43124B62
:100330000C331A604279102A0ED11A1F1268036812
:100340001A430D4B08331A601A1D126803681A43CA
:10035000094B0C331A600DE00749427911440A68D1
:1003600003681A430A6005E0027911440A680368C9
:100370009A430A60704700000004014000B58DB048
:100380000121042000F0A6F90121082000F0C2F9A3
:10039000C020ADF8300004208DF8330003208DF824
:1003A00032000CA93A4800F09BF80020ADF8240078
:1003B000ADF8260041F63F70ADF828000020ADF8FA
:1003C0002A008DF82C0009A9324801F045F90A23CA
:1003D0001A4603212F4800F013FF06A800F0A0FFE3
:1003E0000620ADF8200006A92A4800F043FF0121AD
:1003F000284800F0EFFD0021264801F0FEF8012119
:10040000244800F0EDFD0121480300F083F90121AB
:10041000102000F07FF9C020ADF8300004208DF8E6
:10042000330003208DF832000CA91B4800F058F867
:100430000020ADF80C00ADF80E0041F63F70ADF8AD
:1004400010000020ADF812008DF8140003A9134825
:1004500001F002F90A231A460321104800F0D0FEE9
:10046000684600F05DFF0620ADF8080069460B48BD
:1004700000F000FF0121094800F0ACFD0021074811
:1004800001F0BBF80121054800F0AAFD0DB000BD48
:10049000000C014000080040001001400034014001
:1004A00030B500228B071C0F0F2303FA04F20B4B0D
:1004B0008C1053F824309343084C8D1044F82530A9
:1004C00023468C1053F824308C07240F00FA04F4D0
:1004D0002343024C8D1044F8253030BD0800014004
:1004E0002DE9F041024600250026002000230024CB
:1004F000002791F803C00CF00F0591F803C00CF031
:10050000100CBCF1000F03D091F802C04CEA0505B5
:1005100091F800C0BCF1000F31D0146800202BE02E
:100520004FF0010C0CFA00F3B1F800C00CEA03061E
:100530009E4220D183004FF00F0C0CFA03F7BC430E
:1005400005FA03FC4CEA040491F803C0BCF1280F3F
:1005500006D14FF0010C0CFA00FCC2F814C00AE0FE
:1005600091F803C0BCF1480F05D14FF0010C0CFA13
:1005700000FCC2F810C0401C0828D1D31460B1F8A8
:1005800000C0BCF1FF0F34DD546800202EE000F104
:10059000080C4FF0010808FA0CF3B1F800C00CEA9F
:1005A00003069E4221D183004FF00F0C0CFA03F793
:1005B000BC4305FA03FC4CEA040491F803C0BCF107
:1005C000280F05D100F1080C08FA0CF8C2F81480C5
:1005D00091F803C0BCF1480F07D100F1080C4FF0AF
:1005E000010808FA0CF8C2F81080401C0828CED385
:1005F0005460BDE8F0810246002093680B400BB1C7
:10060000012000E0002070474161704701617047A0
:100610000AB1016100E04161704700BFFEE700BF21
:10062000FEE7704770B5002100230F22C47804B3A1
:10063000154C246804F4E064C4F5E064210AC1F1B7
:100640000403CA40447804FA03F184781440214337
:1006500009010E4C0678A155047804F01F05012409
:10066000AC4005786D11AD0005F1E025C5F80041FD
:1006700009E0047804F01F050124AC40044D06781D
:10068000761145F8264070BD0CED00E000E400E076
:1006900080E100E002490143024A11607047000016
:1006A0000000FA050CED00E010B5002807DA0A0793
:1006B000140E054A00F00F031B1FD45403E00A0771
:1006C000130E024A135410BD18ED00E000E400E0E0
:1006D0007047000029B1064AD2690243044BDA612F
:1006E00004E0034AD2698243014BDA61704700009B
:1006F0000010024029B1064A12690243044B1A61F4
:1007000004E0034A12698243014B1A6170470000FA
:100710000010024029B1064A92690243044B9A61D3
:1007200004E0034A92698243014B9A6170470000DA
:100730000010024029B1064AD2680243044BDA6035
:1007400004E0034AD2688243014BDA60704700003C
:1007500000100240704710B500F002F810BD000014
:100760000CB50020019000903348006840F48030C0
:100770003149086000BF3048006800F40030009044
:100780000198401C0190009818B90198B0F5A06F2D
:10079000F1D12948006800F4003010B10120009028
:1007A00001E0002000900098012843D12348006810
:1007B00040F01000214908600846006820F003005E
:1007C00008600846006840F0020008601A48406867
:1007D000194948600846406848600846406840F447
:1007E000806048600846406820F47C1048600846F5
:1007F000406840F4E81048600846006840F08070A7
:10080000086000BF0C48006800F000700028F9D0B4
:100810000948406820F003000749486008464068DE
:1008200040F00200486000BF0348406800F00C0040
:100830000828F9D10CBD0000001002400020024041
:1008400010B501F087FA2649086026482649086055
:1008500023480068D22148434FF47A71484300EBA3
:100860008000400021490860084600681E49096868
:1008700090FBF1F01E49086001F09CFA18490860ED
:1008800018481949086016480068D22148434FF4B7
:100890007A71484300EB8000400014490860084624
:1008A00000681149096890FBF1F01249086012488C
:1008B0000078C0F10100104908700846007808B9B6
:1008C00000F0E8FF01221146104601F0D5FA0B486E
:1008D0000268074801680AA001F006F810BD000090
:1008E00078000020782607006400002060000020C7
:1008F0001800002020000020740000201C000020B0
:10090000766C3120256420766C322025640A000044
:1009100010B51348006840F001001149086008460E
:100920004068104908400E494860084600680E4972
:1009300008400B4908600846006820F480200860E1
:100940000846406820F4FE0048604FF41F008860AD
:10095000FFF701FF4FF000600449086010BD000080
:10096000001002400000FFF8FFFFF6FE08ED00E077
:10097000F0B50C46154600220021068C4FF6FE7796
:100980003E400684028B018C4FF60C7632407E1C72
:1009900006EA03162E433243104EB0420ED0104EDC
:1009A000B0420BD0B0F1804F08D00E4EB04205D00F
:1009B0000D4EB04202D00D4EB04206D14FF6FD763C
:1009C000314044F00106314305E04FF6F576314001
:1009D00044F00106314302830184F0BD002C014044
:1009E000003401400004004000080040000C0040BA
:1009F000F0B50C461546002200210026078C4FF664
:100A0000EF7C07EA0C070784028B018C4FF6FF7717
:100A100007EA041640F6FF473A404FF6FF7707EA29
:100A200003373A434FF6FF7707EA05273A43114F5A
:100A3000B8420ED0104FB8420BD0B0F1804F08D062
:100A40000E4FB84205D00E4FB84202D00D4FB842FB
:100A500006D14FF6DF77394046F01007394305E0FD
:100A60004FF65F77394044F0100739430283018421
:100A7000F0BD0000002C01400034014000040040A3
:100A800000080040000C0040F0B50C46154600225E
:100A900000210026078C4FF6FF6C07EA0C0707843D
:100AA000828B018C4FF6FF7707EA04264FF60C770E
:100AB0003A404FF6FF7707EA03172F433A43114FA7
:100AC000B8420ED0104FB8420BD0B0F1804F08D0D2
:100AD0000E4FB84205D00E4FB84202D00D4FB8426B
:100AE00006D14FF6FF57394046F48077394305E089
:100AF0004FF2FF57394044F48077394382830184B1
:100B0000F0BD0000002C0140003401400004004012
:100B100000080040000C0040F0B50C4615460022CD
:100B200000210026078C4EF6FF7C07EA0C0707849D
:100B3000828B018C4FF6FF7707EA043640F6FF47B9
:100B40003A404FF6FF7707EA05273A434FF6FF771B
:100B500007EA03373A43114FB8420ED0104FB8425C
:100B60000BD0B0F1804F08D00E4FB84205D00E4FD9
:100B7000B84202D00D4FB84206D14DF6FF7739404A
:100B800046F48057394305E047F6FF57394044F4AF
:100B90008057394382830184F0BD0000002C01405E
:100BA000003401400004004000080040000C0040F8
:100BB00010B520215948FFF71EFD012802D15849E0
:100BC000087002E00020564908700221554800F0E4
:100BD0003FFB01284DD10221524800F0FEF9514857
:100BE00000F02FFB504908605048006840F25371F4
:100BF00048434D49096801EB40104D490968401AC6
:100C00004C4908604C4800686421B0FBF1F0D221E7
:100C1000484300EB800040004849086045480068B0
:100C200040F627114843464908604648046843484F
:100C300000680968B0FBF1F0424908603848007864
:100C400018B908460068404208603E490868002814
:100C500001DB014600E04142B1F57A7F01DD394810
:100C600004600020314908602F480068304908605E
:100C700052E010212B4800F0EBFA01284CD1102152
:100C8000284800F0AAF9274800F0DEFA2E4908604B
:100C90002E48006840F2537148432B49096801EB24
:100CA00040102B490968401A2A4908602248006808
:100CB0006421B0FBF1F0D221484300EB80004000FA
:100CC0001E4908602348006840F6271148431C4924
:100CD000086021480468194800680968B0FBF1F011
:100CE0001D4908600E48007818B90846006840425F
:100CF000086019490868002801DB014600E041420C
:100D0000B1F57A7F01DD144804600F48006810498E
:100D1000086000200D49086010BD00000018014067
:100D2000EC000020002C0140400000205800002072
:100D300044000020500000208000002060000020BF
:100D4000640000201C000020480000205C000020FF
:100D50004C000020540000202400002000B589B081
:100D60000121C802FFF7D6FC01211020FFF7D2FCB9
:100D70004FF41060ADF8040028208DF80700032020
:100D80008DF8060001A93548FFF7AAFB4FF4106162
:100D90003248FFF739FC4EF65F20ADF810006320B3
:100DA000ADF80C000020ADF81200ADF80E008DF883
:100DB000140003A92A4800F04FFC06A800F0B0FA7E
:100DC0000020ADF81800ADF81A000120ADF81C00A5
:100DD0000020ADF81E00ADF8200006A9204800F064
:100DE00049FA0C20ADF8180006A91D4800F042FA97
:100DF0001B208DF8080002208DF809008DF80A00EC
:100E000001208DF80B0002A8FFF70CFC19208DF8CB
:100E1000080001208DF809008DF80A0002A8FFF7EC
:100E200001FC012213210E4800F083FA01210C4835
:100E300000F0D6F801214020FFF76CFC04208DF86B
:100E4000070003208DF806006020ADF8040001A91A
:100E50000448FFF745FB09B000BD00000008014051
:100E6000002C01400018014010B50121174800F086
:100E7000EFF9012829D116480068401C1449086080
:100E800008460068022809DD002012490860104861
:100E90000068052802DD05200D4908600E4800683D
:100EA000401C0D49086008460068022809DD002042
:100EB0000A49086008480068052802DD052006493F
:100EC00008600121014800F088F810BD002C0140A5
:100ED000580000201C0000205C000020240000209E
:100EE00010B50120034908700121800700F075F852
:100EF00010BD0000F80000201FB501210846FFF7D3
:100F0000E9FB4FF0804000F087F840F6B830ADF8CC
:100F100008004720ADF804000020ADF80A00ADF845
:100F2000060001A94FF0804000F096FB0122114617
:100F3000900700F0FEF900214FF0804000F050F8DB
:100F40001C208DF8000002208DF801008DF80200B1
:100F500001208DF803006846FFF764FB0121880734
:100F600000F03BF81FBD00000120014908707047E8
:100F7000F90000200EB501211020FFF7ABFB0E4851
:100F800000F04AF840F6B830ADF804004720ADF85C
:100F900000000020ADF80600ADF8020069460648E2
:100FA00000F05AFB01221146034800F0C2F900216B
:100FB000014800F015F80EBD0010004021B1028874
:100FC00042F08002028004E002884FF67F731A40EC
:100FD00002807047CA4302827047CA430282704748
:100FE00021B1028842F00102028004E002884FF63B
:100FF000FE731A400280704731B1B0F8442042F4C9
:101000000042A0F8442005E0B0F84420C2F30E02EC
:10101000A0F844207047000010B504466848844298
:1010200008D10121C014FFF785FB0021E014FFF770
:1010300081FBC4E0B4F1804F08D101210846FFF7DD
:1010400059FB00210120FFF755FBB8E05D488442C1
:1010500008D101210220FFF74DFB00210220FFF7FC
:1010600049FBACE05848844208D101210420FFF735
:1010700041FB00210420FFF73DFBA0E053488442E0
:1010800008D101210820FFF735FB00210820FFF7D8
:1010900031FB94E04E48844208D101211020FFF733
:1010A00029FB00211020FFF725FB88E049488442F6
:1010B00008D101212020FFF71DFB00212020FFF790
:1010C00019FB7CE04448844208D101214014FFF719
:1010D00031FB00216014FFF72DFB70E03F48844294
:1010E00009D10121C804FFF725FB00214FF400209E
:1010F000FFF720FB63E03A48844209D1012108054B
:10110000FFF718FB00214FF48010FFF713FB56E0A8
:101110003448844209D101214805FFF70BFB002127
:101120004FF40010FFF706FB49E02F48844208D136
:1011300001214020FFF7DEFA00214020FFF7DAFA14
:101140003DE02A48844208D101218020FFF7D2FAED
:1011500000218020FFF7CEFA31E02548844208D1F3
:1011600001218015FFF7C6FA0021A015FFF7C2FA8A
:1011700025E02048844209D101210804FFF7DAFA6A
:1011800000214FF48030FFF7D5FA18E01A48844266
:1011900009D101214804FFF7CDFA00214FF40030B6
:1011A000FFF7C8FA0BE01548844208D101218804F2
:1011B000FFF7C0FA00214FF48020FFF7BBFA10BD03
:1011C000002C01400004004000080040000C0040DA
:1011D000001000400014004000340140004C014069
:1011E000005001400054014000180040001C004025
:1011F0000020004000400140004401400048014000
:10120000F0B50C4615461E46002100220023018938
:10121000028B038C4FF6F877394021434FF6FC4799
:101220003A4040F201173A434FF6DD773B404FF624
:10123000FF7707EA06172F433B43018102830384AC
:10124000F0BD0146888E70470146B1F840007047F6
:1012500030B50246002000230024158A05EA010368
:10126000958905EA010413B10CB1012000E00020CA
:1012700030BD000070B505460C46244885420ED0AE
:10128000234885420BD0B5F1804F08D021488542D4
:1012900005D02148854202D02048854200D100E097
:1012A00000BF208850B92389A28861882846FFF7AB
:1012B0005FFBE188284600F0A2F925E02088042899
:1012C0000AD12389A28861882846FFF791FBE1882B
:1012D000284600F09DF917E0208808280AD12389C4
:1012E000A28861882846FFF7CFFBE188284600F0F6
:1012F0009CF909E02389A28861882846FFF70CFC45
:10130000E188284600F09AF970BD0000002C0140E9
:10131000003401400004004000080040000C004080
:10132000002101804180012181800021C180018153
:1013300070471AB183890B43838102E083898B4311
:101340008381704770B5002400220023058C4FF67E
:10135000FE7635400584028C8388048B4FF68F75AA
:101360002C40B51E2C400D882C43751E2A400D893B
:101370002A434D882A43144DA8420BD0134DA8424E
:1013800008D0134DA84205D0124DA84202D0124DEC
:10139000A84213D14FF6F7752A404D892A434FF6DC
:1013A000FB752A408D882A434FF6FF652B404FF688
:1013B000FF552B408D892B43CD892B43838004839C
:1013C000CD888586028470BD002C01400034014028
:1013D0000040014000440140004801400A4600210D
:1013E000018B4FF6F77319401143018370470000DA
:1013F00070B5002400220023058C4FF6EF763540AF
:101400000584028C8388048B48F6FF752C404FF6C8
:10141000FF452C400D884FF6FF7606EA05252C4344
:101420004FF6DF752A400D8906EA05152A434D88D7
:1014300006EA05152A43154DA84202D0144DA842CC
:101440001DD14FF67F752A404D894FF6FF7606EA8B
:1014500005152A434FF6BF752A408D8806EA051503
:101460002A434FF6FF352B404FF2FF752B408D89F5
:1014700006EA85052B43CD8906EA85052B43838043
:101480000483CD880587028470BD0000002C0140D4
:10149000003401400A460021018B4FF2FF731940CE
:1014A0004FF6FF7303EA02231943018370470000DC
:1014B00070B5002400220023058C4FF6FF663540EE
:1014C0000584028C8388848B4FF68F752C404FF6F1
:1014D000FC752C400D882C434FF6FF552A400D8992
:1014E0004FF6FF7606EA05252A434D8806EA0525CC
:1014F0002A43154DA84202D0144DA8421DD14FF2E7
:10150000FF752A404D894FF6FF7606EA05252A43E6
:101510004FF6FF352A408D8806EA05252A434EF608
:10152000FF752B404DF6FF752B408D8906EA05159A
:101530002B43CD8906EA05152B4383808483CD8810
:101540008587028470BD0000002C014000340140FA
:101550000A460021818B4FF6F773194011438183AE
:101560007047000070B5002200230024058C4EF661
:10157000FF7635400584038C8488828B48F6FF759E
:101580002A404FF6FF452A400D884FF6FF7606EABF
:1015900005252A434DF6FF752B400D8906EA0535D2
:1015A0002B434D8806EA05352B430B4DA84202D04C
:1015B0000A4DA84208D14BF6FF752C408D894FF695
:1015C000FF7606EA85152C4384808283CD88A0F8B7
:1015D0004050038470BD0000002C014000340140E5
:1015E0000A460021818B4FF2FF7319404FF6FF73BB
:1015F00003EA022319438183704781847047028B79
:101600004FF6F3731A400283028B0A43028370473A
:10161000028B4FF2FF331A400283028B4FF6FF73A7
:1016200003EA01231A4302837047828B4FF6F37358
:101630001A408283828B0A4382837047828B4FF2E7
:10164000FF331A408283828B4FF6FF7303EA012334
:101650001A43828370470000002202881D4B984283
:101660000ED01D4B98420BD0B0F1804F08D01B4BD1
:10167000984205D01A4B984202D01A4B984204D196
:101680004FF68F731A404B881A43174B984207D076
:10169000164B984204D04FF6FF431A40CB881A43AA
:1016A00002808B8883850B8803850A4B98420BD078
:1016B000094B984208D00E4B984205D00D4B9842EA
:1016C00002D00D4B984201D10B7A0386012383820D
:1016D00070470000002C014000340140000400402D
:1016E00000080040000C00400010004000140040C2
:1016F00000400140004401400048014038B5054623
:101700000C4601210420FFF705F818208DF803008E
:1017100003208DF802000F20ADF8000069462C4828
:10172000FEF7DEFE01210820FEF7D4FF29480580E0
:101730002948008827498880002048802748FFF7EB
:101740008BFF602026490880002008810846C4805D
:10175000012048802148FFF7F5FD21491F48FFF788
:1017600047FE1F491D48FFF7A3FE1D491B48FFF711
:10177000F9FE08211948FFF731FE08211748FFF745
:1017800089FE08211548FFF7E3FE08211348FFF7FB
:1017900027FF01211148FFF711FC01210F48FFF736
:1017A0001FFC01210D48FFF727FC01212020FEF737
:1017B000B1FF10208DF8030003208DF80200FF20F8
:1017C000ADF8000069460748FEF78AFE38BD000004
:1017D000000801402401002002000020000C00400D
:1017E0002E010020001401401FB501214120FEF709
:1017F00091FF10208DF8030003208DF802000520D2
:10180000ADF8000069462248FEF76AFE28208DF8F0
:1018100003000A20ADF8000069461D48FEF760FE8F
:10182000002201211A48FEF7F3FE00220421184885
:10183000FEF7EEFE0A20FEF73DFD01210420FEF733
:101840002FFE03210420FEF72BFE0A20019000202A
:101850008DF8080010208DF8090001208DF80A008D
:1018600001A8FEF741FD07208DF80C0003208DF83C
:101870000D008DF80E0001208DF80F0003A8FEF773
:10188000D1FE09208DF80C0003A8FEF7CBFE1FBD8A
:101890000018014010B51048007810B900200F4919
:1018A000087000200C490870012211460C48FEF710
:1018B000AFFE012204210A48FEF7AAFE0F2000F025
:1018C00029FA002201210648FEF7A2FE0022042187
:1018D0000348FEF79DFE10BDFC00002068000020BC
:1018E0000018014000BFFEE70FB4054B10B503A977
:1018F000044A029800F018F810BC5DF814FB0000D0
:10190000311D00089400002002E008C8121F08C121
:10191000002AFAD170477047002001E001C1121F70
:10192000002AFBD1704700002DE9FF4F89B09B468C
:101930000446002506E025280BD05A460B9990470F
:10194000641C6D1C20780028F5D10DB02846BDE838
:10195000F08F0027B8460122474900E0074314F8FA
:10196000013F203B02FA03F00842F7D120782E28ED
:1019700019D114F8010F47F004072A280ED06FF090
:101980002F022078A0F1300109290CD808EB88013A
:1019900002EB410100EB0108641CF2E70A98641CA9
:1019A00050F8048B0A9020780028CED0642808D004
:1019B000692806D075281ED05A460B9990476D1C91
:1019C00058E00A994FF00A0901C90A91002802DA81
:1019D00040422D2102E0390504D52B218DF820103D
:1019E000012103E0F90704D02021F7E78A4608AE79
:1019F0000DE00021FAE70A994FF00A0901C90A919E
:101A0000F7E74946FEF7B0FB303106F8011D002824
:101A1000F7D1ADEB060000F12009780701D44FF0B3
:101A20000108C84502DDA8EB090000E0002080465F
:101A3000002706E008A85A46C05D0B9990476D1C28
:101A40007F1C5745F6DB04E030205A460B9990473F
:101A50006D1CB8F10001A8F10108F5DC05E016F8ED
:101A6000010B5A460B9990476D1CB9F10001A9F181
:101A70000109F4DC641C65E70928010070B5454BD9
:101A80001B68454C236023461B68444C24681B1B81
:101A90004343414C246801FB04333F4C24683F4DD1
:101AA0002D68022606FB15443D4D2D682C4402FB93
:101AB00004333C4C2360394B1B68394C2360364B54
:101AC0001B68364C2360384B1B68364C2468234413
:101AD000354C236023461B6840F6B83494FBF3F37F
:101AE000324C23602368002B01DB1C4600E05C4283
:101AF0002F4D2C602B461B68B3F57A7F04DB4FF427
:101B000096732C4C23600AE0294B1B68322B03DBB5
:101B10006423284C236002E03223264C2360234CAC
:101B20002468C82595FBF4F303EBD3746410641C9C
:101B3000204D2D686C43204D2C601C4C2468C8251A
:101B400095FBF4F303EBD3746410641C194D2D68FA
:101B50006C431A4D2C60154C2468C82595FBF4F392
:101B600003EBD3746410C4F10104124D2D686C436F
:101B7000134D2C600D4C2468C82595FBF4F303EB42
:101B8000D3746410C4F101040A4D2D686C430D4DEB
:101B90002C6070BD700000200401002008010020AE
:101BA0000C01002014010020100100201C01002065
:101BB0002001002018010020080000200C00002057
:101BC000100000201400002070B5454B1B68454CE8
:101BD000236023461B68444C24681B1B4343414C31
:101BE000246801FB04333F4C24683F4D2D680226D6
:101BF00006FB15443D4D2D682C4402FB04333C4C40
:101C00002360394B1B68394C2360364B1B68364CBC
:101C10002360384B1B68364C24682344354C2360C2
:101C200023461B6840F6B83494FBF3F3324C236030
:101C30002368002B01DB1C4600E05C422F4D2C602A
:101C40002B461B68B3F57A7F04DB4FF496732C4C5C
:101C500023600AE0294B1B68322B03DB6423284CEA
:101C6000236002E03223264C2360234C2468C825DD
:101C700095FBF4F303EBD3746410C4F10104204D1D
:101C80002D686C431F4D2C601B4C2468C82595FBA8
:101C9000F4F303EBD3746410C4F10104184D2D6800
:101CA0006C43194D2C60144C2468C82595FBF4F343
:101CB00003EBD3746410641C114D2D686C43134DF9
:101CC0002C600D4C2468C82595FBF4F303EBD3740A
:101CD0006410641C0A4D2D686C430D4D2C6070BD62
:101CE0007000002004010020080100200C010020E9
:101CF00014010020100100201C0100202001002000
:101D0000180100201000002014000020080000200E
:101D10000C000020002107E0002201E0531C9AB2D1
:101D2000092AFBDB4B1C99B28142F5DB70470000AE
:101D3000074A126802F0807242B100BF4FF0604261
:101D40001268002AFAD04FF0604318707047000004
:101D5000FCED00E01348008813490860084600685D
:101D600012490968401A124908600846006810F5CF
:101D70007A6F05DA0846006800F5FA5008600AE054
:101D80000B480068B0F57A6F05DD09480068A0F5DA
:101D9000FA5007490860034800880449086004486D
:101DA00000687047243401403000002028000020E3
:101DB0002C0000201348008813490860084600687A
:101DC00012490968401A124908600846006810F56F
:101DD0007A6F05DA0846006800F5FA5008600AE0F4
:101DE0000B480068B0F57A6F05DD09480068A0F57A
:101DF000FA5007490860034800880449086004480D
:101E000000687047240800403C0000203400002097
:101E1000380000204FF4A060FEF73CFC1248018817
:101E200012480088FFF76AFCFEF7A8FA00F01EFAD5
:101E3000FEF794FFFFF760F8FFF79CF8FFF7D4FC7C
:101E400010E00B48007828B9012211461046FFF730
:101E500015FE07E0002007490860012211461046E0
:101E6000FFF7B2FEEDE700000400002000000020B4
:101E7000680000207000002070B504460D4616462C
:101E8000DA480068DA490968401ADA490860084601
:101E90000068D9490968401A6043D649096805FBBA
:101EA0000100D4490968D44A1268022303FB1211C5
:101EB000D24A1268114406FB0100D1490860CE489D
:101EC0000068CE490860CB480068CB490860CD481F
:101ED0000068CB4909680844CA4908600846006898
:101EE000002819DA0121C848FEF790FB0221C648F4
:101EF000FEF78AFBC3480068C44909884942884202
:101F000004DAC24800884042BE490860BD480088E3
:101F10004042BF49C88015E00221BB48FEF776FB6E
:101F20000121B948FEF770FBB6480068B749098837
:101F3000884203DDB5480088B2490860B14800888E
:101F4000B349C880B249B348FFF7FCF90821B1484A
:101F5000FFF744FAB0480068B0490968401AB04930
:101F6000086008460068AF490968401A6043AC49F8
:101F7000096805FB0101AA480068AA4A1268022301
:101F800003FB1200A84A1268104406FB0010A74980
:101F90000860A4480068A4490860A1480068A149F5
:101FA0000860A3480068A14909680844A04908607E
:101FB00008460068002819DA04219348FEF726FB3A
:101FC00008219148FEF720FB994800688F4909884D
:101FD0004942884204DA8D480088404294490860AA
:101FE0009348008840428A49C88015E00421864809
:101FF000FEF70CFB08218448FEF706FB8C480068BE
:1020000082490988884203DD804800888849086041
:10201000874800887E49C8807D497E48FFF7E8F9F7
:1020200008217C48FFF736FA82480068824909682F
:10203000401A824908600846006881490968401AC8
:1020400060437E49096805FB01007C4909687C4AB8
:102050001268022303FB12117A4A1268114406FB2C
:10206000010079490860764800687649086073483D
:102070000068734908607548006873490968084436
:102080007249086008460068002819DA10215E4885
:10209000FEF7BCFA20215C48FEF7B6FA6B480068F0
:1020A0005A4909884942884204DA5848008840421F
:1020B000664908606548008840425549C88015E077
:1020C00010215148FEF7A2FA20214F48FEF79CFA52
:1020D0005E4800684D490988884203DD4B48008806
:1020E0005A490860594800884949C88048494948C0
:1020F000FFF7DEF908214748FFF72AFA544800683D
:1021000054490968401A5449086008460068534910
:102110000968401A60435049096805FB01014E48AF
:1021200000684E4A1268022303FB12004C4A1268F0
:10213000104406FB00104B490860484800684849B5
:1021400008604548006845490860474800684549B7
:10215000096808444449086008460068002819DAFC
:1021600040212948FEF752FA80212748FEF74CFA11
:102170003D480068254909884942884204DA2348D5
:10218000008840423849086037480088404220496A
:10219000C88015E040211C48FEF738FA80211A4813
:1021A000FEF732FA3048006818490988884203DD92
:1021B000164800882C4908602B4800881449C880BC
:1021C00013491448FFF7CEF908211248FFF708FA1F
:1021D00001211048FEF7F2FE01210E48FEF700FF34
:1021E00001210C48FEF708FF70BD00000800002028
:1021F000180000209C000020A0000020A400002067
:10220000A8000020AC0000200014014002000020C3
:102210002E010020000C00400C0000201C000020BB
:10222000B0000020B4000020B8000020BC00002056
:10223000C00000201000002020000020C40000206A
:10224000C8000020CC000020D0000020D4000020D6
:102250001400002024000020D8000020DC00002012
:10226000E0000020E4000020E800002010B5124843
:1022700000684FF47A71B0FBF1F0322100FB01F4F9
:10228000B4F1807F00D311E024F07F40401E4FF076
:10229000E02148610F214FF0FF30FEF705FA0020E2
:1022A0004FF0E02188610720086100BF0021481E2F
:1022B000FEF7FAF910BD000080000020DC220008C3
:1022C0000000002024010000081900080024000874
:1022D000240100201C040000181900084700E7032F
:1022E0002C010000000000000000000000000000C1
:1022F00000000000000000000000000000000000DE
:1023000000000000000000000000000000000000CD
:1023100000000000000000000000000000000000BD
:10232000FFFFFFFF00000000FFFFFFFF00000000B5
:10233000000000000000000000000000000000009D
:10234000000000000000000000000000000000008D
:1023500000000000000000000000000000A24A048D
:102360000000000000000000010203040607080945
:10237000000000000000000000000000000000005D
:10238000000000000000000000000000000000004D
:10239000000000000000000000000000000000003D
:1023A000000000000000000000000000000000002D
:1023B000000000000000000000000000000000001D
:1023C000000000000000000001000000000000000C
:1023D00000000000000000000000000000000000FD
:1023E00000000000000000000000000000000000ED
:1023F00000000000000000000000000000000000DD
:0400000508000145A9
:00000001FF
