:020000040800F2
:1000000060040020450100087B030008730300081A
:1000100077030008B90100081D1100080000000066
:100020000000000000000000000000006D04000857
:10003000BD0100080000000029040008590500085F
:100040005F0100085F0100085F0100085F01000810
:100050005F0100085F0100085F0100085F01000800
:100060005F0100085F0100085F0100085F010008F0
:100070005F0100085F0100085F0100085F010008E0
:100080005F0100085F0100085F0100085F010008D0
:100090005F0100085F0100085F0100085F010008C0
:1000A0005F0100085F0100085F0100085F010008B0
:1000B0005F0100085F0100085F0100085F010008A0
:1000C0005F0100085F0100085F0100085F01000890
:1000D0005F0100085F0100085F0100085F01000880
:1000E0005F0100085F0100085F0100085F01000870
:1000F000890A00085F010008250800085F01000860
:100100005F0100085F0100085F0100085F0100084F
:100110005F0100085F0100085F0100085F0100083F
:100120005F0100085F0100085F0100085F0100082F
:10013000DFF80CD000F02EF8004800473913000813
:10014000600400200648804706480047FEE7FEE7B7
:10015000FEE7FEE7FEE7FEE7FEE7FEE7FEE7FEE777
:10016000850500083101000830B50B460146002026
:100170002022012409E021FA02F59D4205D303FA69
:1001800002F5491B04FA02F52844151EA2F10102EA
:10019000F1DC30BD064C074D06E0E06840F001039D
:1001A00094E8070098471034AC42F6D3FFF7C4FF39
:1001B000B0130008D013000800BFFEE7704700002E
:1001C00000B587B00121042000F030F9012108209A
:1001D00000F03CF9C020ADF8180004208DF81B0099
:1001E00003208DF81A0006A9194800F035F8002000
:1001F000ADF80C00ADF80E0041F63F70ADF8100000
:100200000020ADF812008DF8140003A9114800F089
:10021000CFFE0A231A4603210E4800F09EFC6846D2
:1002200000F02AFD0620ADF808006946094800F0F4
:10023000CDFC0121074800F06FFC0021054800F0CB
:1002400088FE0121034800F06DFC07B000BD0000EE
:10025000000C0140000800402DE9F0410246002555
:100260000026002000230024002791F803C00CF092
:100270000F0591F803C00CF0100CBCF1000F03D077
:1002800091F802C04CEA050591F800C0BCF1000FDE
:1002900031D0146800202BE04FF0010C0CFA00F371
:1002A000B1F800C00CEA03069E4220D183004FF053
:1002B0000F0C0CFA03F7BC4305FA03FC4CEA0404E8
:1002C00091F803C0BCF1280F06D14FF0010C0CFAD5
:1002D00000FCC2F814C00AE091F803C0BCF1480F5A
:1002E00005D14FF0010C0CFA00FCC2F810C0401C04
:1002F0000828D1D31460B1F800C0BCF1FF0F34DD81
:10030000546800202EE000F1080C4FF0010808FAB4
:100310000CF3B1F800C00CEA03069E4221D1830021
:100320004FF00F0C0CFA03F7BC4305FA03FC4CEA40
:10033000040491F803C0BCF1280F05D100F1080CAA
:1003400008FA0CF8C2F8148091F803C0BCF1480F09
:1003500007D100F1080C4FF0010808FA0CF8C2F8B8
:100360001080401C0828CED35460BDE8F081416164
:10037000704700BFFEE700BFFEE7704770B5002181
:1003800000230F22C47804B3154C246804F4E064FD
:10039000C4F5E064210AC1F10403CA40447804FAB8
:1003A00003F184781440214309010E4C0678A155CD
:1003B000047804F01F050124AC4005786D11AD00F0
:1003C00005F1E025C5F8004109E0047804F01F05B7
:1003D0000124AC40044D0678761145F8264070BDE6
:1003E0000CED00E000E400E080E100E002490143A0
:1003F000024A1160704700000000FA050CED00E0B1
:1004000010B5002807DA0A07140E054A00F00F039A
:100410001B1FD45403E00A07130E024A135410BDE5
:1004200018ED00E000E400E07047000029B1064A42
:10043000D2690243044BDA6104E0034AD269824381
:10044000014BDA61704700000010024029B1064AF2
:1004500092690243044B9A6104E0034A9269824321
:10046000014B9A617047000000100240704710B5C0
:1004700000F002F810BD00000CB5002001900090C3
:100480003348006840F480303149086000BF30488C
:10049000006800F4003000900198401C0190009822
:1004A00018B90198B0F5A06FF1D12948006800F49F
:1004B000003010B10120009001E000200090009871
:1004C000012843D12348006840F01000214908600A
:1004D0000846006820F0030008600846006840F005
:1004E000020008601A484068194948600846406898
:1004F00048600846406840F48060486008464068AC
:1005000020F47C1048600846406840F4E8104860D9
:100510000846006840F08070086000BF0C48006822
:1005200000F000700028F9D00948406820F003006E
:10053000074948600846406840F00200486000BF34
:100540000348406800F00C000828F9D10CBD0000F9
:10055000001002400020024000B5084A00F0BCFE36
:10056000D22148434FF47A71484300EB80004300A6
:1005700093FBF2F00249086000BD000078260700F6
:100580000800002010B51348006840F00100114930
:10059000086008464068104908400E49486008460F
:1005A00000680E4908400B4908600846006820F4BE
:1005B000802008600846406820F4FE0048604FF440
:1005C0001F008860FFF753FF4FF000600449086088
:1005D00010BD0000001002400000FFF8FFFFF6FE13
:1005E00008ED00E0F0B50C46154600220021068C0F
:1005F0004FF6FE773E400684028B018C4FF60C7658
:1006000032407E1C06EA03162E433243104EB0429F
:100610000ED0104EB0420BD0B0F1804F08D00E4E2D
:10062000B04205D00D4EB04202D00D4EB04206D1C0
:100630004FF6FD76314044F00106314305E04FF6B8
:10064000F576314044F00106314302830184F0BD68
:10065000002C01400034014000040040000800402C
:10066000000C0040F0B50C46154600220021002683
:10067000078C4FF6EF7C07EA0C070784028B018C8E
:100680004FF6FF7707EA041640F6FF473A404FF669
:10069000FF7707EA03373A434FF6FF7707EA052764
:1006A0003A43114FB8420ED0104FB8420BD0B0F1C0
:1006B000804F08D00E4FB84205D00E4FB84202D03E
:1006C0000D4FB84206D14FF6DF77394046F010079C
:1006D000394305E04FF65F77394044F0100739435E
:1006E00002830184F0BD0000002C01400034014071
:1006F0000004004000080040000C0040F0B50C462B
:100700001546002200210026078C4FF6FF6C07EAF1
:100710000C070784828B018C4FF6FF7707EA0426CB
:100720004FF60C773A404FF6FF7707EA03172F434F
:100730003A43114FB8420ED0104FB8420BD0B0F12F
:10074000804F08D00E4FB84205D00E4FB84202D0AD
:100750000D4FB84206D14FF6FF57394046F4807727
:10076000394305E04FF2FF57394044F4807739436D
:1007700082830184F0BD0000002C01400034014060
:100780000004004000080040000C0040F0B50C469A
:100790001546002200210026078C4EF6FF7C07EA52
:1007A0000C070784828B018C4FF6FF7707EA04362B
:1007B00040F6FF473A404FF6FF7707EA05273A43EE
:1007C0004FF6FF7707EA03373A43114FB8420ED08E
:1007D000104FB8420BD0B0F1804F08D00E4FB84246
:1007E00005D00E4FB84202D00D4FB84206D14DF69B
:1007F000FF77394046F48057394305E047F6FF5705
:10080000394044F48057394382830184F0BD0000AD
:10081000002C01400034014000040040000800406A
:10082000000C004010B508214A4800F0BEF901282C
:100830004CD10821474800F072F9464800F0AEF963
:10084000454908604548006840F2537148434249B1
:10085000096801EB401042490968401A41490860A3
:10086000414800686421B0FBF1F0D221484300EB1D
:10087000800040003D4908603A490868C11700EB14
:100880009171891040F627125143394A1160374857
:10089000006811460968B0FBF1F036490860084667
:1008A0000068B0F57A7F02D9084600680860002029
:1008B0002A49086028480068294908602E480268CB
:1008C0002C4801682DA000F02BFC42E010212148AB
:1008D00000F06BF901283CD110211E4800F01FF9EF
:1008E0001C4800F05EF92A4908602A48006840F276
:1008F000537148432649096801EB401026490968AD
:10090000401A2649086022480068234908600020F0
:1009100020490860144800686421B0FBF1F0D2213E
:10092000484300EB80004000104908601B490868FC
:10093000C11700EB9171891040F6271251430C4A00
:1009400011600A48006811460968B0FBF1F00A49D5
:10095000086010BD00340140100000202800002075
:10096000140000202000002040000020380000205B
:100970003C000020300000203400002076333A256F
:10098000642020202076343A2025640A00000000EC
:10099000180000202C0000201C0000202400002053
:1009A00000B589B001214803FFF750FD0121102057
:1009B000FFF74CFD4FF44070ADF8040028208DF88F
:1009C000070003208DF8060001A92D48FFF744FC1D
:1009D0004FF440712A48FFF7CAFC4EF65F20ADF88D
:1009E00010006320ADF80C000020ADF81200ADF847
:1009F0000E008DF8140003A9224800F0D9FA06A8C9
:100A000000F03AF90820ADF818000020ADF81A00FF
:100A10000120ADF81C000820ADF81E000020ADF844
:100A2000200006A9174800F0D1F80C20ADF81800F6
:100A300006A9144800F0CAF82E208DF808000220FC
:100A40008DF809008DF80A0001208DF80B0002A82E
:100A5000FFF794FC2C208DF8080001208DF8090088
:100A60008DF80A0002A8FFF789FC01221921054828
:100A700000F00BF90121034800F054F809B000BD63
:100A8000001001400034014010B50121174800F06A
:100A90008CF8012829D116480068401C14490860C8
:100AA00008460068052809DD002012490860104842
:100AB00000680A2802DD0A200D4908600E48006817
:100AC000401C0D49086008460068052809DD002023
:100AD0000A490860084800680A2802DD0A20064919
:100AE00008600121014800F01AF810BD00340140EF
:100AF00028000020300000202C00002034000020BE
:100B000021B1028842F08002028004E002884FF6A0
:100B10007F731A4002807047CA4302827047CA43FB
:100B20000282704721B1028842F00102028004E093
:100B300002884FF6FE731A400280704731B1B0F858
:100B4000442042F40042A0F8442005E0B0F84420DC
:100B5000C2F30E02A0F844207047F0B50C461546CB
:100B60001E460021002200230189028B038C4FF6D0
:100B7000F877394021434FF6FC473A4040F20117DD
:100B80003A434FF6DD773B404FF6FF7707EA06170B
:100B90002F433B43018102830384F0BD0146888FCC
:100BA00070470146B1F84000704730B5024600205A
:100BB00000230024158A05EA0103958905EA01044A
:100BC00013B10CB1012000E0002030BD70B5054626
:100BD0000C46244885420ED0234885420BD0B5F1FF
:100BE000804F08D02148854205D02148854202D057
:100BF0002048854200D100E000BF208850B92389F9
:100C0000A28861882846FFF7EDFCE188284600F0BD
:100C1000A2F925E0208804280AD12389A2886188C6
:100C20002846FFF71FFDE188284600F09DF917E0F0
:100C3000208808280AD12389A28861882846FFF7DE
:100C40005DFDE188284600F09CF909E02389A2882F
:100C500061882846FFF79AFDE188284600F09AF956
:100C600070BD0000002C0140003401400004004031
:100C700000080040000C004000210180418001215B
:100C800081800021C180018170471AB183890B43A3
:100C9000838102E083898B438381704770B5002490
:100CA00000220023058C4FF6FE7635400584028C29
:100CB0008388048B4FF68F752C40B51E2C400D8811
:100CC0002C43751E2A400D892A434D882A43144D12
:100CD000A8420BD0134DA84208D0134DA84205D00E
:100CE000124DA84202D0124DA84213D14FF6F7750B
:100CF0002A404D892A434FF6FB752A408D882A43A6
:100D00004FF6FF652B404FF6FF552B408D892B4347
:100D1000CD892B4383800483CD888586028470BD72
:100D2000002C0140003401400040014000440140DB
:100D3000004801400A460021018B4FF6F773194025
:100D4000114301837047000070B500240022002386
:100D5000058C4FF6EF7635400584028C8388048B32
:100D600048F6FF752C404FF6FF452C400D884FF696
:100D7000FF7606EA05252C434FF6DF752A400D89DC
:100D800006EA05152A434D8806EA05152A43154D3E
:100D9000A84202D0144DA8421DD14FF67F752A40BB
:100DA0004D894FF6FF7606EA05152A434FF6BF75C3
:100DB0002A408D8806EA05152A434FF6FF352B4059
:100DC0004FF2FF752B408D8906EA85052B43CD89AF
:100DD00006EA85052B4383800483CD88058702843A
:100DE00070BD0000002C0140003401400A46002183
:100DF000018B4FF2FF7319404FF6FF7303EA022392
:100E0000194301837047000070B5002400220023BD
:100E1000058C4FF6FF6635400584028C8388848BF1
:100E20004FF68F752C404FF6FC752C400D882C43E7
:100E30004FF6FF552A400D894FF6FF7606EA052545
:100E40002A434D8806EA05252A43154DA84202D0BB
:100E5000144DA8421DD14FF2FF752A404D894FF61F
:100E6000FF7606EA05252A434FF6FF352A408D888E
:100E700006EA05252A434EF6FF752B404DF6FF7511
:100E80002B408D8906EA05152B43CD8906EA051509
:100E90002B4383808483CD888587028470BD0000C6
:100EA000002C0140003401400A460021818B4FF69E
:100EB000F7731940114381837047000070B5002219
:100EC00000230024058C4EF6FF7635400584038C04
:100ED0008488828B48F6FF752A404FF6FF452A40EA
:100EE0000D884FF6FF7606EA05252A434DF6FF7575
:100EF0002B400D8906EA05352B434D8806EA05355A
:100F00002B430B4DA84202D00A4DA84208D14BF604
:100F1000FF752C408D894FF6FF7606EA85152C4328
:100F200084808283CD88A0F84050038470BD000087
:100F3000002C0140003401400A460021818B4FF211
:100F4000FF7319404FF6FF7303EA022319438183AD
:100F5000704781847047028B4FF6F3731A40028307
:100F6000028B0A4302837047028B4FF2FF331A4011
:100F70000283028B4FF6FF7303EA01231A430283B5
:100F80007047828B4FF6F3731A408283828B0A4339
:100F900082837047828B4FF2FF331A408283828BA9
:100FA0004FF6FF7303EA01231A4382837047000060
:100FB000002202881D4B98420ED01D4B98420BD048
:100FC000B0F1804F08D01B4B984205D01A4B984285
:100FD00002D01A4B984204D14FF68F731A404B88B7
:100FE0001A43174B984207D0164B984204D04FF63D
:100FF000FF431A40CB881A4302808B8883850B8875
:1010000003850A4B98420BD0094B984208D00E4BEF
:10101000984205D00D4B984202D00D4B984201D119
:101020000B7A03860123838270470000002C014065
:10103000003401400004004000080040000C004063
:1010400000100040001400400040014000440140F6
:101050000048014070B588B006460C46154601218F
:101060000420FFF7F3F918208DF81F0003208DF8F6
:101070001E000F20ADF81C0007A92548FFF7ECF86B
:1010800001210820FFF7D2F9ADF81060ADF8144047
:101090000020ADF8120004A91E48FFF789FF602068
:1010A000ADF800000020ADF80800ADF806500120B2
:1010B000ADF8020069461848FFF7F0FD694616488A
:1010C000FFF742FE69461448FFF79EFE6946124844
:1010D000FFF7F4FE08210F48FFF72CFE08210D480A
:1010E000FFF784FE08210B48FFF7DEFE08210948C0
:1010F000FFF722FF01210748FFF702FD0121054804
:10110000FFF710FD01210348FFF718FD08B070BD7F
:1011100000080140000C0040002C014000BFFEE729
:101120000FB4054B10B503A9044A029800F018F853
:1011300010BC5DF814FB0000B5120008540000203C
:1011400002E008C8121F08C1002AFAD17047704790
:10115000002001E001C1121F002AFBD170470000EE
:101160002DE9FF4F89B09B460446002506E025285F
:101170000BD05A460B999047641C6D1C20780028B0
:10118000F5D10DB02846BDE8F08F0027B846012202
:10119000474900E0074314F8013F203B02FA03F0FF
:1011A0000842F7D120782E2819D114F8010F47F002
:1011B00004072A280ED06FF02F022078A0F130010A
:1011C00009290CD808EB880102EB410100EB01086A
:1011D000641CF2E70A98641C50F8048B0A9020788B
:1011E0000028CED0642808D0692806D075281ED0E3
:1011F0005A460B9990476D1C58E00A994FF00A091E
:1012000001C90A91002802DA40422D2102E0390585
:1012100004D52B218DF82010012103E0F90704D01B
:101220002021F7E78A4608AE0DE00021FAE70A9987
:101230004FF00A0901C90A91F7E74946FEF794FF02
:10124000303106F8011D0028F7D1ADEB060000F1A2
:101250002009780701D44FF00108C84502DDA8EB4A
:10126000090000E000208046002706E008A85A4652
:10127000C05D0B9990476D1C7F1C5745F6DB04E061
:1012800030205A460B9990476D1CB8F10001A8F127
:101290000108F5DC05E016F8010B5A460B9990475A
:1012A0006D1CB9F10001A9F10109F4DC641C65E7CA
:1012B00009280100074A126802F0807242B100BF9B
:1012C0004FF060421268002AFAD04FF06043187065
:1012D00070470000FCED00E01348008813490860E7
:1012E0000846006812490968401A12490860084611
:1012F000006810F57A6F05DA0846006800F5FA50C4
:1013000008600AE00B480068B0F57A6F05DD09480F
:101310000068A0F5FA5007490860034800880449AE
:101320000860044800687047240800400C00002052
:101330000000002004000020472431251E264FF421
:10134000A060FFF753F8324629462046FFF782FE99
:10135000FEF736FF00F004F8FFF722FB00BFFEE7C0
:1013600010B5124800684FF47A71B0FBF1F03221E9
:1013700000FB01F4B4F1807F00D311E024F07F4042
:10138000401E4FF0E02148610F214FF0FF30FFF782
:1013900037F800204FF0E02188610720086100BF86
:1013A0000021481EFFF72CF810BD0000400000206F
:1013B000D0130008000000205C000000401100086D
:1013C0002C1400085C0000200404000050110008E8
:1013D000000000000000000000000000000000000D
:1013E00000000000FFFFFFFF00000000FFFFFFFF05
:1013F00000000000000000000000000000000000ED
:1014000000000000000000000000000000000000DC
:1014100000A24A04000000000000000001020304D2
:0C142000060708090000000000000000A2
:0400000508000145A9
:00000001FF
