:020000040800F2
:1000000030040020450100087F0300087703000842
:100010007B030008B9010008750D0008000000000E
:10002000000000000000000000000000C503000800
:10003000BD0100080000000081030008B1040008B1
:100040005F0100085F0100085F0100085F01000810
:100050005F0100085F0100085F0100085F01000800
:100060005F0100085F0100085F0100085F010008F0
:100070005F0100085F0100085F0100085F010008E0
:100080005F0100085F0100085F0100085F010008D0
:100090005F0100085F0100085F0100085F010008C0
:1000A0005F0100085F0100085F0100085F010008B0
:1000B0005F0100085F0100085F0100085F010008A0
:1000C0005F0100085F0100085F0100085F01000890
:1000D0005F0100085F0100085F0100085F01000880
:1000E0005F0100085F0100085F0100085F01000870
:1000F0005F0100085F0100085F0100085F01000860
:100100005F0100085F0100085F0100085F0100084F
:100110005F0100085F0100085F0100085F0100083F
:100120005F0100085F0100085F0100085F0100082F
:10013000DFF80CD000F02EF800480047910F0008BF
:10014000300400200648804706480047FEE7FEE7E7
:10015000FEE7FEE7FEE7FEE7FEE7FEE7FEE7FEE777
:10016000ED0400083101000830B50B4601460020BF
:100170002022012409E021FA02F59D4205D303FA69
:1001800002F5491B04FA02F52844151EA2F10102EA
:10019000F1DC30BD064C074D06E0E06840F001039D
:1001A00094E8070098471034AC42F6D3FFF7C4FF39
:1001B000141000083410000800BFFEE7704700006C
:1001C00000B587B00121042000F0DCF801210820EF
:1001D00000F0E8F8C020ADF8180004208DF81B00EE
:1001E00003208DF81A0006A91B4800F039F80020FA
:1001F000ADF80C00ADF80E0041F63F70ADF8100000
:100200000020ADF812008DF8140003A9134800F087
:10021000FBFC0A231A460321104800F0E1FA684665
:1002200000F056FB0620ADF8080069460B4800F0C8
:10023000F9FA0121094800F0B5FA012211460748F0
:1002400000F04FFB0021054800F0AFFC01210348FE
:1002500000F0ABFA07B000BD000C01400008004000
:100260002DE9F0410246002500260020002300244D
:10027000002791F803C00CF00F0591F803C00CF0B3
:10028000100CBCF1000F03D091F802C04CEA050538
:1002900091F800C0BCF1000F31D0146800202BE0B1
:1002A0004FF0010C0CFA00F3B1F800C00CEA0306A1
:1002B0009E4220D183004FF00F0C0CFA03F7BC4391
:1002C00005FA03FC4CEA040491F803C0BCF1280FC2
:1002D00006D14FF0010C0CFA00FCC2F814C00AE081
:1002E00091F803C0BCF1480F05D14FF0010C0CFA96
:1002F00000FCC2F810C0401C0828D1D31460B1F82B
:1003000000C0BCF1FF0F34DD546800202EE000F186
:10031000080C4FF0010808FA0CF3B1F800C00CEA21
:1003200003069E4221D183004FF00F0C0CFA03F715
:10033000BC4305FA03FC4CEA040491F803C0BCF189
:10034000280F05D100F1080C08FA0CF8C2F8148047
:1003500091F803C0BCF1480F07D100F1080C4FF031
:10036000010808FA0CF8C2F81080401C0828CED307
:100370005460BDE8F08100BFFEE700BFFEE77047B4
:100380007047000029B1064AD2690243044BDA6182
:1003900004E0034AD2698243014BDA6170470000EE
:1003A0000010024029B1064A92690243044B9A6147
:1003B00004E0034A92698243014B9A61704700004E
:1003C00000100240704710B500F002F810BD0000A8
:1003D0000CB50020019000903348006840F4803054
:1003E0003149086000BF3048006800F400300090D8
:1003F0000198401C0190009818B90198B0F5A06FC1
:10040000F1D12948006800F4003010B101200090BB
:1004100001E0002000900098012843D123480068A3
:1004200040F01000214908600846006820F00300F1
:1004300008600846006840F0020008601A484068FA
:10044000194948600846406848600846406840F4DA
:10045000806048600846406820F47C104860084688
:10046000406840F4E81048600846006840F080703A
:10047000086000BF0C48006800F000700028F9D048
:100480000948406820F00300074948600846406872
:1004900040F00200486000BF0348406800F00C00D4
:1004A0000828F9D10CBD00000010024000200240D5
:1004B00070B50A4C00F03CFDD22148434FF47A71EC
:1004C000484300EB8000450095FBF4F004490860C8
:1004D0000846016803A000F04FFC70BD78260700B5
:1004E000080000202564200A0000000010B5134811
:1004F000006840F001001149086008464068104952
:1005000008400E494860084600680E4908400B49FB
:1005100008600846006820F48020086008464068AB
:1005200020F4FE0048604FF41F008860FFF74BFF87
:100530004FF000600449086010BD00000010024048
:100540000000FFF8FFFFF6FE08ED00E0F0B50C46F6
:10055000154600220021068C4FF6FE773E400684A9
:10056000028B018C4FF60C7632407E1C06EA031695
:100570002E433243104EB0420ED0104EB0420BD03C
:10058000B0F1804F08D00E4EB04205D00D4EB042B3
:1005900002D00D4EB04206D14FF6FD76314044F008
:1005A0000106314305E04FF6F576314044F001068F
:1005B000314302830184F0BD002C0140003401402E
:1005C0000004004000080040000C0040F0B50C465C
:1005D0001546002200210026078C4FF6EF7C07EA23
:1005E0000C070784028B018C4FF6FF7707EA04168D
:1005F00040F6FF473A404FF6FF7707EA03373A43A2
:100600004FF6FF7707EA05273A43114FB8420ED05D
:10061000104FB8420BD0B0F1804F08D00E4FB84207
:1006200005D00E4FB84202D00D4FB84206D14FF65A
:10063000DF77394046F01007394305E04FF65F7722
:10064000394044F01007394302830184F0BD0000B3
:10065000002C01400034014000040040000800402C
:10066000000C0040F0B50C46154600220021002683
:10067000078C4FF6FF6C07EA0C070784828B018C0E
:100680004FF6FF7707EA04264FF60C773A404FF60D
:10069000FF7707EA03172F433A43114FB8420ED0B2
:1006A000104FB8420BD0B0F1804F08D00E4FB84277
:1006B00005D00E4FB84202D00D4FB84206D14FF6CA
:1006C000FF57394046F48077394305E04FF2FF5732
:1006D000394044F48077394382830184F0BD0000BF
:1006E000002C01400034014000040040000800409C
:1006F000000C0040F0B50C461546002200210026F3
:10070000078C4EF6FF7C07EA0C070784828B018C6E
:100710004FF6FF7707EA043640F6FF473A404FF6B8
:10072000FF7707EA05273A434FF6FF7707EA0337D3
:100730003A43114FB8420ED0104FB8420BD0B0F12F
:10074000804F08D00E4FB84205D00E4FB84202D0AD
:100750000D4FB84206D14DF6FF77394046F4805729
:10076000394305E047F6FF57394044F48057394391
:1007700082830184F0BD0000002C01400034014060
:100780000004004000080040000C004021B1028835
:1007900042F08002028004E002884FF67F731A4024
:1007A00002807047CA430282704721B1028842F03A
:1007B0000102028004E002884FF6FE731A400280B4
:1007C000704731B1B0F8442042F40042A0F8442010
:1007D00005E0B0F84420C2F30E02A0F844207047B0
:1007E000F0B50C4615461E46002100220023018963
:1007F000028B038C4FF6F877394021434FF6FC47C4
:100800003A4040F201173A434FF6DD773B404FF64E
:10081000FF7707EA06172F433B43018102830384D6
:10082000F0BD000070B505460C46244885420ED048
:10083000234885420BD0B5F1804F08D0214885422E
:1008400005D02148854202D02048854200D100E0F1
:1008500000BF208850B92389A28861882846FFF705
:1008600075FEE188284600F0A2F925E020880428DA
:100870000AD12389A28861882846FFF7A7FEE1886C
:10088000284600F09DF917E0208808280AD123891E
:10089000A28861882846FFF7E5FEE188284600F037
:1008A0009CF909E02389A28861882846FFF722FF86
:1008B000E188284600F09AF970BD0000002C014044
:1008C000003401400004004000080040000C0040DB
:1008D000002101804180012181800021C1800181AE
:1008E00070471AB183890B43838102E083898B436C
:1008F0008381704770B5002400220023058C4FF6D9
:10090000FE7635400584028C8388048B4FF68F7504
:100910002C40B51E2C400D882C43751E2A400D8995
:100920002A434D882A43144DA8420BD0134DA842A8
:1009300008D0134DA84205D0124DA84202D0124D46
:10094000A84213D14FF6F7752A404D892A434FF636
:10095000FB752A408D882A434FF6FF652B404FF6E2
:10096000FF552B408D892B43CD892B4383800483F6
:10097000CD888586028470BD002C01400034014082
:100980000040014000440140004801400A46002167
:10099000018B4FF6F7731940114301837047000034
:1009A00070B5002400220023058C4FF6EF76354009
:1009B0000584028C8388048B48F6FF752C404FF623
:1009C000FF452C400D884FF6FF7606EA05252C439F
:1009D0004FF6DF752A400D8906EA05152A434D8832
:1009E00006EA05152A43154DA84202D0144DA84227
:1009F0001DD14FF67F752A404D894FF6FF7606EAE6
:100A000005152A434FF6BF752A408D8806EA05155D
:100A10002A434FF6FF352B404FF2FF752B408D894F
:100A200006EA85052B43CD8906EA85052B4383809D
:100A30000483CD880587028470BD0000002C01402E
:100A4000003401400A460021018B4FF2FF73194028
:100A50004FF6FF7303EA0223194301837047000036
:100A600070B5002400220023058C4FF6FF66354048
:100A70000584028C8388848B4FF68F752C404FF64B
:100A8000FC752C400D882C434FF6FF552A400D89EC
:100A90004FF6FF7606EA05252A434D8806EA052526
:100AA0002A43154DA84202D0144DA8421DD14FF241
:100AB000FF752A404D894FF6FF7606EA05252A4341
:100AC0004FF6FF352A408D8806EA05252A434EF663
:100AD000FF752B404DF6FF752B408D8906EA0515F5
:100AE0002B43CD8906EA05152B4383808483CD886B
:100AF0008587028470BD0000002C01400034014055
:100B00000A460021818B4FF6F77319401143818308
:100B10007047000070B5002200230024058C4EF6BB
:100B2000FF7635400584038C8488828B48F6FF75F8
:100B30002A404FF6FF452A400D884FF6FF7606EA19
:100B400005252A434DF6FF752B400D8906EA05352C
:100B50002B434D8806EA05352B430B4DA84202D0A6
:100B60000A4DA84208D14BF6FF752C408D894FF6EF
:100B7000FF7606EA85152C4384808283CD88A0F811
:100B80004050038470BD0000002C0140003401403F
:100B90000A460021818B4FF2FF7319404FF6FF7315
:100BA00003EA022319438183704781847047028BD3
:100BB0004FF6F3731A400283028B0A430283704795
:100BC000028B4FF2FF331A400283028B4FF6FF7302
:100BD00003EA01231A4302837047828B4FF6F373B3
:100BE0001A408283828B0A4382837047828B4FF242
:100BF000FF331A408283828B4FF6FF7303EA01238F
:100C00001A43828370470000002202881D4B9842DD
:100C10000ED01D4B98420BD0B0F1804F08D01B4B2B
:100C2000984205D01A4B984202D01A4B984204D1F0
:100C30004FF68F731A404B881A43174B984207D0D0
:100C4000164B984204D04FF6FF431A40CB881A4304
:100C500002808B8883850B8803850A4B98420BD0D2
:100C6000094B984208D00E4B984205D00D4B984244
:100C700002D00D4B984201D10B7A03860123838267
:100C800070470000002C0140003401400004004087
:100C900000080040000C004000100040001400401C
:100CA00000400140004401400048014070B588B058
:100CB00006460C46154601210420FFF773FB182059
:100CC0008DF81F0003208DF81E000F20ADF81C00CA
:100CD00007A92548FFF7C4FA01210820FFF752FBB6
:100CE000ADF81060ADF814400020ADF8120004A972
:100CF0001E48FFF789FF6020ADF800000020ADF826
:100D00000800ADF806500120ADF802006946184809
:100D1000FFF7F0FD69461648FFF742FE69461448A2
:100D2000FFF79EFE69461248FFF7F4FE08210F48C0
:100D3000FFF72CFE08210D48FFF784FE08210B4821
:100D4000FFF7DEFE08210948FFF722FF01210748CF
:100D5000FFF71CFD01210548FFF727FD012103488E
:100D6000FFF72FFD08B070BD00080140000C0040E7
:100D7000002C014000BFFEE70FB4054B10B503A9DE
:100D8000044A029800F018F810BC5DF814FB00004B
:100D90000D0F00082400002002E008C8121F08C13F
:100DA000002AFAD170477047002001E001C1121FEC
:100DB000002AFBD1704700002DE9FF4F89B09B4608
:100DC0000446002506E025280BD05A460B9990478B
:100DD000641C6D1C20780028F5D10DB02846BDE8B4
:100DE000F08F0027B8460122474900E0074314F876
:100DF000013F203B02FA03F00842F7D120782E2869
:100E000019D114F8010F47F004072A280ED06FF00B
:100E10002F022078A0F1300109290CD808EB8801B5
:100E200002EB410100EB0108641CF2E70A98641C24
:100E300050F8048B0A9020780028CED0642808D07F
:100E4000692806D075281ED05A460B9990476D1C0C
:100E500058E00A994FF00A0901C90A91002802DAFC
:100E600040422D2102E0390504D52B218DF82010B8
:100E7000012103E0F90704D02021F7E78A4608AEF4
:100E80000DE00021FAE70A994FF00A0901C90A9119
:100E9000F7E74946FFF768F9303106F8011D0028E9
:100EA000F7D1ADEB060000F12009780701D44FF02F
:100EB0000108C84502DDA8EB090000E000208046DB
:100EC000002706E008A85A46C05D0B9990476D1CA4
:100ED0007F1C5745F6DB04E030205A460B999047BB
:100EE0006D1CB8F10001A8F10108F5DC05E016F869
:100EF000010B5A460B9990476D1CB9F10001A9F1FD
:100F00000109F4DC641C65E709280100074A12683E
:100F100002F0807242B100BF4FF060421268002AB6
:100F2000FAD04FF06043187070470000FCED00E00D
:100F30001348008813490860084600681249096888
:100F4000401A124908600846006810F57A6F05DA01
:100F50000846006800F5FA5008600AE00B4800688F
:100F6000B0F57A6F05DD09480068A0F5FA50074929
:100F70000860034800880449086004480068704716
:100F8000240800400C000020000000200400002085
:100F9000472431251E26324629462046FFF786FE85
:100FA000FFF70EF900F002F800BFFEE730B5164873
:100FB00000684FF47A72B0FBF2F0322200FB02F1CB
:100FC000B1F1807F00D31DE021F07F40401E4FF043
:100FD000E022506150170F22002807DA13071D0E78
:100FE0000A4B00F00F04241F1D5503E013071C0ECD
:100FF000074B1C5400BF00204FF0E02290610720F7
:10100000106100BF30BD00001000002018ED00E0AE
:1010100000E400E034100008000000202C00000074
:10102000980D0008601000082C0000200404000047
:10103000A80D0008000000000000000000000000F3
:101040000000000000A24A040000000000000000B0
:101050000102030406070809000000000000000068
:0400000508000145A9
:00000001FF
