:020000040800F2
:100000007808002045010008DD0900086D09000896
:10001000D9090008AD040008A91F0008000000006D
:10002000000000000000000000000000B50B000808
:10003000B1040008000000008D0A0008DD0E000871
:100040005F0100085F0100085F0100085F01000810
:100050005F0100085F0100085F010008B5040008A7
:100060005F0100082D0500085F0100085F0100081E
:100070005F0100085F0100085F0100085F010008E0
:100080005F0100085F0100085F0100085F010008D0
:100090005F0100085F0100085F0100085F010008C0
:1000A0005F0100082D1500085F01000859120008C3
:1000B000A51500085F0100085F0100085F01000846
:1000C0005F0100085F0100085F0100085F01000890
:1000D0005F0100085F0100085F0100085F01000880
:1000E0005F0100085F0100085F0100085F01000870
:1000F0005F0100085F0100085F0100085F01000860
:100100005F0100085F0100085F0100085F0100084F
:100110005F0100085F0100082D1600085F0100085C
:100120005F0100085F0100085F0100085F0100082F
:10013000DFF80CD000F02EF80048004755230008E7
:10014000780800200648804706480047FEE7FEE79B
:10015000FEE7FEE7FEE7FEE7FEE7FEE7FEE7FEE777
:10016000B90F00083101000830B50B4601460020E8
:100170002022012409E021FA02F59D4205D303FA69
:1001800002F5491B04FA02F52844151EA2F10102EA
:10019000F1DC30BD064C074D06E0E06840F001039D
:1001A00094E8070098471034AC42F6D3FFF7C4FF39
:1001B000F82800081829000870B58C1810F8015BA1
:1001C00015F0070301D110F8013B2A1106D110F8F0
:1001D000012B03E010F8016B01F8016B5B1EF9D1F4
:1001E0002B0705D40023521E0DD401F8013BFAE77A
:1001F00010F8013BCB1A921C03E013F8015B01F8E5
:10020000015B521EF9D5A142D8D3002070BD21B1A7
:10021000826842F00102826003E0826822F00102FB
:100220008260704710B504461248844208D101210B
:10023000401500F069FC0021601500F065FC17E036
:100240000D48844208D10121001500F05DFC002119
:10025000201500F059FC0BE00848844208D1012128
:10026000C80300F051FC00214FF4004000F04CFCAA
:1002700010BD00000024014000280140003C014066
:10028000014600208A6802F004020AB1012000E061
:10029000002070470146C86C80B2704702460020BB
:1002A00013680B400BB1012000E0002070470146AD
:1002B00000208A6802F008020AB1012000E0002054
:1002C0007047000030B502460020002350680F4CF4
:1002D00020400D790C6844EA052420435060906862
:1002E0000B4C2040D1E902542C434D7944EA45049B
:1002F00020439060D06A20F470000C7C641EE4B24D
:10030000234340EA0350D06230BD0000FFFEF0FFFF
:10031000FDF7F1FFF0B504460D4600200021092D40
:1003200011DDE068A5F10A0606EB4607072606FA86
:1003300007F18843A5F10A0606EB460603FA06F123
:100340000843E0600CE0206905EB4507072606FA44
:1003500007F1884305EB450603FA06F108432061DF
:10036000072A0FDA606B561E06EB86071F2606FA71
:1003700007F18843561E06EB860605FA06F1084388
:10038000606322E00D2A0FDA206BD61F06EB86078A
:100390001F2606FA07F18843D61F06EB860605FAE4
:1003A00006F10843206310E0E06AA2F10D0606EBB7
:1003B00086071F2606FA07F18843A2F10D0606EB11
:1003C000860605FA06F10843E062F0BD816841F057
:1003D00008018160704721B1826842F4A002826006
:1003E00003E0826822F4A00282607047816841F0D5
:1003F000040181607047000000B587B001214FF40F
:10040000017000F071FB4FF4004000F041FB202030
:10041000ADF8040000208DF8070001A9214800F084
:10042000D9F94020ADF8040010208DF80700032012
:100430008DF8060001A91B4800F0CCF98020ADF82A
:10044000040001A9174800F0C5F91748FFF7EAFEB4
:10045000002002908DF80C008DF80D004FF4602004
:1004600004900020059001208DF8180002A90E4884
:10047000FFF728FF01210C48FFF7C9FE0A48FFF7E4
:10048000A5FF00BF0848FFF712FF0028FAD1064871
:10049000FFF7ACFF00BF0448FFF7F2FE0028FAD1D7
:1004A00007B000BD000801400024014000BFFEE786
:1004B0007047000010B5022000F07CF850B3022015
:1004C00000F072F80221144800F00FFA01280ED152
:1004D0000021800701F0F3FB002010490870012182
:1004E000880701F0DFF801200D49087012E00021B3
:1004F0004FF0804001F0D6F80948007850B1074825
:10050000007820B9012007490870074908700020C9
:100510000349087010BD00000018014010010020C0
:1005200012010020740000201401002010B50820E2
:1005300000F040F850B3082000F036F808211448C5
:1005400000F0D3F901280ED10021124801F0B7FBC9
:1005500000201149087001210E4801F0A3F8012084
:100560000E49087012E000210A4801F09BF80B4880
:10057000007858B10848007828B901200849087067
:1005800002200849087000200449087010BD0000CE
:10059000001801400010004011010020130100204C
:1005A0001401002074000020014908607047000019
:1005B00014040140014600200022074B1B6803EA97
:1005C0000102054B14331B680B4013B10AB1012023
:1005D00000E0002070470000000401400021234992
:1005E0008279002A3AD00A46126803689A430B4679
:1005F0001A600A1D126803689A430B1D1A6002797B
:1006000011440A6803681A430A60184A08321268DB
:1006100003689A43154B08331A601A1D1268036861
:100620009A43124B0C331A604279102A0ED11A1FCA
:10063000126803681A430D4B08331A601A1D1268BA
:1006400003681A43094B0C331A600DE007494279DD
:1006500011440A6803681A430A6005E002791144EC
:100660000A6803689A430A6070470000000401406A
:1006700000B58DB00121042000F016FA01210820F8
:1006800000F032FAC020ADF8300004208DF83300BD
:1006900003208DF832000CA93A4800F09BF80020A6
:1006A000ADF82400ADF8260041F63F70ADF8280003
:1006B0000020ADF82A008DF82C0009A9324801F07D
:1006C0002DFB0A231A4603212F4801F0FBF806A848
:1006D00001F088F90620ADF8200006A92A4801F0AB
:1006E0002BF90121284800F0D7FF0021264801F00E
:1006F000E6FA0121244800F0D5FF0121480300F06B
:10070000F3F90121102000F0EFF9C020ADF830001E
:1007100004208DF8330003208DF832000CA91B480B
:1007200000F058F80020ADF80C00ADF80E0041F6CE
:100730003F70ADF810000020ADF812008DF81400E5
:1007400003A9134801F0EAFA0A231A4603211048C4
:1007500001F0B8F8684601F045F90620ADF8080048
:1007600069460B4801F0E8F80121094800F094FFC0
:100770000021074801F0A3FA0121054800F092FF8B
:100780000DB000BD000C0140000800400010014009
:100790000034014030B500228B071C0F0F2303FAF1
:1007A00004F20B4B8C1053F824309343084C8D10FB
:1007B00044F8253023468C1053F824308C07240F3E
:1007C00000FA04F42343024C8D1044F8253030BD68
:1007D000080001402DE9F0410246002500260020D6
:1007E00000230024002791F803C00CF00F0591F8B6
:1007F00003C00CF0100CBCF1000F03D091F802C044
:100800004CEA050591F800C0BCF1000F31D0146826
:1008100000202BE04FF0010C0CFA00F3B1F800C0FF
:100820000CEA03069E4220D183004FF00F0C0CFA15
:1008300003F7BC4305FA03FC4CEA040491F803C037
:10084000BCF1280F06D14FF0010C0CFA00FCC2F8E5
:1008500014C00AE091F803C0BCF1480F05D14FF075
:10086000010C0CFA00FCC2F810C0401C0828D1D3BF
:100870001460B1F800C0BCF1FF0F34DD54680020F3
:100880002EE000F1080C4FF0010808FA0CF3B1F863
:1008900000C00CEA03069E4221D183004FF00F0CEA
:1008A0000CFA03F7BC4305FA03FC4CEA040491F884
:1008B00003C0BCF1280F05D100F1080C08FA0CF8B0
:1008C000C2F8148091F803C0BCF1480F07D100F1C1
:1008D000080C4FF0010808FA0CF8C2F81080401C10
:1008E0000828CED35460BDE8F0810246002093680A
:1008F0000B400BB1012000E00020704741617047C0
:10090000016170470AB1016100E04161704710B5B3
:10091000034600248B4202DD0C46194623469142D1
:1009200002DD14460A4621468B4202DD0C4619467A
:100930002346084610BD000010B5044607230122D7
:1009400021460948FFF7E6FC01210748FFF743FD70
:1009500000BF02210448FFF7A1FC0028F9D002489B
:10096000FFF798FC10BD00000024014000BFFEE727
:1009700010B516480078164908700120154908700E
:1009800018E0124C134B1B785B1CE25C2346114CA5
:100990002478195D0F4B1B785B1E0C4CE05CFFF755
:1009A000B6FF0B490B4A127888540A480078401C5D
:1009B00008490870074800787F28E2DB034890F870
:1009C0007F00034981F87F0010BD000078010020FE
:1009D000F80100201C01002000BFFEE77047000066
:1009E00070B5002100230F22C47804B3154C24688D
:1009F00004F4E064C4F5E064210AC1F10403CA40D0
:100A0000447804FA03F184781440214309010E4C20
:100A10000678A155047804F01F050124AC40057840
:100A20006D11AD0005F1E025C5F8004109E004783D
:100A300004F01F050124AC40044D0678761145F8FA
:100A4000264070BD0CED00E000E400E080E100E035
:100A500002490143024A1160704700000000FA0594
:100A60000CED00E010B5002807DA0A07140E054A5D
:100A700000F00F031B1FD45403E00A07130E024AB1
:100A8000135410BD18ED00E000E400E070470000D2
:100A900001460020034A506820F44040084350605B
:100AA000704700000010024029B1064AD269024393
:100AB000044BDA6104E0034AD2698243014BDA61F4
:100AC000704700000010024029B1064A1269024333
:100AD000044B1A6104E0034A12698243014B1A6114
:100AE000704700000010024029B1064A9269024393
:100AF000044B9A6104E0034A92698243014B9A6174
:100B0000704700000010024029B1064AD268024333
:100B1000044BDA6004E0034AD2688243014BDA6096
:100B2000704700000010024070B5002400258021AD
:100B30001E48FFF7E3FE012001F062FB80211B4805
:100B4000FFF7DEFE012001F05BFB40211748FFF7B5
:100B5000D5FE012001F054FB40211448FFF7D0FEE0
:100B600080211248FFF7CAFE012001F049FB00BFB7
:100B700018E040210D48FFF7C1FE012001F040FBC5
:100B80000520FFF7D9FEC0F3071009494855681C36
:100B9000C5B240210548FFF7B3FE012001F030FB4C
:100BA000601CC4B2802CE4DB70BD00000008014072
:100BB0007801002070470000F0B500205E4D2D68E0
:100BC0006C425E4D2D681A2D03DA1A255B4E356096
:100BD00006E05A4D2D68652D02DD6525574E3560BE
:100BE000564D2D78564E357020E048B9554D544E2F
:100BF000367855F82650A54202DA514D2A78012060
:100C000001280ED14F4D4E4E367855F826504A4E9B
:100C10003668B54205DD4A4D297802208D1AEBB2BF
:100C200008E0474D2D786D1C454E3570444D2D78AC
:100C30007F2DDADB00BF02280ED1032B0CDD0F2B3A
:100C40000ADA8D1805EBD57676103F4F3E60012508
:100C50003E4E3570002003E000253C4E35700020EC
:100C6000364D2D78364E357020E058B9354D344E1E
:100C7000367855F82650304E3668B54202DD304D94
:100C80002978012001280CD12E4D2D4E367855F8AB
:100C90002650A54205DA2A4D2A7802208D1AEBB299
:100CA00008E0274D2D786D1E254E3570244D2D788A
:100CB000002DDADC00BF02280ED1032B0CDD0F2B38
:100CC0000ADA8D1805EBD5767610214F3E600125A6
:100CD000204E3570002003E000251E4E35700020A8
:100CE0001C4D2D78012D0DD1184D2D78012D09D1D8
:100CF000174E3668144F3F68F51905EBD576761018
:100D00000E4F3E60134D2D78012D08D10F4D2D78DB
:100D10002DB90F4D2D681935084E35600BE00D4D7E
:100D20002D7845B9094D2D78012D04D1064D2D683A
:100D3000193D024E3560F0BD3C010020300100201D
:100D40001C01002078020020280100202C01002036
:100D5000200100202401002000202049087031E0FB
:100D60001F491E480078401C085C1C4A1278895CA8
:100D7000411A1C48194A127840F82210174909787C
:100D800050F8210018490968884206DD15481349C2
:100D9000097850F821001449086012480F49097871
:100DA00050F8210011490968884206DA0D480B49BC
:100DB000097850F821000D49086008480078401C67
:100DC00006490870054800787F28C9DB064908688D
:100DD00000EBD0714910064A116070471C010020D9
:100DE000F8010020780200203401002038010020A2
:100DF0003C01002010B500F001F810BD0CB500203A
:100E0000019000903348006840F480303149086018
:100E100000BF3048006800F4003000900198401C8A
:100E20000190009818B90198B0F5A06FF1D1294848
:100E3000006800F4003010B10120009001E00020B3
:100E400000900098012843D12348006840F010002A
:100E5000214908600846006820F003000860084641
:100E6000006840F0020008601A484068194948606C
:100E70000846406848600846406840F48060486022
:100E80000846406820F47C1048600846406840F4FA
:100E9000E81048600846006840F08070086000BFB5
:100EA0000C48006800F000700028F9D0094840683C
:100EB00020F00300074948600846406840F00200FF
:100EC000486000BF0348406800F00C000828F9D1D2
:100ED0000CBD0000001002400020024010B52E485A
:100EE0000068401C2C490860084600682B4990FBAC
:100EF000F1F201FB120028490860084600680A2147
:100F000090FBF1F201FB120018B90120244908609E
:100F100002E00020224908601F4800682F2190FB52
:100F2000F1F201FB120030B901F078F9012211460B
:100F3000104601F043FA184800686B2190FBF1F26B
:100F400001FB120018B901201649086002E00020D8
:100F50001449086010480068672190FBF1F201FB1A
:100F6000120058B94FF496700F4908600F49086095
:100F70000F4908600F49086001F004F9064800684D
:100F8000352190FBF1F201FB120020B9012211463C
:100F9000104601F013FA10BD8C00002080EE3600E0
:100FA0009000002094000020140000201800002071
:100FB0001C0000202000002010B51348006840F0FD
:100FC00001001149086008464068104908400E4970
:100FD0004860084600680E4908400B49086008460A
:100FE000006820F4802008600846406820F4FE0075
:100FF00048604FF41F008860FFF7FCFE4FF0006070
:101000000449086010BD0000001002400000FFF815
:10101000FFFFF6FE08ED00E0F0B50C461546002295
:101020000021068C4FF6FE773E400684028B018C31
:101030004FF60C7632407E1C06EA03162E433243EE
:10104000104EB0420ED0104EB0420BD0B0F1804FD7
:1010500008D00E4EB04205D00D4EB04202D00D4E1B
:10106000B04206D14FF6FD76314044F001063143DF
:1010700005E04FF6F576314044F001063143028336
:101080000184F0BD002C0140003401400004004008
:1010900000080040000C0040F0B50C461546002248
:1010A00000210026078C4FF6EF7C07EA0C07078427
:1010B000028B018C4FF6FF7707EA041640F6FF47D4
:1010C0003A404FF6FF7707EA03373A434FF6FF7788
:1010D00007EA05273A43114FB8420ED0104FB842E5
:1010E0000BD0B0F1804F08D00E4FB84205D00E4F54
:1010F000B84202D00D4FB84206D14FF6DF773940E3
:1011000046F01007394305E04FF65F77394044F069
:101110001007394302830184F0BD0000002C014018
:10112000003401400004004000080040000C004072
:10113000F0B50C461546002200210026078C4FF61C
:10114000FF6C07EA0C070784828B018C4FF6FF7750
:1011500007EA04264FF60C773A404FF6FF7707EA86
:1011600003172F433A43114FB8420ED0104FB842E5
:101170000BD0B0F1804F08D00E4FB84205D00E4FC3
:10118000B84202D00D4FB84206D14FF6FF57394052
:1011900046F48077394305E04FF2FF57394044F475
:1011A0008077394382830184F0BD0000002C014028
:1011B000003401400004004000080040000C0040E2
:1011C000F0B50C461546002200210026078C4EF68D
:1011D000FF7C07EA0C070784828B018C4FF6FF77B0
:1011E00007EA043640F6FF473A404FF6FF7707EA32
:1011F00005273A434FF6FF7707EA03373A43114F83
:10120000B8420ED0104FB8420BD0B0F1804F08D08A
:101210000E4FB84205D00E4FB84202D00D4FB84223
:1012200006D14DF6FF77394046F48057394305E043
:1012300047F6FF57394044F480573943828301848D
:10124000F0BD0000002C01400034014000040040CB
:1012500000080040000C004010B520215F48FFF757
:1012600044FB012802D15E49087002E000205C497D
:10127000087040215948FFF738FB012802D159492D
:10128000087002E00020574908700221564800F01B
:1012900041FB01284DD10221534800F000FA524889
:1012A00000F031FB514908605148006840F2537129
:1012B00048434E49096801EB40104E490968401AFD
:1012C0004D4908604D4800686421B0FBF1F0D2211F
:1012D000484300EB800040004949086046480068E8
:1012E00040F6271148434749086047480468444886
:1012F00000680968B0FBF1F043490860384800789D
:1013000018B908460068404208603F49086800284C
:1013100001DB014600E04142B1F57A7F01DD3A4848
:101320000460002032490860304800683149086094
:1013300052E010212C4800F0EDFA01284CD1102188
:10134000294800F0ACF9284800F0E0FA2F4908607D
:101350002F48006840F2537148432C49096801EB5B
:1013600040102C490968401A2B490860234800683E
:101370006421B0FBF1F0D221484300EB8000400033
:101380001F4908602448006840F6271148431D495A
:101390000860224804681A4800680968B0FBF1F048
:1013A0001E4908600F48007818B908460068404296
:1013B00008601A490868002801DB014600E0414244
:1013C000B1F57A7F01DD15480460104800681149C5
:1013D000086000200E49086010BD000000180140A0
:1013E0000401002005010020002C01404C000020D9
:1013F00064000020500000205C00002098000020C5
:101400006C00002070000020280000205400002004
:1014100068000020580000206000002030000020FC
:1014200000B589B00121C802FFF75EFB0121102041
:10143000FFF75AFB4FF41060ADF8040028208DF838
:10144000070003208DF8060001A93548FFF7C2F90F
:101450004FF410613248FFF751FA4EF65F20ADF8B5
:1014600010006320ADF80C000020ADF81200ADF8BC
:101470000E008DF8140003A92A4800F04FFC06A8BE
:1014800000F0B0FA0020ADF81800ADF81A00012005
:10149000ADF81C000020ADF81E00ADF8200006A934
:1014A000204800F049FA0C20ADF8180006A91D48A4
:1014B00000F042FA1B208DF8080002208DF8090088
:1014C0008DF80A0001208DF80B0002A8FFF788FABA
:1014D00019208DF8080001208DF809008DF80A0008
:1014E00002A8FFF77DFA012213210E4800F083FACB
:1014F00001210C4800F0D6F801214020FFF7F4FA52
:1015000004208DF8070003208DF806006020ADF858
:10151000040001A90448FFF75DF909B000BD00000F
:1015200000080140002C01400018014010B50121C5
:10153000174800F0EFF9012829D116480068401C2F
:101540001449086008460068022809DD0020124995
:10155000086010480068052802DD05200D49086074
:101560000E480068401C0D490860084600680228C3
:1015700009DD00200A49086008480068052802DDE6
:101580000520064908600121014800F088F810BDD7
:10159000002C01406400002028000020680000208A
:1015A0003000002010B50120034908700121800798
:1015B00000F075F810BD0000100100201FB50121DA
:1015C0000846FFF771FA4FF0804000F087F840F6C8
:1015D000B830ADF808004720ADF804000020ADF8A1
:1015E0000A00ADF8060001A94FF0804000F096FB1C
:1015F00001221146900700F0FEF900214FF08040D3
:1016000000F050F81C208DF8000002208DF8010039
:101610008DF8020001208DF803006846FFF7E0F91D
:101620000121880700F03BF81FBD0000012001499F
:1016300008707047110100200EB501211020FFF73E
:1016400033FA0E4800F04AF840F6B830ADF804001E
:101650004720ADF800000020ADF80600ADF802000C
:101660006946064800F05AFB01221146034800F083
:10167000C2F90021014800F015F80EBD001000402D
:1016800021B1028842F08002028004E002884FF615
:101690007F731A4002807047CA4302827047CA4370
:1016A0000282704721B1028842F00102028004E008
:1016B00002884FF6FE731A400280704731B1B0F8CD
:1016C000442042F40042A0F8442005E0B0F8442051
:1016D000C2F30E02A0F844207047000010B5044683
:1016E0006848844208D10121C014FFF70DFA002197
:1016F000E014FFF709FAC4E0B4F1804F08D10121EA
:101700000846FFF7E1F900210120FFF7DDF9B8E015
:101710005D48844208D101210220FFF7D5F900215C
:101720000220FFF7D1F9ACE05848844208D10121EA
:101730000420FFF7C9F900210420FFF7C5F9A0E054
:101740005348844208D101210820FFF7BDF9002148
:101750000820FFF7B9F994E04E48844208D10121EE
:101760001020FFF7B1F900211020FFF7ADF988E054
:101770004948844208D101212020FFF7A5F9002122
:101780002020FFF7A1F97CE04448844208D10121E0
:101790004014FFF7B9F900216014FFF7B5F970E0C4
:1017A0003F48844209D10121C804FFF7ADF9002167
:1017B0004FF40020FFF7A8F963E03A48844209D1CA
:1017C00001210805FFF7A0F900214FF48010FFF771
:1017D0009BF956E03448844209D101214805FFF7BE
:1017E00093F900214FF40010FFF78EF949E02F48DC
:1017F000844208D101214020FFF766F900214020F2
:10180000FFF762F93DE02A48844208D10121802097
:10181000FFF75AF900218020FFF756F931E02548FB
:10182000844208D101218015FFF74EF90021A0154F
:10183000FFF74AF925E02048844209D10121080434
:10184000FFF762F900214FF48030FFF75DF918E0EF
:101850001A48844209D101214804FFF755F90021B3
:101860004FF40030FFF750F90BE01548844208D1DF
:1018700001218804FFF748F900214FF48020FFF789
:1018800043F910BD002C0140000400400008004056
:10189000000C0040001000400014004000340140E3
:1018A000004C01400050014000540140001800402D
:1018B000001C004000200040004001400044014066
:1018C00000480140F0B50C4615461E460021002296
:1018D00000230189028B038C4FF6F87739402143AE
:1018E0004FF6FC473A4040F201173A434FF6DD7796
:1018F0003B404FF6FF7707EA06172F433B43018132
:1019000002830384F0BD0146888E70470146B1F81A
:101910004000704730B50246002000230024158A9D
:1019200005EA0103958905EA010413B10CB1012010
:1019300000E0002030BD000070B505460C4624488C
:1019400085420ED0234885420BD0B5F1804F08D098
:101950002148854205D02148854202D02048854251
:1019600000D100E000BF208850B92389A288618897
:101970002846FFF751FBE188284600F0A2F925E050
:10198000208804280AD12389A28861882846FFF785
:1019900083FBE188284600F09DF917E0208808289D
:1019A0000AD12389A28861882846FFF7C1FBE18814
:1019B000284600F09CF909E02389A288618828461E
:1019C000FFF7FEFBE188284600F09AF970BD0000A1
:1019D000002C014000340140000400400008004099
:1019E000000C004000210180418001218180002104
:1019F000C180018170471AB183890B43838102E062
:101A000083898B438381704770B5002400220023B3
:101A1000058C4FF6FE7635400584028C8388048B56
:101A20004FF68F752C40B51E2C400D882C43751E2B
:101A30002A400D892A434D882A43144DA8420BD0D1
:101A4000134DA84208D0134DA84205D0124DA8420C
:101A500002D0124DA84213D14FF6F7752A404D8996
:101A60002A434FF6FB752A408D882A434FF6FF65BF
:101A70002B404FF6FF552B408D892B43CD892B43AF
:101A800083800483CD888586028470BD002C01404C
:101A90000034014000400140004401400048014042
:101AA0000A460021018B4FF6F77319401143018359
:101AB0007047000070B5002400220023058C4FF60B
:101AC000EF7635400584028C8388048B48F6FF75D9
:101AD0002C404FF6FF452C400D884FF6FF7606EA66
:101AE00005252C434FF6DF752A400D8906EA0515BA
:101AF0002A434D8806EA05152A43154DA84202D00F
:101B0000144DA8421DD14FF67F752A404D894FF6DE
:101B1000FF7606EA05152A434FF6BF752A408D88E1
:101B200006EA05152A434FF6FF352B404FF2FF75A5
:101B30002B408D8906EA85052B43CD8906EA85056C
:101B40002B4383800483CD880587028470BD000009
:101B5000002C0140003401400A460021018B4FF265
:101B6000FF7319404FF6FF7303EA02231943018301
:101B70007047000070B5002400220023058C4FF64A
:101B8000FF6635400584028C8388848B4FF68F7501
:101B90002C404FF6FC752C400D882C434FF6FF551A
:101BA0002A400D894FF6FF7606EA05252A434D881F
:101BB00006EA05252A43154DA84202D0144DA84235
:101BC0001DD14FF2FF752A404D894FF6FF7606EA88
:101BD00005252A434FF6FF352A408D8806EA05255C
:101BE0002A434EF6FF752B404DF6FF752B408D892D
:101BF00006EA05152B43CD8906EA05152B4383809C
:101C00008483CD888587028470BD0000002C01404C
:101C1000003401400A460021818B4FF6F7731940CA
:101C2000114381837047000070B500220023002417
:101C3000058C4EF6FF7635400584038C8488828BB4
:101C400048F6FF752A404FF6FF452A400D884FF6AB
:101C5000FF7606EA05252A434DF6FF752B400D89D0
:101C600006EA05352B434D8806EA05352B430B4D17
:101C7000A84202D00A4DA84208D14BF6FF752C406D
:101C80008D894FF6FF7606EA85152C438480828382
:101C9000CD88A0F84050038470BD0000002C0140A6
:101CA000003401400A460021818B4FF2FF73194036
:101CB0004FF6FF7303EA022319438183704781843F
:101CC0007047028B4FF6F3731A400283028B0A436C
:101CD00002837047028B4FF2FF331A400283028B5C
:101CE0004FF6FF7303EA01231A4302837047828B86
:101CF0004FF6F3731A408283828B0A4382837047C4
:101D0000828B4FF2FF331A408283828B4FF6FF7330
:101D100003EA01231A4382837047000000220288ED
:101D20001D4B98420ED01D4B98420BD0B0F1804F06
:101D300008D01B4B984205D01A4B984202D01A4B40
:101D4000984204D14FF68F731A404B881A43174BB1
:101D5000984207D0164B984204D04FF6FF431A40E2
:101D6000CB881A4302808B8883850B8803850A4BB6
:101D700098420BD0094B984208D00E4B984205D0A0
:101D80000D4B984202D00D4B984201D10B7A03863D
:101D90000123838270470000002C01400034014081
:101DA0000004004000080040000C0040001000400B
:101DB0000014004000400140004401400048014040
:101DC00038B505460C4601210420FEF78DFE18208B
:101DD0008DF8030003208DF802000F20ADF80000FD
:101DE00069462C48FEF7F6FC01210820FEF75CFE50
:101DF0002948058029480088274988800020488094
:101E00002748FFF78BFF60202649088000200881C3
:101E10000846C480012048802148FFF7F5FD21498C
:101E20001F48FFF747FE1F491D48FFF7A3FE1D4946
:101E30001B48FFF7F9FE08211948FFF731FE08217A
:101E40001748FFF789FE08211548FFF7E3FE082130
:101E50001348FFF727FF01211148FFF711FC01216B
:101E60000F48FFF71FFC01210D48FFF727FC012158
:101E70002020FEF739FE10208DF8030003208DF896
:101E80000200FF20ADF8000069460748FEF7A2FCFB
:101E900038BD0000000801405C0100200E00002059
:101EA000000C004066010020001401401FB5012114
:101EB0004120FEF719FE10208DF8030003208DF855
:101EC00002000520ADF8000069462248FEF782FCBA
:101ED00028208DF803000A20ADF8000069461D484F
:101EE000FEF778FC002201211A48FEF70BFD0022C4
:101EF00004211848FEF706FD0A20FEF755FB0121D4
:101F00000420FEF747FC03210420FEF743FC0A20CF
:101F1000019000208DF8080010208DF809000120A4
:101F20008DF80A0001A8FEF759FB07208DF80C0078
:101F300003208DF80D008DF80E0001208DF80F00A4
:101F400003A8FEF74DFD09208DF80C0003A8FEF74D
:101F500047FD1FBD0018014010B51048007810B9AA
:101F600000200F49087000200C490870012211461A
:101F70000C48FEF7C7FC012204210A48FEF7C2FC08
:101F80000F2000F03DF9002201210648FEF7BAFCBF
:101F9000002204210348FEF7B5FC10BD1401002007
:101FA000740000200018014000BFFEE700200D492A
:101FB000087011E00C480B490978405C0B49094A4C
:101FC0001278895C08440849064A12788854054802
:101FD0000078401C03490870024800788028E9DB3B
:101FE000704700001C0100207801002078280008BC
:101FF0000FB4054B10B503A9044A029800F018F875
:1020000010BC5DF814FB000071220008AC00002039
:1020100002E008C8121F08C1002AFAD170477047B1
:10202000002001E001C1121F002AFBD1704700000F
:102030002DE9FF4F89B09B460446002506E0252880
:102040000BD05A460B999047641C6D1C20780028D1
:10205000F5D10DB02846BDE8F08F0027B846012223
:10206000474900E0074314F8013F203B02FA03F020
:102070000842F7D120782E2819D114F8010F47F023
:1020800004072A280ED06FF02F022078A0F130012B
:1020900009290CD808EB880102EB410100EB01088B
:1020A000641CF2E70A98641C50F8048B0A902078AC
:1020B0000028CED0642808D0692806D075281ED004
:1020C0005A460B9990476D1C58E00A994FF00A093F
:1020D00001C90A91002802DA40422D2102E03905A7
:1020E00004D52B218DF82010012103E0F90704D03D
:1020F0002021F7E78A4608AE0DE00021FAE70A99A9
:102100004FF00A0901C90A91F7E74946FEF72CF892
:10211000303106F8011D0028F7D1ADEB060000F1C3
:102120002009780701D44FF00108C84502DDA8EB6B
:10213000090000E000208046002706E008A85A4673
:10214000C05D0B9990476D1C7F1C5745F6DB04E082
:1021500030205A460B9990476D1CB8F10001A8F148
:102160000108F5DC05E016F8010B5A460B9990477B
:102170006D1CB9F10001A9F10109F4DC641C65E7EB
:102180000928010000B5FFF711FFFEF7F1FBFEF78C
:10219000E3FDFEF711FD14490968A1F13F00C117E5
:1021A00000EB5161C9114FF4167251430F4A11608F
:1021B0000F490968A1F13F00C11700EB5161C91136
:1021C0004FF4167251430B4A11600B490968A1F193
:1021D0003F00C11700EB5161C9114FF41672514312
:1021E000064A116000BD0000280100200400002004
:1021F0002001002000000020300100200800002005
:10220000002107E0002201E0531C9AB2092AFBDBFF
:102210004B1C99B28142F5DB7047000010B500F00D
:1022200039F802460F4CD22102FB01F04FF47A71CB
:10223000484300EB8000430093FBF4F00A49086038
:1022400000F058F8024600BFD22102FB01F04FF423
:102250007A71484300EB8000430093FBF4F003499C
:10226000086010BDA4B80600240000202C00002047
:10227000074A126802F0807242B100BF4FF060421C
:102280001268002AFAD04FF06043187070470000BF
:10229000FCED00E013480088134908600846006818
:1022A00012490968401A124908600846006810F58A
:1022B0007A6F05DA0846006800F5FA5008600AE00F
:1022C0000B480068B0F57A6F05DD09480068A0F595
:1022D000FA50074908600348008804490860044828
:1022E00000687047243401403C0000203400002086
:1022F0003800002013480088134908600846006829
:1023000012490968401A124908600846006810F529
:102310007A6F05DA0846006800F5FA5008600AE0AE
:102320000B480068B0F57A6F05DD09480068A0F534
:10233000FA500749086003480088044908600448C7
:10234000006870472408004048000020400000203A
:10235000440000204FF4A060FEF77AFB1348018888
:1023600013480088FFF72CFDFEF782F900F060FAB1
:10237000FFF756F8FFF722F9FFF75EF9FFF796FD32
:10238000FEF73AF800F04AFA0FE00A48006820B178
:10239000002008490860FEF7C7FB0748006820B125
:1023A000002005490860FFF7D7FDEEE71000002088
:1023B0000C000020900000209400002070B504461E
:1023C0000D461646E3480068E3490968401AE349A8
:1023D000086008460068E2490968401A6043DF491E
:1023E000096805FB0100DD490968DD4A126802231E
:1023F00003FB1211DB4A1268114406FB0100DA49A3
:102400000860D7480068D7490860D4480068D449B4
:102410000860D6480068D44909680844D349086070
:1024200008460068002819DA0121D148FEF768FA49
:102430000221CF48FEF762FACC480068CD490988EE
:102440004942884204DACB4800884042C7490860C4
:10245000C64800884042C849C88015E00221C448E7
:10246000FEF74EFA0121C248FEF748FABF4800685D
:10247000C0490988884203DDBE480088BB4908601E
:10248000BA480088BC49C880BB49BC48FFF7BCFAC1
:102490000821BA48FFF704FBB9480068B949096840
:1024A000401AB949086008460068B8490968401AE6
:1024B0006043B549096805FB0100B3490968B34A9F
:1024C0001268022303FB1211B14A1268114406FB81
:1024D0000100B0490860AD480068AD490860AA48ED
:1024E0000068AA490860AC480068AA49096808441D
:1024F000A949086008460068002819DA04219C48A8
:10250000FEF7FEF908219A48FEF7F8F9A24800689C
:10251000984909884942884204DA9648008840422E
:102520009D4908609C48008840429349C88015E056
:1025300008218F48FEF7E4F904218D48FEF7DEF903
:10254000954800688B490988884203DD89480088DE
:1025500091490860904800888749C8808649874823
:10256000FFF7A8FA08218548FFF7F6FA86480368BE
:10257000844802688848016888A0FFF739FD9048C0
:10258000006890490968401A8F4908600846006849
:102590008E490968401A60438B49096805FB0100B0
:1025A00089490968894A1268022303FB1211884A83
:1025B0001268114406FB01008649086083480068E0
:1025C0008349086080480068804908608248006844
:1025D0008049096808448049086008460068002866
:1025E00019DA10216248FEF78BF920216048FEF7C6
:1025F00085F9794800685F4909884942884204DAC8
:102600005C48008840427449086073480088404232
:102610005949C88015E020215548FEF771F910216D
:102620005348FEF76BF96C480068524909888842A4
:1026300003DD5048008868490860674800884E49B3
:10264000C8804D494D48FFF795FA08214B48FFF7E0
:10265000E1FA6248006862490968401A6149086005
:102660000846006860490968401A60435D49096886
:1026700005FB01005B4909685B4A1268022303FB02
:1026800012115A4A1268114406FB010058490860A9
:10269000554800685549086052480068524908602A
:1026A000544800685249096808445249086008467D
:1026B0000068002819DA40212D48FEF721F9802111
:1026C0002B48FEF71BF94B4800682A490988494204
:1026D000884204DA27480088404246490860454855
:1026E000008840422449C88015E080212048FEF738
:1026F00007F940211E48FEF701F93E4800681D49D0
:102700000988884203DD1B4800883A490860394837
:1027100000881949C88018491848FFF785FA082128
:102720001648FFF7BFFA2F4803682D480268314862
:10273000016831A0FFF75CFC01211048FEF7A0FF03
:1027400001210E48FEF7AEFF01210C48FEF7B6FF4F
:1027500070BD00001400002024000020B400002000
:10276000B8000020BC000020C0000020C4000020F1
:10277000001401400E00002066010020000C004003
:102780001800002028000020C8000020CC000020F5
:10279000D0000020D4000020D800002070756C7399
:1027A00065203D20256420766C32203D2025642064
:1027B000206572725F6C32203D202564200A000083
:1027C0001C0000202C000020DC000020E000002085
:1027D000E4000020E8000020EC00002020000020A1
:1027E00030000020F0000020F4000020F80000205D
:1027F000FC0000200001002070756C7365203D20F6
:10280000256420767232203D202564202065727276
:102810005F7232203D202564200A00000120034918
:10282000086048601E20886070470000400100205A
:1028300010B5104800684FF47A71B0FBF1F4B4F1B0
:10284000807F00D311E024F07F40401E4FF0E02154
:1028500048610F214FF0FF30FEF704F900204FF0E0
:10286000E02188610720086100BF0021481EFEF7B3
:10287000F9F810BD980000200000000000000000E2
:102880000000000000000000000000000000000048
:102890000000000000000000000000000000000038
:1028A0000000000000000000000000000000000028
:1028B0000000000000000000000000000000000018
:1028C0000000000000000000000000000000000008
:1028D00000000000000000000000000000000000F8
:1028E00000000000000000000000000000000000E8
:1028F000000000000000000018290008000000206F
:1029000040010000B80100084829000840010020EB
:102910003807000020200008C112470340E7031ACF
:10292000FF01A90801180B1C30F8201184A24A04E9
:102930000009580102030406070809031A0101727D
:08294000287258F2400000006B
:0400000508000145A9
:00000001FF
