:020000040800F2
:10000000A808002045010008110C0008510B000849
:100010000D0C0008E505000835260008000000006A
:10002000000000000000000000000000BD0E0008FD
:10003000E905000800000000C10C000809120008D2
:100040005F0100085F0100085F0100085F01000810
:100050005F0100085F0100085F010008ED0500086E
:100060005F010008710600085F0100085F010008D9
:100070005F0100085F0100085F0100085F010008E0
:100080005F0100085F0100085F0100085F010008D0
:100090005F0100085F0100085F0100085F010008C0
:1000A0005F010008A91900085F010008D5160008C3
:1000B000211A00085F0100085F0100085F010008C5
:1000C0005F0100085F0100085F0100085F01000890
:1000D0005F0100085F0100085F0100085D23000860
:1000E0005F0100085F0100085F0100085F01000870
:1000F0005F0100085F0100085F0100085F01000860
:100100005F0100085F0100085F0100085F0100084F
:100110005F0100085F010008A91A00085F010008DC
:100120005F0100085F0100085F0100085F0100082F
:10013000DFF80CD000F018F800480047412900080B
:10014000A80800200648804706480047FEE7FEE76B
:10015000FEE7FEE7FEE7FEE7FEE7FEE7FEE7FEE777
:100160003514000831010008064C074D06E0E06830
:1001700040F0010394E8070098471034AC42F6D3EE
:10018000FFF7DAFF1C2E00083C2E000870B58C1813
:1001900010F8015B15F0070301D110F8013B2A119B
:1001A00006D110F8012B03E010F8016B01F8016B88
:1001B0005B1EF9D12B0705D40023521E0DD401F884
:1001C000013BFAE710F8013BCB1A921C03E013F84D
:1001D000015B01F8015B521EF9D5A142D8D3002082
:1001E00070BD21B1826842F00102826003E0826842
:1001F00022F001028260704710B504461248844222
:1002000008D10121401500F099FD0021601500F092
:1002100095FD17E00D48844208D10121001500F03A
:100220008DFD0021201500F089FD0BE00848844277
:1002300008D10121C80300F081FD00214FF40040E6
:1002400000F07CFD10BD00000024014000280140AA
:10025000003C0140014600208A6802F004020AB115
:10026000012000E0002070470146C86C80B2704752
:100270000246002013680B400BB1012000E0002073
:100280007047014600208A6802F008020AB1012086
:1002900000E000207047000030B502460020002337
:1002A00050680F4C20400D790C6844EA0524204327
:1002B000506090680B4C2040D1E902542C434D799A
:1002C00044EA450420439060D06A20F470000C7C1E
:1002D000641EE4B2234340EA0350D06230BD000004
:1002E000FFFEF0FFFDF7F1FFF0B504460D460020DC
:1002F0000021092D11DDE068A5F10A0606EB46078D
:10030000072606FA07F18843A5F10A0606EB46061A
:1003100003FA06F10843E0600CE0206905EB4507AD
:10032000072606FA07F1884305EB450603FA06F1AE
:1003300008432061072A0FDA606B561E06EB86071A
:100340001F2606FA07F18843561E06EB860605FAB5
:1003500006F10843606322E00D2A0FDA206BD61FF6
:1003600006EB86071F2606FA07F18843D61F06EB21
:10037000860605FA06F10843206310E0E06AA2F160
:100380000D0606EB86071F2606FA07F18843A2F141
:100390000D0606EB860605FA06F10843E062F0BD9D
:1003A000816841F008018160704721B1826842F4A0
:1003B000A002826003E0826822F4A002826070479B
:1003C000816841F0040181607047000000B587B08A
:1003D00001214FF4017000F0A1FC4FF4004000F047
:1003E00071FC2020ADF8040000208DF8070001A961
:1003F000214800F099FA4020ADF8040010208DF853
:10040000070003208DF8060001A91B4800F08CFAB4
:100410008020ADF8040001A9174800F085FA1748BC
:10042000FFF7EAFE002002908DF80C008DF80D0019
:100430004FF4602004900020059001208DF81800F2
:1004400002A90E48FFF728FF01210C48FFF7C9FE5B
:100450000A48FFF7A5FF00BF0848FFF712FF002872
:10046000FAD10648FFF7ACFF00BF0448FFF7F2FEE1
:100470000028FAD107B000BD000801400024014067
:100480002648007818BB264800784D2802D1012064
:1004900022490870224800784C2802D102201F49C6
:1004A00008701F480078522802D103201B490870A9
:1004B0001B480078462802D10420184908701848C3
:1004C0000078422829D105201449087025E01348F6
:1004D000007810B3124800784D2802D100200F494F
:1004E00008700F4800784C2802D100200B49087092
:1004F0000B480078522802D10020084908700848AB
:100500000078462802D10020044908700448007889
:10051000422802D10020014908707047590100208B
:100520005801002010B586B004460121282000F0B3
:10053000F5FB0121084600F0F1FB0121880400F0E1
:10054000CDFB0121244800F07BFA4FF48070ADF818
:10055000140003208DF8160018208DF8170005A947
:100560001E4800F0E1F94FF40070ADF814000320CC
:100570008DF8160004208DF8170005A9174800F023
:10058000D3F927208DF8000003208DF801008DF8A5
:10059000020001208DF80300684600F03BFB019447
:1005A0000020ADF80800ADF80A00ADF80C00ADF879
:1005B00010000C20ADF80E0001A9094801F03EFF23
:1005C000012240F22551064801F012FF01210448A2
:1005D00001F0D8FE06B010BD300014000014014038
:1005E0000048004000BFFEE77047000010B5022041
:1005F00000F08AF870B3022000F080F81648007806
:1006000000B110BD0221154800F062FA01280ED198
:100610000021800701F0ABFD002011490870012185
:10062000880701F097FA01200E49087012E00021B6
:100630004FF0804001F08EFA0A48007850B1084827
:10064000007820B901200849087008490870002086
:100650000449087000BFD4E77C0000200018014066
:100660000C0100200E010020740000201001002069
:1006700010B5082000F048F878B3082000F03EF8E4
:1006800017480078012800D010BD0821154800F057
:100690001FFA01280ED10021134801F068FD002047
:1006A000124908700121104801F054FA0120104944
:1006B000087012E000210C4801F04CFA0C48007858
:1006C00058B10A48007828B901200A490870022068
:1006D0000949087000200649087000BFD4E70000EF
:1006E0007C00002000180140001000400D01002097
:1006F0000F01002010010020740000200149086053
:100700007047000014040140014600200022074BFE
:100710001B6803EA0102054B14331B680B4013B13D
:100720000AB1012000E000207047000000040140F1
:10073000002123498279002A3AD00A4612680368C8
:100740009A430B461A600A1D126803689A430B1DF0
:100750001A60027911440A6803681A430A60184A49
:100760000832126803689A43154B08331A601A1D41
:10077000126803689A43124B0C331A604279102AAC
:100780000ED11A1F126803681A430D4B08331A6002
:100790001A1D126803681A43094B0C331A600DE0E6
:1007A0000749427911440A6803681A430A6005E060
:1007B000027911440A6803689A430A60704700008E
:1007C0000004014000B58DB00121042000F086FA3C
:1007D0000121082000F0A2FAC020ADF8300004206A
:1007E0008DF8330003208DF832000CA93A4800F050
:1007F0009BF80020ADF82400ADF8260041F63F70CC
:10080000ADF828000020ADF82A008DF82C0009A9C9
:10081000324801F0DBFC0A231A4603212F4801F07D
:10082000A9FA06A801F036FB0620ADF8200006A9BB
:100830002A4801F0D9FA0121284801F085F9002160
:10084000264801F094FC0121244801F083F901219C
:10085000480300F063FA0121102000F05FFAC02085
:10086000ADF8300004208DF8330003208DF83200FD
:100870000CA91B4800F058F80020ADF80C00ADF8AA
:100880000E0041F63F70ADF810000020ADF81200E8
:100890008DF8140003A9134801F098FC0A231A46A6
:1008A0000321104801F066FA684601F0F3FA0620C9
:1008B000ADF8080069460B4801F096FA0121094895
:1008C00001F042F90021074801F051FC01210548DF
:1008D00001F040F90DB000BD000C014000080040DF
:1008E000001001400034014030B500228B071C0F7E
:1008F0000F2303FA04F20B4B8C1053F8243093436C
:10090000084C8D1044F8253023468C1053F82430C1
:100910008C07240F00FA04F42343024C8D1044F892
:10092000253030BD080001402DE9F0410246002588
:100930000026002000230024002791F803C00CF0BB
:100940000F0591F803C00CF0100CBCF1000F03D0A0
:1009500091F802C04CEA050591F800C0BCF1000F07
:1009600031D0146800202BE04FF0010C0CFA00F39A
:10097000B1F800C00CEA03069E4220D183004FF07C
:100980000F0C0CFA03F7BC4305FA03FC4CEA040411
:1009900091F803C0BCF1280F06D14FF0010C0CFAFE
:1009A00000FCC2F814C00AE091F803C0BCF1480F83
:1009B00005D14FF0010C0CFA00FCC2F810C0401C2D
:1009C0000828D1D31460B1F800C0BCF1FF0F34DDAA
:1009D000546800202EE000F1080C4FF0010808FADE
:1009E0000CF3B1F800C00CEA03069E4221D183004B
:1009F0004FF00F0C0CFA03F7BC4305FA03FC4CEA6A
:100A0000040491F803C0BCF1280F05D100F1080CD3
:100A100008FA0CF8C2F8148091F803C0BCF1480F32
:100A200007D100F1080C4FF0010808FA0CF8C2F8E1
:100A30001080401C0828CED35460BDE8F08100002F
:100A4000F0B50A46002300240021002500F00046EE
:100A5000B6F1004F02D11D4EF16901E01B4E7168E5
:100A6000C0F3034583B200F44016B6F5401F08D129
:100A700021F07061154E766826F07066134F7E6027
:100A800012E000F48016B6F5801F06D1032606FAA0
:100A900005F4A14341F0706106E0460D360103FA0A
:100AA00006F6B14341F0706122B1460D360103FAFA
:100AB00006F6314300F00046B6F1004F02D1034E76
:100AC000F16101E0014E7160F0BD000000000140E5
:100AD0000246002093680B400BB1012000E000208B
:100AE000704741617047016170470AB1016100E0E0
:100AF0004161704710B5034600248B4202DD0C466D
:100B000019462346914202DD14460A4621468B428D
:100B100002DD0C4619462346084610BD10B50446B2
:100B20000723012221460948FFF7DEFB0121074880
:100B3000FFF73BFC00BF02210448FFF799FB0028A8
:100B4000F9D00248FFF790FB10BD000000240140DF
:100B500000BFFEE708B50121082000F0DFF84FF4E0
:100B60000050ADF8000010208DF8030003208DF830
:100B7000020069460A48FFF7D7FE4FF400510848C3
:100B8000FFF7B1FF4FF48040ADF80000694604481C
:100B9000FFF7CAFE4FF480410148FFF7A4FF08BDEC
:100BA000000C014010B51648007816490870012065
:100BB0001549087018E0124C134B1B785B1CE25C63
:100BC0002346114C2478195D0F4B1B785B1E0C4C8F
:100BD000E05CFFF78FFF0B490B4A127888540A48F4
:100BE0000078401C08490870074800787F28E2DB3D
:100BF000034890F87F00034981F87F0010BD000092
:100C0000A8010020280200203401002000BFFEE7D8
:100C10007047000070B5002100230F22C47804B390
:100C2000154C246804F4E064C4F5E064210AC1F1C1
:100C30000403CA40447804FA03F184781440214341
:100C400009010E4C0678A155047804F01F05012413
:100C5000AC4005786D11AD0005F1E025C5F8004107
:100C600009E0047804F01F050124AC40044D067827
:100C7000761145F8264070BD0CED00E000E400E080
:100C800080E100E002490143024A11607047000020
:100C90000000FA050CED00E010B5002807DA0A079D
:100CA000140E054A00F00F031B1FD45403E00A077B
:100CB000130E024A135410BD18ED00E000E400E0EA
:100CC0007047000001460020034A506820F440406D
:100CD00008435060704700000010024029B1064AE6
:100CE000D2690243044BDA6104E0034AD2698243C9
:100CF000014BDA61704700000010024029B1064A3A
:100D000012690243044B1A6104E0034A12698243E8
:100D1000014B1A61704700000010024029B1064AD9
:100D200092690243044B9A6104E0034A9269824348
:100D3000014B9A61704700000010024029B1064A39
:100D4000D2680243044BDA6004E0034AD26882436B
:100D5000014BDA60704700000010024030B50021FE
:100D60000022002400232D4D6D6805F00C0121B1F7
:100D7000042905D0082923D105E0294D056022E08A
:100D8000274D05601FE0254D6D6805F47012234D59
:100D90006D6805F48034022505EB92421CB9214DA3
:100DA000554305600BE01D4D6D6805F400351DB120
:100DB0001C4D5543056002E0194D5543056002E0A6
:100DC000174D056000BF00BF144D6D6805F0F001C0
:100DD0000909154D6B5C0568DD4045600F4D6D6878
:100DE00005F4E061090A104D6B5C4568DD408560E3
:100DF0000A4D6D6805F46051C90A0B4D6B5C45687E
:100E0000DD40C560054D6D6805F44041890B074D17
:100E10006B5CC568B5FBF3F5056130BD00100240A1
:100E200000127A0000093D005A0100206A010020EA
:100E300070B50024002580211E48FFF752FE0120D6
:100E400001F0E6FC80211B48FFF74DFE012001F078
:100E5000DFFC40211748FFF744FE012001F0D8FCD9
:100E600040211448FFF73FFE80211248FFF739FE6A
:100E7000012001F0CDFC00BF18E040210D48FFF734
:100E800030FE012001F0C4FC0520FFF747FEC0F34F
:100E9000071009494855681CC5B240210548FFF7AD
:100EA00022FE012001F0B4FC601CC4B2802CE4DB03
:100EB00070BD000000080140A8010020704700003C
:100EC000F0B500205E4D2D686C425E4D2D68082DFA
:100ED00003DA08255B4E356006E05A4D2D68782D03
:100EE00002DD7825574E3560564D2D78564E3570BB
:100EF00020E048B9554D544E367855F82650A54255
:100F000002DA514D2A78012001280ED14F4D4E4E64
:100F1000367855F826504A4E3668B54205DD4A4DBA
:100F2000297802208D1AEBB208E0474D2D786D1C10
:100F3000454E3570444D2D787F2DDADB00BF0228F9
:100F40000ED1012B0CDD0A2B0ADA8D1805EBD576B4
:100F500076103F4F3E6001253E4E3570002003E085
:100F600000253C4E35700020364D2D78364E3570BC
:100F700020E058B9354D344E367855F82650304E6D
:100F80003668B54202DD304D2978012001280CD1A8
:100F90002E4D2D4E367855F82650A54205DA2A4DAD
:100FA0002A7802208D1AEBB208E0274D2D786D1EAD
:100FB000254E3570244D2D78002DDADC00BF022837
:100FC0000ED1012B0CDD0A2B0ADA8D1805EBD57634
:100FD0007610214F3E600125204E3570002003E041
:100FE00000251E4E357000201C4D2D78012D0DD191
:100FF000184D2D78012D09D1174E3668144F3F68D2
:10100000F51905EBD57676100E4F3E60134D2D7811
:10101000012D08D10F4D2D782DB90F4D2D680C35B0
:10102000084E35600BE00D4D2D7845B9094D2D78F2
:10103000012D04D1064D2D680C3D024E3560F0BDEA
:10104000540100204801002034010020A8020020A3
:101050004001002044010020380100203C01002014
:101060002948407828490978401A284908600846E4
:101070000068274908602548006826490860012063
:101080002549087033E0204923480078401C095C5A
:101090001D48214A1278805C081A1C491E4A1278A1
:1010A00041F8220008461C49097850F821001849E7
:1010B0000968884206DD15481749097850F821006B
:1010C0001349086011481449097850F82100114962
:1010D0000968884206DA0D480F49097850F821005E
:1010E0000C4908600C480078401C0B4908700A48FD
:1010F00000787F28C7DB0649086800EBD0714910EB
:10110000491F064A1160704728020020A8020020EB
:101110004C01002050010020340100205401002027
:1011200010B500F001F810BD0CB500200190009042
:101130003348006840F480303149086000BF3048CF
:10114000006800F4003000900198401C0190009865
:1011500018B90198B0F5A06FF1D12948006800F4E2
:10116000003010B10120009001E0002000900098B4
:10117000012843D12348006840F01000214908604D
:101180000846006820F0030008600846006840F048
:10119000020008601A4840681949486008464068DB
:1011A00048600846406840F48060486008464068EF
:1011B00020F47C1048600846406840F4E81048601D
:1011C0000846006840F08070086000BF0C48006866
:1011D00000F000700028F9D00948406820F00300B2
:1011E000074948600846406840F00200486000BF78
:1011F0000348406800F00C000828F9D10CBD00003D
:10120000001002400020024010B577480068401CE2
:101210007549086008460068744990FBF1F201FBCB
:101220001200714908600868C11700EB5171C910BC
:10123000A0EBC10119B901206D49086002E000204E
:101240006B490860684800681B2190FBF1F201FBC4
:10125000120030B901F0EAFA01221146104601F0FD
:10126000B3FB61480068432190FBF1F201FB1200DF
:1012700018B901205F49086002E000205D4908605C
:101280005D48007806283DD2DFE800F0033C101CE2
:1012900027320020594908605949086059490860B7
:1012A000594908604020594908602CE06FF09500CA
:1012B00052490860524908609620524908605249D4
:1012C000086020E096204D4908604D490860404282
:1012D0004C4908604C49086015E04FF44870474994
:1012E00008604749086047490860474908600AE0C4
:1012F00047484249086042490860424908604249FB
:10130000086000E000BF00BF3B48007801285CD1C6
:1013100035480068452190FBF1F201FB12000028DE
:1013200053D101F099F93B480078B0B92E480068D4
:1013300039490968401AB0F57A7F0EDD4FF48041D3
:101340003648FFF7D0FB4FF400513448FFF7CBFB92
:10135000334800683349086032E02E48007802289C
:1013600006D02C480078C0B92F480078022814D144
:101370004FF480412948FFF7B4FB2C4800680A303D
:101380002849086023480078022819D126490870A6
:10139000154800682049086012E04FF400511F48CA
:1013A000FFF79FFB224800681E4908601948007833
:1013B000012805D11C4908700B48006816490860CF
:1013C0001E220021142001F085F9074800681B2126
:1013D00090FBF1F201FB120020B9012211461046E8
:1013E00001F0F2FA10BD00009000002080EE3600FF
:1013F00094000020980000205901002014000020D3
:10140000180000201C0000202000002048010020BF
:10141000E0FCFFFF7400002078000020000C014079
:10142000080000208400002075000020000000203B
:101430000400002010B51348006840F00100114975
:10144000086008464068104908400E494860084650
:1014500000680E4908400B4908600846006820F4FF
:10146000802008600846406820F4FE0048604FF481
:101470001F008860FFF754FE4FF0006004490860C9
:1014800010BD0000001002400000FFF8FFFFF6FE54
:1014900008ED00E0F0B50C46154600220021068C50
:1014A0004FF6FE773E400684028B018C4FF60C7699
:1014B00032407E1C06EA03162E433243104EB042E1
:1014C0000ED0104EB0420BD0B0F1804F08D00E4E6F
:1014D000B04205D00D4EB04202D00D4EB04206D102
:1014E0004FF6FD76314044F00106314305E04FF6FA
:1014F000F576314044F00106314302830184F0BDAA
:10150000002C01400034014000040040000800406D
:10151000000C0040F0B50C461546002200210026C4
:10152000078C4FF6EF7C07EA0C070784028B018CCF
:101530004FF6FF7707EA041640F6FF473A404FF6AA
:10154000FF7707EA03373A434FF6FF7707EA0527A5
:101550003A43114FB8420ED0104FB8420BD0B0F101
:10156000804F08D00E4FB84205D00E4FB84202D07F
:101570000D4FB84206D14FF6DF77394046F01007DD
:10158000394305E04FF65F77394044F0100739439F
:1015900002830184F0BD0000002C014000340140B2
:1015A0000004004000080040000C0040F0B50C466C
:1015B0001546002200210026078C4FF6FF6C07EA33
:1015C0000C070784828B018C4FF6FF7707EA04260D
:1015D0004FF60C773A404FF6FF7707EA03172F4391
:1015E0003A43114FB8420ED0104FB8420BD0B0F171
:1015F000804F08D00E4FB84205D00E4FB84202D0EF
:101600000D4FB84206D14FF6FF57394046F4807768
:10161000394305E04FF2FF57394044F480773943AE
:1016200082830184F0BD0000002C014000340140A1
:101630000004004000080040000C0040F0B50C46DB
:101640001546002200210026078C4EF6FF7C07EA93
:101650000C070784828B018C4FF6FF7707EA04366C
:1016600040F6FF473A404FF6FF7707EA05273A432F
:101670004FF6FF7707EA03373A43114FB8420ED0CF
:10168000104FB8420BD0B0F1804F08D00E4FB84287
:1016900005D00E4FB84202D00D4FB84206D14DF6DC
:1016A000FF77394046F48057394305E047F6FF5746
:1016B000394044F48057394382830184F0BD0000EF
:1016C000002C0140003401400004004000080040AC
:1016D000000C004010B520215F48FFF7F9F9012800
:1016E00002D15E49087002E000205C490870402188
:1016F0005948FFF7EDF9012802D15949087002E075
:101700000020574908700221564800F05BFB012871
:101710004DD10221534800F01AFA524800F04BFB19
:10172000514908605148006840F2537148434E499E
:10173000096801EB40104E490968401A4D4908609C
:101740004D4800686421B0FBF1F0D221484300EB22
:1017500080004000494908604648006840F627116B
:101760004843474908604748046844480068096896
:10177000B0FBF1F0434908603848007818B90846D2
:101780000068404208603F490868002801DB0146C4
:1017900000E04142B1F57A7F01DD3A480460002063
:1017A00032490860304800683149086052E0102131
:1017B0002C4800F007FB01284CD11021294800F0EB
:1017C000C6F9284800F0FAFA2F4908602F48006847
:1017D00040F2537148432C49096801EB40102C49F1
:1017E0000968401A2B490860234800686421B0FB4F
:1017F000F1F0D221484300EB800040001F4908600F
:101800002448006840F6271148431D4908602248D3
:1018100004681A4800680968B0FBF1F01E490860C6
:101820000F48007818B908460068404208601A4915
:101830000868002801DB014600E04142B1F57A7FEB
:1018400001DD154804601048006811490860002057
:101850000E49086010BD0000001801400001002082
:1018600001010020002C01404C00002064000020F9
:10187000500000205C0000209C0000206C00002034
:101880007000002028000020540000206800002084
:1018900058000020600000203000002000B589B012
:1018A0000121C802FFF73AFA01211020FFF736FAAA
:1018B0004FF41060ADF8040028208DF807000320D5
:1018C0008DF8060001A93548FFF72EF84FF4106196
:1018D0003248FFF706F94EF65F20ADF8100063209E
:1018E000ADF80C000020ADF81200ADF80E008DF838
:1018F000140003A92A4800F069FC06A800F0CAFAFF
:101900000020ADF81800ADF81A000120ADF81C0059
:101910000020ADF81E00ADF8200006A9204800F018
:1019200063FA0C20ADF8180006A91D4800F05CFA17
:101930001B208DF8080002208DF809008DF80A00A0
:1019400001208DF80B0002A8FFF764F919208DF82B
:10195000080001208DF809008DF80A0002A8FFF7A1
:1019600059F9012213210E4800F09DFA01210C487B
:1019700000F0F0F801214020FFF7D0F904208DF8A5
:10198000070003208DF806006020ADF8040001A9CF
:101990000448FEF7C9FF09B000BD0000000801407F
:1019A000002C01400018014010B50121174800F03B
:1019B00009FA012829D116480068401C144908601A
:1019C00008460068022809DD002012490860104816
:1019D0000068052802DD05200D4908600E480068F2
:1019E000401C0D49086008460068022809DD0020F7
:1019F0000A49086008480068052802DD05200649F4
:101A000008600121014800F0A2F810BD002C01403F
:101A10006400002028000020680000203000002022
:101A200010B50120034908700121800700F08FF8EC
:101A300010BD00000C0100201FB501210846FFF772
:101A40004DF94FF0804000F0A1F84FF4C860ADF8B8
:101A500008004720ADF804000020ADF80A00ADF8FA
:101A6000060001A94FF0804000F0B0FB01221146B2
:101A7000900700F018FA00214FF0804000F06AF85B
:101A80001C208DF8000002208DF801008DF8020066
:101A900001208DF803006846FFF7BCF80121880794
:101AA00000F055F81FBD000010B501200349087073
:101AB0000121034800F04BF810BD00000D0100208B
:101AC000001000401FB501211020FFF707F917484B
:101AD00000F05CF840F6B830ADF808004720ADF8EB
:101AE00004000020ADF80A00ADF8060001A90F4877
:101AF00000F06CFB012211460C4800F0D4F90021E3
:101B00000A4800F027F836208DF8000002208DF8F2
:101B100001008DF8020001208DF803006846FFF7F0
:101B200079F80121014800F012F81FBD00100040B3
:101B300021B1028842F08002028004E002884FF660
:101B40007F731A4002807047CA4302827047CA43BB
:101B50000282704721B1028842F00102028004E053
:101B600002884FF6FE731A400280704731B1B0F818
:101B7000442042F40042A0F8442005E0B0F844209C
:101B8000C2F30E02A0F844207047000010B50446CE
:101B90006848844208D10121C014FFF7CFF8002122
:101BA000E014FFF7CBF8C4E0B4F1804F08D1012175
:101BB0000846FFF7A3F800210120FFF79FF8B8E0DF
:101BC0005D48844208D101210220FFF797F80021E7
:101BD0000220FFF793F8ACE05848844208D1012175
:101BE0000420FFF78BF800210420FFF787F8A0E01E
:101BF0005348844208D101210820FFF77FF80021D3
:101C00000820FFF77BF894E04E48844208D1012178
:101C10001020FFF773F800211020FFF76FF888E01D
:101C20004948844208D101212020FFF767F80021AC
:101C30002020FFF763F87CE04448844208D101216A
:101C40004014FFF77BF800216014FFF777F870E08D
:101C50003F48844209D10121C804FFF76FF80021F1
:101C60004FF40020FFF76AF863E03A48844209D154
:101C700001210805FFF762F800214FF48010FFF7FB
:101C80005DF856E03448844209D101214805FFF748
:101C900055F800214FF40010FFF750F849E02F48A5
:101CA000844208D101214020FFF728F8002140207C
:101CB000FFF724F83DE02A48844208D10121802022
:101CC000FFF71CF800218020FFF718F831E02548C5
:101CD000844208D101218015FFF710F80021A015DA
:101CE000FFF70CF825E02048844209D101210804BF
:101CF000FFF724F800214FF48030FFF71FF818E0B9
:101D00001A48844209D101214804FFF717F800213D
:101D10004FF40030FFF712F80BE01548844208D169
:101D200001218804FFF70AF800214FF48020FFF713
:101D300005F810BD002C01400004004000080040E0
:101D4000000C00400010004000140040003401402E
:101D5000004C014000500140005401400018004078
:101D6000001C0040002000400040014000440140B1
:101D700000480140F0B50C4615461E4600210022E1
:101D800000230189028B038C4FF6F87739402143F9
:101D90004FF6FC473A4040F201173A434FF6DD77E1
:101DA0003B404FF6FF7707EA06172F433B4301817D
:101DB00002830384F0BD0146888E70470146B1F866
:101DC0004000704730B50246002000230024158AE9
:101DD00005EA0103958905EA010413B10CB101205C
:101DE00000E0002030BD000070B505460C462448D8
:101DF00085420ED0234885420BD0B5F1804F08D0E4
:101E00002148854205D02148854202D0204885429C
:101E100000D100E000BF208850B92389A2886188E2
:101E20002846FFF737FBE188284600F0A2F925E0B5
:101E3000208804280AD12389A28861882846FFF7D0
:101E400069FBE188284600F09DF917E02088082802
:101E50000AD12389A28861882846FFF7A7FBE18879
:101E6000284600F09CF909E02389A2886188284669
:101E7000FFF7E4FBE188284600F09AF970BD000006
:101E8000002C0140003401400004004000080040E4
:101E9000000C00400021018041800121818000214F
:101EA000C180018170471AB183890B43838102E0AD
:101EB00083898B438381704770B5002400220023FF
:101EC000058C4FF6FE7635400584028C8388048BA2
:101ED0004FF68F752C40B51E2C400D882C43751E77
:101EE0002A400D892A434D882A43144DA8420BD01D
:101EF000134DA84208D0134DA84205D0124DA84258
:101F000002D0124DA84213D14FF6F7752A404D89E1
:101F10002A434FF6FB752A408D882A434FF6FF650A
:101F20002B404FF6FF552B408D892B43CD892B43FA
:101F300083800483CD888586028470BD002C014097
:101F4000003401400040014000440140004801408D
:101F50000A460021018B4FF6F773194011430183A4
:101F60007047000070B5002400220023058C4FF656
:101F7000EF7635400584028C8388048B48F6FF7524
:101F80002C404FF6FF452C400D884FF6FF7606EAB1
:101F900005252C434FF6DF752A400D8906EA051505
:101FA0002A434D8806EA05152A43154DA84202D05A
:101FB000144DA8421DD14FF67F752A404D894FF62A
:101FC000FF7606EA05152A434FF6BF752A408D882D
:101FD00006EA05152A434FF6FF352B404FF2FF75F1
:101FE0002B408D8906EA85052B43CD8906EA8505B8
:101FF0002B4383800483CD880587028470BD000055
:10200000002C0140003401400A460021018B4FF2B0
:10201000FF7319404FF6FF7303EA0223194301834C
:102020007047000070B5002400220023058C4FF695
:10203000FF6635400584028C8388848B4FF68F754C
:102040002C404FF6FC752C400D882C434FF6FF5565
:102050002A400D894FF6FF7606EA05252A434D886A
:1020600006EA05252A43154DA84202D0144DA84280
:102070001DD14FF2FF752A404D894FF6FF7606EAD3
:1020800005252A434FF6FF352A408D8806EA0525A7
:102090002A434EF6FF752B404DF6FF752B408D8978
:1020A00006EA05152B43CD8906EA05152B438380E7
:1020B0008483CD888587028470BD0000002C014098
:1020C000003401400A460021818B4FF6F773194016
:1020D000114381837047000070B500220023002463
:1020E000058C4EF6FF7635400584038C8488828B00
:1020F00048F6FF752A404FF6FF452A400D884FF6F7
:10210000FF7606EA05252A434DF6FF752B400D891B
:1021100006EA05352B434D8806EA05352B430B4D62
:10212000A84202D00A4DA84208D14BF6FF752C40B8
:102130008D894FF6FF7606EA85152C4384808283CD
:10214000CD88A0F84050038470BD0000002C0140F1
:10215000003401400A460021818B4FF2FF73194081
:102160004FF6FF7303EA022319438183704781848A
:102170007047028B4FF6F3731A400283028B0A43B7
:1021800002837047028B4FF2FF331A400283028BA7
:102190004FF6FF7303EA01231A4302837047828BD1
:1021A0004FF6F3731A408283828B0A43828370470F
:1021B000828B4FF2FF331A408283828B4FF6FF737C
:1021C00003EA01231A438283704700000022028839
:1021D0001D4B98420ED01D4B98420BD0B0F1804F52
:1021E00008D01B4B984205D01A4B984202D01A4B8C
:1021F000984204D14FF68F731A404B881A43174BFD
:10220000984207D0164B984204D04FF6FF431A402D
:10221000CB881A4302808B8883850B8803850A4B01
:1022200098420BD0094B984208D00E4B984205D0EB
:102230000D4B984202D00D4B984201D10B7A038688
:102240000123838270470000002C014000340140CC
:102250000004004000080040000C00400010004056
:10226000001400400040014000440140004801408B
:1022700038B505460C4601210420FEF74FFD182015
:102280008DF8030003208DF802000F20ADF8000048
:1022900069462C48FEF748FB01210820FEF71EFD89
:1022A00029480580294800882749888000204880DF
:1022B0002748FFF78BFF602026490880002008810F
:1022C0000846C480012048802148FFF7F5FD2149D8
:1022D0001F48FFF747FE1F491D48FFF7A3FE1D4992
:1022E0001B48FFF7F9FE08211948FFF731FE0821C6
:1022F0001748FFF789FE08211548FFF7E3FE08217C
:102300001348FFF727FF01211148FFF711FC0121B6
:102310000F48FFF71FFC01210D48FFF727FC0121A3
:102320002020FEF7FBFC10208DF8030003208DF821
:102330000200FF20ADF8000069460748FEF7F4FAF6
:1023400038BD0000000801408C0100200E00002074
:10235000000C0040960100200014014010B540F22E
:102360002551064800F01AF830B1044800F0D2F8C0
:1023700003490870FEF784F810BD000000480040D3
:102380005801002021B1828942F40052828104E088
:1023900082894DF6FF731A408281704770B50246FC
:1023A000002400230025002040F66A16B14200D127
:1023B00000BFC1F3421501F01F03012606FA03F323
:1023C000012D02D19689334006E0022D02D1168AF2
:1023D000334001E0968A33400C12012606FA04F4D9
:1023E0001688344013B10CB1012000E0002070BD0C
:1023F000F0B50346002400260025002040F66A17A9
:10240000B94200D100BF1846C1F3421401F01F06C3
:10241000012707FA06F5012C01D10C3004E0022C4B
:1024200001D1103000E014301AB107682F43076063
:1024300002E00768AF430760F0BD00002DE9F047F8
:1024400086B005460E460024A24600BFA1460027DE
:10245000B08900B100BF2F462C8A4CF6FF700440B3
:10246000F08804432C82AC894EF6F3100440B08807
:1024700031890843718908430443AC81AC8A4FF623
:10248000FF400440B0890443AC8201A8FEF766FC1B
:102490001F48874202D1DDF810A001E0DDF80CA052
:1024A000A88900F4004040B10AEBCA0000EB0A1012
:1024B00031684900B0FBF1F807E00AEBCA0000EB15
:1024C0000A1031688900B0FBF1F86420B8FBF0F025
:1024D00004012009642101FB1089A88900F400404F
:1024E00040B1322000EBC900B0FBF1F000F0070072
:1024F000044308E0322000EB09106421B0FBF1F046
:1025000000F00F0004432C8106B0BDE8F087000006
:102510000038014001468888C0F308007047000079
:102520001FB501214120FEF7F9FB10208DF80300B3
:1025300003208DF802000520ADF80000694622480E
:10254000FEF7F2F928208DF803000A20ADF800000C
:1025500069461D48FEF7E8F9002201211A48FEF7F6
:10256000C4FA002204211848FEF7BFFA0A20FEF739
:10257000C5F801210420FEF7B7F903210420FEF776
:10258000B3F90A20019000208DF8080010208DF882
:10259000090001208DF80A0001A8FEF7C9F80720FC
:1025A0008DF80C0003208DF80D008DF80E00012031
:1025B0008DF80F0003A8FEF72DFB09208DF80C0005
:1025C00003A8FEF727FB1FBD0018014010B51548F2
:1025D000007810B9002014490870002011490870D3
:1025E0001248007860B9012211461148FEF77DFAC1
:1025F0000F2000F00DF9002201210D48FEF775FAB9
:102600000A48007801280CD1012204210848FEF76D
:102610006CFA0F2000F0FCF8002204210448FEF7B9
:1026200064FA10BD10010020740000207C0000201E
:102630000018014000BFFEE7704702E008C8121F03
:1026400008C1002AFAD170477047002001E001C19B
:10265000121F002AFBD1704700B5FFF7EDFFFEF710
:10266000A1FAFEF7FDFCFEF72BFC14490968353989
:102670004FF4167201FB02F0C11700EB5161C91152
:102680000F4A11600F49096849394FF4167201FB6E
:1026900002F0C11700EB5161C9110B4A11600B49DF
:1026A00009683F394FF4167201FB02F0C11700EBC5
:1026B0005161C911064A116000BD000040010020AF
:1026C0000400002038010020000000204801002004
:1026D0000800002070B5414B1B68414C2360234625
:1026E0001B68404C24681B1B43433D4C246801FB82
:1026F00004333B4C24683B4D2D68022606FB1544F1
:10270000394D2D682C4402FB0433384C236023469A
:102710001B680A2493FBF4F3344C2360314B1B6891
:10272000314C23602E4B1B682E4C2360304B1B68B2
:102730002E4C246823442E4C236023461B6849F604
:10274000404494FBF3F32B4C23602368002B01DB04
:102750001C4600E05C42284D2C602B461B68B3F5FC
:102760007A7F04DB4FF44873244C23600CE0224B47
:102770001B68322B04DB4FF4FA73204C236003E018
:102780004FF496731D4C23601C4C2468B4256C4395
:10279000184D2D6894FBF5F303EBD374174D2D689A
:1027A00005EB6404164D2C602B461B68154C23600A
:1027B000124C2468B4256C430E4D2D6894FBF5F340
:1027C00003EBD3740D4D2D68A5EB64040E4D2C6006
:1027D0002B461B680D4C236070BD00008400002058
:1027E00014010020180100201C01002024010020F9
:1027F000200100202C0100203001002028010020B1
:1028000014000020180000201C00002020000020E0
:10281000002107E0002201E0531C9AB2092AFBDBE9
:102820004B1C99B28142F5DB7047000010B500F0F7
:1028300027F802460F4CD22102FB01F04FF47A71C7
:10284000484300EB8000430093FBF4F00A49086022
:1028500000F046F8024600BFD22102FB01F04FF41F
:102860007A71484300EB8000430093FBF4F0034986
:10287000086010BD74DC0300240000202C00002040
:10288000134800881349086008460068124909681F
:10289000401A124908600846006810F57A6F05DA98
:1028A0000846006800F5FA5008600AE00B48006826
:1028B000B0F57A6F05DD09480068A0F5FA500749C0
:1028C00008600348008804490860044800687047AD
:1028D000243401403C000020340000203800002057
:1028E00013480088134908600846006812490968BF
:1028F000401A124908600846006810F57A6F05DA38
:102900000846006800F5FA5008600AE00B480068C5
:10291000B0F57A6F05DD09480068A0F5FA5007495F
:10292000086003480088044908600448006870474C
:1029300024080040480000204000002044000020FF
:10294000FEF708F942F2F030FDF7ECFD4FF4A0601D
:10295000FEF798F91748018817480088FFF788FCA8
:10296000FDF730FF00F036FAFEF798FFFFF764F846
:10297000FFF7A8F8FFF7D4FDFDF728FD00F01EFAD9
:1029800017E00E48006820B100200C490860FEF7EF
:102990004FFA0B48006860B10020094908600948F7
:1029A000007808B9012000E0002006490870FFF710
:1029B0000DFEE6E7100000200C000020940000202F
:1029C000980000207C00002070B504460D46164695
:1029D000DA480068DA490968401ADA4908600846A6
:1029E0000068D9490968401A6043D649096805FB5F
:1029F0000100D4490968D44A1268022303FB12116A
:102A0000D24A1268114406FB0100D1490860CE4841
:102A10000068CE490860CB480068CB490860CD48C3
:102A20000068CB4909680844CA490860084600683C
:102A3000002819DA0121C848FEF755F80221C648D6
:102A4000FEF74FF8C3480068C449098849428842E4
:102A500004DAC24800884042BE490860BD48008888
:102A60004042BF49C88015E00221BB48FEF73BF851
:102A70000121B948FEF735F8B6480068B74909881A
:102A8000884203DDB5480088B2490860B148008833
:102A9000B349C880B249B348FFF70EFA0821B148DC
:102AA000FFF756FAB0480068B0490968401AB049C3
:102AB000086008460068AF490968401A6043AC499D
:102AC000096805FB0101AA480068AA4A12680223A6
:102AD00003FB1200A84A1268104406FB0010A74925
:102AE0000860A4480068A4490860A1480068A1499A
:102AF0000860A3480068A14909680844A049086023
:102B000008460068002819DA04219348FDF7EBFF16
:102B100008219148FDF7E5FF994800688F49098829
:102B20004942884204DA8D4800884042944908604E
:102B30009348008840428A49C88015E008218648A9
:102B4000FDF7D1FF04218448FDF7CBFF8C480068D6
:102B500082490988884203DD8048008888490860E6
:102B6000874800887E49C8807D497E48FFF7FAF98A
:102B700008217C48FFF748FA8248006882490968C2
:102B8000401A824908600846006881490968401A6D
:102B900060437E49096805FB01007C4909687C4A5D
:102BA0001268022303FB12117A4A1268114406FBD1
:102BB00001007949086076480068764908607348E2
:102BC00000687349086075480068734909680844DB
:102BD0007249086008460068002819DA10215E482A
:102BE000FDF781FF20215C48FDF77BFF6B48006803
:102BF0005A4909884942884204DA584800884042C4
:102C0000664908606548008840425549C88015E01B
:102C100020215148FDF767FF10214F48FDF761FF64
:102C20005E4800684D490988884203DD4B480088AA
:102C30005A490860594800884949C8804849494864
:102C4000FFF7F0F908214748FFF73CFA54480068BD
:102C500054490968401A54490860084600685349B5
:102C60000968401A60435049096805FB01014E4854
:102C700000684E4A1268022303FB12004C4A126895
:102C8000104406FB00104B4908604848006848495A
:102C9000086045480068454908604748006845495C
:102CA000096808444449086008460068002819DAA1
:102CB00040212948FDF717FF80212748FDF711FF24
:102CC0003D480068254909884942884204DA23487A
:102CD000008840423849086037480088404220490F
:102CE000C88015E080211C48FDF7FDFE40211A48F0
:102CF000FDF7F7FE3048006818490988884203DD6F
:102D0000164800882C4908602B4800881449C88060
:102D100013491448FFF7E0F908211248FFF71AFA9F
:102D200001211048FEF704FF01210E48FEF712FFB3
:102D300001210C48FEF71AFF70BD000014000020AE
:102D400024000020B0000020B4000020B8000020C3
:102D5000BC000020C0000020001401400E00002034
:102D600096010020000C00401800002028000020E0
:102D7000C4000020C8000020CC000020D0000020AB
:102D8000D40000201C0000202C000020D8000020CF
:102D9000DC000020E0000020E4000020E80000202B
:102DA0002000002030000020EC000020F000002077
:102DB000F4000020F8000020FC000020142004494A
:102DC00008601E2048604FF4C8708860704700009B
:102DD0007001002010B5104800684FF47A71B0FB04
:102DE000F1F4B4F1807F00D311E024F07F40401E65
:102DF0004FF0E02148610F214FF0FF30FDF74CFF0D
:102E000000204FF0E02188610720086100BF002109
:102E1000481EFDF741FF10BD9C0000203C2E00081D
:102E200000000020700100008C010008742E0008D2
:102E300070010020380700004A260008C11247032D
:102E400040E7031AFF01A90801180B1C18FC2051C8
:102E500084A24A040009500102030406070809037A
:102E60003601017232724E0A14405E19B669BA25F3
:042E7000020406084A
:0400000508000145A9
:00000001FF
