:020000040800F2
:100000007008002045010008F10900088109000876
:10001000ED090008AD040008C92000080000000038
:10002000000000000000000000000000C90B0008F4
:10003000B104000800000000A10A0008F10E000849
:100040005F0100085F0100085F0100085F01000810
:100050005F0100085F0100085F010008B5040008A7
:100060005F0100082D0500085F0100085F0100081E
:100070005F0100085F0100085F0100085F010008E0
:100080005F0100085F0100085F0100085F010008D0
:100090005F0100085F0100085F0100085F010008C0
:1000A0005F010008191600085F01000845130008E9
:1000B000911600085F0100085F0100085F01000859
:1000C0005F0100085F0100085F0100085F01000890
:1000D0005F0100085F0100085F0100085F01000880
:1000E0005F0100085F0100085F0100085F01000870
:1000F0005F0100085F0100085F0100085F01000860
:100100005F0100085F0100085F0100085F0100084F
:100110005F0100085F010008191700085F0100086F
:100120005F0100085F0100085F0100085F0100082F
:10013000DFF80CD000F02EF80048004775240008C6
:10014000700800200648804706480047FEE7FEE7A3
:10015000FEE7FEE7FEE7FEE7FEE7FEE7FEE7FEE777
:10016000A51000083101000830B50B4601460020FB
:100170002022012409E021FA02F59D4205D303FA69
:1001800002F5491B04FA02F52844151EA2F10102EA
:10019000F1DC30BD064C074D06E0E06840F001039D
:1001A00094E8070098471034AC42F6D3FFF7C4FF39
:1001B000AC290008CC29000870B58C1810F8015B38
:1001C00015F0070301D110F8013B2A1106D110F8F0
:1001D000012B03E010F8016B01F8016B5B1EF9D1F4
:1001E0002B0705D40023521E0DD401F8013BFAE77A
:1001F00010F8013BCB1A921C03E013F8015B01F8E5
:10020000015B521EF9D5A142D8D3002070BD21B1A7
:10021000826842F00102826003E0826822F00102FB
:100220008260704710B504461248844208D101210B
:10023000401500F073FC0021601500F06FFC17E022
:100240000D48844208D10121001500F067FC00210F
:10025000201500F063FC0BE00848844208D101211E
:10026000C80300F05BFC00214FF4004000F056FC96
:1002700010BD00000024014000280140003C014066
:10028000014600208A6802F004020AB1012000E061
:10029000002070470146C86C80B2704702460020BB
:1002A00013680B400BB1012000E0002070470146AD
:1002B00000208A6802F008020AB1012000E0002054
:1002C0007047000030B502460020002350680F4CF4
:1002D00020400D790C6844EA052420435060906862
:1002E0000B4C2040D1E902542C434D7944EA45049B
:1002F00020439060D06A20F470000C7C641EE4B24D
:10030000234340EA0350D06230BD0000FFFEF0FFFF
:10031000FDF7F1FFF0B504460D4600200021092D40
:1003200011DDE068A5F10A0606EB4607072606FA86
:1003300007F18843A5F10A0606EB460603FA06F123
:100340000843E0600CE0206905EB4507072606FA44
:1003500007F1884305EB450603FA06F108432061DF
:10036000072A0FDA606B561E06EB86071F2606FA71
:1003700007F18843561E06EB860605FA06F1084388
:10038000606322E00D2A0FDA206BD61F06EB86078A
:100390001F2606FA07F18843D61F06EB860605FAE4
:1003A00006F10843206310E0E06AA2F10D0606EBB7
:1003B00086071F2606FA07F18843A2F10D0606EB11
:1003C000860605FA06F10843E062F0BD816841F057
:1003D00008018160704721B1826842F4A002826006
:1003E00003E0826822F4A00282607047816841F0D5
:1003F000040181607047000000B587B001214FF40F
:10040000017000F07BFB4FF4004000F04BFB20201C
:10041000ADF8040000208DF8070001A9214800F084
:10042000E3F94020ADF8040010208DF80700032008
:100430008DF8060001A91B4800F0D6F98020ADF820
:10044000040001A9174800F0CFF91748FFF7EAFEAA
:10045000002002908DF80C008DF80D004FF4602004
:1004600004900020059001208DF8180002A90E4884
:10047000FFF728FF01210C48FFF7C9FE0A48FFF7E4
:10048000A5FF00BF0848FFF712FF0028FAD1064871
:10049000FFF7ACFF00BF0448FFF7F2FE0028FAD1D7
:1004A00007B000BD000801400024014000BFFEE786
:1004B0007047000010B5022000F086F850B302200B
:1004C00000F07CF80221144800F019FA01280ED13E
:1004D0000021800701F083FC0020104908700121F1
:1004E000880701F06FF901200D49087012E0002122
:1004F0004FF0804001F066F90948007850B1074894
:10050000007820B9012007490870074908700020C9
:100510000349087010BD00000018014010010020C0
:1005200012010020740000201401002010B50820E2
:1005300000F04AF800282FD0082000F03FF80821EA
:10054000164800F0DCF901280ED10021144801F012
:1005500046FC0020134908700121114801F032F9CE
:1005600001201149087017E000210D4801F02AF917
:100570000D48007880B10B48007828B901200B495C
:10058000087002200A4908700020074908700448D2
:10059000818C08A001F0BCFD10BD000000180140D6
:1005A0000010004011010020130100201401002060
:1005B000740000202025642000000000014908602C
:1005C0007047000014040140014600200022074B40
:1005D0001B6803EA0102054B14331B680B4013B17F
:1005E0000AB1012000E00020704700000004014033
:1005F000002123498279002A3AD00A46126803680A
:100600009A430B461A600A1D126803689A430B1D31
:100610001A60027911440A6803681A430A60184A8A
:100620000832126803689A43154B08331A601A1D82
:10063000126803689A43124B0C331A604279102AED
:100640000ED11A1F126803681A430D4B08331A6043
:100650001A1D126803681A43094B0C331A600DE027
:100660000749427911440A6803681A430A6005E0A1
:10067000027911440A6803689A430A6070470000CF
:100680000004014000B58DB00121042000F016FAED
:100690000121082000F032FAC020ADF8300004201B
:1006A0008DF8330003208DF832000CA93A4800F091
:1006B0009BF80020ADF82400ADF8260041F63F700D
:1006C000ADF828000020ADF82A008DF82C0009A90B
:1006D000324801F0B3FB0A231A4603212F4801F0E8
:1006E00081F906A801F00EFA0620ADF8200006A94F
:1006F0002A4801F0B1F90121284801F05DF80021F4
:10070000264801F06CFB0121244801F05BF801212F
:10071000480300F0F3F90121102000F0EFF9C020A8
:10072000ADF8300004208DF8330003208DF832003E
:100730000CA91B4800F058F80020ADF80C00ADF8EB
:100740000E0041F63F70ADF810000020ADF8120029
:100750008DF8140003A9134801F070FB0A231A4610
:100760000321104801F03EF9684601F0CBF906205C
:10077000ADF8080069460B4801F06EF901210948FF
:1007800001F01AF80021074801F029FB0121054872
:1007900001F018F80DB000BD000C01400008004049
:1007A000001001400034014030B500228B071C0FBF
:1007B0000F2303FA04F20B4B8C1053F824309343AD
:1007C000084C8D1044F8253023468C1053F8243003
:1007D0008C07240F00FA04F42343024C8D1044F8D4
:1007E000253030BD080001402DE9F04102460025CA
:1007F0000026002000230024002791F803C00CF0FD
:100800000F0591F803C00CF0100CBCF1000F03D0E1
:1008100091F802C04CEA050591F800C0BCF1000F48
:1008200031D0146800202BE04FF0010C0CFA00F3DB
:10083000B1F800C00CEA03069E4220D183004FF0BD
:100840000F0C0CFA03F7BC4305FA03FC4CEA040452
:1008500091F803C0BCF1280F06D14FF0010C0CFA3F
:1008600000FCC2F814C00AE091F803C0BCF1480FC4
:1008700005D14FF0010C0CFA00FCC2F810C0401C6E
:100880000828D1D31460B1F800C0BCF1FF0F34DDEB
:10089000546800202EE000F1080C4FF0010808FA1F
:1008A0000CF3B1F800C00CEA03069E4221D183008C
:1008B0004FF00F0C0CFA03F7BC4305FA03FC4CEAAB
:1008C000040491F803C0BCF1280F05D100F1080C15
:1008D00008FA0CF8C2F8148091F803C0BCF1480F74
:1008E00007D100F1080C4FF0010808FA0CF8C2F823
:1008F0001080401C0828CED35460BDE8F081024629
:10090000002093680B400BB1012000E000207047ED
:1009100041617047016170470AB1016100E04161C6
:10092000704710B5034600248B4202DD0C46194681
:100930002346914202DD14460A4621468B4202DDDF
:100940000C4619462346084610BD000010B5044663
:100950000723012221460948FFF7DCFC0121074853
:10096000FFF739FD00BF02210448FFF797FC00287C
:10097000F9D00248FFF78EFC10BD000000240140B2
:1009800000BFFEE710B51648007816490870012030
:100990001549087018E0124C134B1B785B1CE25C85
:1009A0002346114C2478195D0F4B1B785B1E0C4CB1
:1009B000E05CFFF7B6FF0B490B4A127888540A48EF
:1009C0000078401C08490870074800787F28E2DB5F
:1009D000034890F87F00034981F87F0010BD0000B4
:1009E00074010020F40100201801002000BFFEE780
:1009F0007047000070B5002100230F22C47804B3B3
:100A0000154C246804F4E064C4F5E064210AC1F1E3
:100A10000403CA40447804FA03F184781440214363
:100A200009010E4C0678A155047804F01F05012435
:100A3000AC4005786D11AD0005F1E025C5F8004129
:100A400009E0047804F01F050124AC40044D067849
:100A5000761145F8264070BD0CED00E000E400E0A2
:100A600080E100E002490143024A11607047000042
:100A70000000FA050CED00E010B5002807DA0A07BF
:100A8000140E054A00F00F031B1FD45403E00A079D
:100A9000130E024A135410BD18ED00E000E400E00C
:100AA0007047000001460020034A506820F440408F
:100AB00008435060704700000010024029B1064A08
:100AC000D2690243044BDA6104E0034AD2698243EB
:100AD000014BDA61704700000010024029B1064A5C
:100AE00012690243044B1A6104E0034A126982430B
:100AF000014B1A61704700000010024029B1064AFC
:100B000092690243044B9A6104E0034A926982436A
:100B1000014B9A61704700000010024029B1064A5B
:100B2000D2680243044BDA6004E0034AD26882438D
:100B3000014BDA60704700000010024070B50024DD
:100B4000002580211E48FFF7E3FE012001F0E8FBAD
:100B500080211B48FFF7DEFE012001F0E1FB402170
:100B60001748FFF7D5FE012001F0DAFB40211448B9
:100B7000FFF7D0FE80211248FFF7CAFE012001F0E6
:100B8000CFFB00BF18E040210D48FFF7C1FE012058
:100B900001F0C6FB0520FFF7D9FEC0F30710094995
:100BA0004855681CC5B240210548FFF7B3FE012037
:100BB00001F0B6FB601CC4B2802CE4DB70BD000009
:100BC000000801407401002070470000F0B50020CB
:100BD0005E4D2D686C425E4D2D681A2D03DA1A2584
:100BE0005B4E356006E05A4D2D68652D02DD6525AA
:100BF000574E3560564D2D78564E357020E048B929
:100C0000554D544E367855F82650A54202DA514DCE
:100C10002A78012001280ED14F4D4E4E367855F8D6
:100C200026504A4E3668B54205DD4A4D29780220E5
:100C30008D1AEBB208E0474D2D786D1C454E35708E
:100C4000444D2D787F2DDADB00BF02280ED1032B17
:100C50000CDD0F2B0ADA8D1805EBD57676103F4F99
:100C60003E6001253E4E3570002003E000253C4EDD
:100C700035700020364D2D78364E357020E058B94D
:100C8000354D344E367855F82650304E3668B542DC
:100C900002DD304D2978012001280CD12E4D2D4E3A
:100CA000367855F82650A54205DA2A4D2A780220D2
:100CB0008D1AEBB208E0274D2D786D1E254E35704C
:100CC000244D2D78002DDADC00BF02280ED1032B35
:100CD0000CDD0F2B0ADA8D1805EBD5767610214F37
:100CE0003E600125204E3570002003E000251E4E99
:100CF000357000201C4D2D78012D0DD1184D2D780B
:100D0000012D09D1174E3668144F3F68F51905EBD0
:100D1000D57676100E4F3E60134D2D78012D08D1FB
:100D20000F4D2D782DB90F4D2D681935084E3560B2
:100D30000BE00D4D2D7845B9094D2D78012D04D1CD
:100D4000064D2D68193D024E3560F0BD380100207A
:100D50002C01002018010020740200202401002032
:100D6000280100201C010020200100200020204933
:100D7000087031E01F491E480078401C085C1C4A7E
:100D80001278895C411A1C48194A127840F82210DE
:100D90001749097850F8210018490968884206DD8A
:100DA00015481349097850F8210014490860124881
:100DB0000F49097850F8210011490968884206DA7C
:100DC0000D480B49097850F821000D490860084882
:100DD0000078401C06490870054800787F28C9DB68
:100DE0000649086800EBD0714910064A1160704747
:100DF00018010020F40100207402002030010020BE
:100E0000340100203801002010B500F001F810BDB9
:100E10000CB50020019000903348006840F4803009
:100E20003149086000BF3048006800F4003000908D
:100E30000198401C0190009818B90198B0F5A06F76
:100E4000F1D12948006800F4003010B10120009071
:100E500001E0002000900098012843D12348006859
:100E600040F01000214908600846006820F00300A7
:100E700008600846006840F0020008601A484068B0
:100E8000194948600846406848600846406840F490
:100E9000806048600846406820F47C10486008463E
:100EA000406840F4E81048600846006840F08070F0
:100EB000086000BF0C48006800F000700028F9D0FE
:100EC0000948406820F00300074948600846406828
:100ED00040F00200486000BF0348406800F00C008A
:100EE0000828F9D10CBD000000100240002002408B
:100EF00010B553480068401C514908600846006816
:100F0000504990FBF1F201FB12004D490860084680
:100F100000680A2190FBF1F201FB120018B90120D0
:100F20004949086002E000204749086044480068D9
:100F30002F2190FBF1F201FB120030B901F0FEF914
:100F400001221146104601F0C9FA3D4800686B21A4
:100F500090FBF1F201FB120018B901203B49086037
:100F600002E000203949086035480068672190FB9D
:100F7000F1F201FB1200002853D1354908603549D0
:100F80000860354908603549086001F08BF934483C
:100F9000007880B92A48006832490968401A40F64A
:100FA000B831884207DD30A001F0B2F8304800685F
:100FB0003049086035E02A480078022806D02848E1
:100FC0000078C8B92C480078022815D12548026855
:100FD0002348017829A001F09BF82C480068254996
:100FE00008601F48007802281BD123490870144864
:100FF00000681C49086014E01A4802681848017823
:1010000023A001F085F8264800681A4908601448B2
:101010000078012805D1184908700948006811496D
:10102000086007480068352190FBF1F201FB1200CF
:1010300020B901221146104601F050FA10BD0000FF
:101040008C00002080EE36009000002094000020EC
:1010500014000020180000201C00002020000020A8
:1010600074000020780000206E6F6E65210A000079
:101070000800002080000020750000207269676869
:10108000742C2025642C2025640A00000000002018
:101090006C6566742C2025642C2025640A000000F1
:1010A0000400002010B51348006840F00100114909
:1010B000086008464068104908400E4948600846E4
:1010C00000680E4908400B4908600846006820F493
:1010D000802008600846406820F4FE0048604FF415
:1010E0001F008860FFF790FE4FF000600449086021
:1010F00010BD0000001002400000FFF8FFFFF6FEE8
:1011000008ED00E0F0B50C46154600220021068CE3
:101110004FF6FE773E400684028B018C4FF60C762C
:1011200032407E1C06EA03162E433243104EB04274
:101130000ED0104EB0420BD0B0F1804F08D00E4E02
:10114000B04205D00D4EB04202D00D4EB04206D195
:101150004FF6FD76314044F00106314305E04FF68D
:10116000F576314044F00106314302830184F0BD3D
:10117000002C014000340140000400400008004001
:10118000000C0040F0B50C46154600220021002658
:10119000078C4FF6EF7C07EA0C070784028B018C63
:1011A0004FF6FF7707EA041640F6FF473A404FF63E
:1011B000FF7707EA03373A434FF6FF7707EA052739
:1011C0003A43114FB8420ED0104FB8420BD0B0F195
:1011D000804F08D00E4FB84205D00E4FB84202D013
:1011E0000D4FB84206D14FF6DF77394046F0100771
:1011F000394305E04FF65F77394044F01007394333
:1012000002830184F0BD0000002C01400034014045
:101210000004004000080040000C0040F0B50C46FF
:101220001546002200210026078C4FF6FF6C07EAC6
:101230000C070784828B018C4FF6FF7707EA0426A0
:101240004FF60C773A404FF6FF7707EA03172F4324
:101250003A43114FB8420ED0104FB8420BD0B0F104
:10126000804F08D00E4FB84205D00E4FB84202D082
:101270000D4FB84206D14FF6FF57394046F48077FC
:10128000394305E04FF2FF57394044F48077394342
:1012900082830184F0BD0000002C01400034014035
:1012A0000004004000080040000C0040F0B50C466F
:1012B0001546002200210026078C4EF6FF7C07EA27
:1012C0000C070784828B018C4FF6FF7707EA043600
:1012D00040F6FF473A404FF6FF7707EA05273A43C3
:1012E0004FF6FF7707EA03373A43114FB8420ED063
:1012F000104FB8420BD0B0F1804F08D00E4FB8421B
:1013000005D00E4FB84202D00D4FB84206D14DF66F
:10131000FF77394046F48057394305E047F6FF57D9
:10132000394044F48057394382830184F0BD000082
:10133000002C01400034014000040040000800403F
:10134000000C004010B520215F48FFF7D8FA0128B3
:1013500002D15E49087002E000205C49087040211B
:101360005948FFF7CCFA012802D15949087002E028
:101370000020574908700221564800F05BFB012805
:101380004DD10221534800F01AFA524800F04BFBAD
:10139000514908605148006840F2537148434E4932
:1013A000096801EB40104E490968401A4D49086030
:1013B0004D4800686421B0FBF1F0D221484300EBB6
:1013C00080004000494908604648006840F62711FF
:1013D000484347490860474804684448006809682A
:1013E000B0FBF1F0434908603848007818B9084666
:1013F0000068404208603F490868002801DB014658
:1014000000E04142B1F57A7F01DD3A4804600020F6
:1014100032490860304800683149086052E01021C4
:101420002C4800F007FB01284CD11021294800F07E
:10143000C6F9284800F0FAFA2F4908602F480068DA
:1014400040F2537148432C49096801EB40102C4984
:101450000968401A2B490860234800686421B0FBE2
:10146000F1F0D221484300EB800040001F490860A2
:101470002448006840F6271148431D490860224867
:1014800004681A4800680968B0FBF1F01E4908605A
:101490000F48007818B908460068404208601A49A9
:1014A0000868002801DB014600E04142B1F57A7F7F
:1014B00001DD1548046010480068114908600020EB
:1014C0000E49086010BD0000001801400401002012
:1014D00005010020002C01404C0000206400002089
:1014E000500000205C000020980000206C000020CC
:1014F0007000002028000020540000206800002018
:1015000058000020600000203000002000B589B0A5
:101510000121C802FFF7F2FA01211020FFF7EEFACD
:101520004FF41060ADF8040028208DF80700032068
:101530008DF8060001A93548FFF756F94FF4106100
:101540003248FFF7E5F94EF65F20ADF81000632052
:10155000ADF80C000020ADF81200ADF80E008DF8CB
:10156000140003A92A4800F069FC06A800F0CAFA92
:101570000020ADF81800ADF81A000120ADF81C00ED
:101580000020ADF81E00ADF8200006A9204800F0AC
:1015900063FA0C20ADF8180006A91D4800F05CFAAB
:1015A0001B208DF8080002208DF809008DF80A0034
:1015B00001208DF80B0002A8FFF71CFA19208DF806
:1015C000080001208DF809008DF80A0002A8FFF735
:1015D00011FA012213210E4800F09DFA01210C4856
:1015E00000F0F0F801214020FFF788FA04208DF880
:1015F000070003208DF806006020ADF8040001A963
:101600000448FFF7F1F809B000BD000000080140F0
:10161000002C01400018014010B50121174800F0CE
:1016200009FA012829D116480068401C14490860AD
:1016300008460068022809DD0020124908601048A9
:101640000068052802DD05200D4908600E48006885
:10165000401C0D49086008460068022809DD00208A
:101660000A49086008480068052802DD0520064987
:1016700008600121014800F0A2F810BD002C0140D3
:1016800064000020280000206800002030000020B6
:1016900010B50120034908700121800700F08FF880
:1016A00010BD0000100100201FB501210846FFF702
:1016B00005FA4FF0804000F0A1F840F6B830ADF8E0
:1016C00008004720ADF804000020ADF80A00ADF88E
:1016D000060001A94FF0804000F0B0FB0122114646
:1016E000900700F018FA00214FF0804000F06AF8EF
:1016F0001C208DF8000002208DF801008DF80200FA
:1017000001208DF803006846FFF774F9012188076E
:1017100000F055F81FBD000010B501200349087006
:101720000121034800F04BF810BD0000110100201A
:10173000001000401FB501211020FFF7BFF9174826
:1017400000F05CF840F6B830ADF808004720ADF87E
:1017500004000020ADF80A00ADF8060001A90F480A
:1017600000F06CFB012211460C4800F0D4F9002176
:101770000A4800F027F836208DF8000002208DF886
:1017800001008DF8020001208DF803006846FFF784
:1017900031F90121014800F012F81FBD001000408E
:1017A00021B1028842F08002028004E002884FF6F4
:1017B0007F731A4002807047CA4302827047CA434F
:1017C0000282704721B1028842F00102028004E0E7
:1017D00002884FF6FE731A400280704731B1B0F8AC
:1017E000442042F40042A0F8442005E0B0F8442030
:1017F000C2F30E02A0F844207047000010B5044662
:101800006848844208D10121C014FFF787F90021FC
:10181000E014FFF783F9C4E0B4F1804F08D101214F
:101820000846FFF75BF900210120FFF757F9B8E000
:101830005D48844208D101210220FFF74FF90021C1
:101840000220FFF74BF9ACE05848844208D101214F
:101850000420FFF743F900210420FFF73FF9A0E03F
:101860005348844208D101210820FFF737F90021AD
:101870000820FFF733F994E04E48844208D1012153
:101880001020FFF72BF900211020FFF727F988E03F
:101890004948844208D101212020FFF71FF9002187
:1018A0002020FFF71BF97CE04448844208D1012145
:1018B0004014FFF733F900216014FFF72FF970E0AF
:1018C0003F48844209D10121C804FFF727F90021CC
:1018D0004FF40020FFF722F963E03A48844209D12F
:1018E00001210805FFF71AF900214FF48010FFF7D6
:1018F00015F956E03448844209D101214805FFF723
:101900000DF900214FF40010FFF708F949E02F48C6
:10191000844208D101214020FFF7E0F80021402057
:10192000FFF7DCF83DE02A48844208D101218020FD
:10193000FFF7D4F800218020FFF7D0F831E02548E8
:10194000844208D101218015FFF7C8F80021A015B5
:10195000FFF7C4F825E02048844209D1012108049A
:10196000FFF7DCF800214FF48030FFF7D7F818E0DC
:101970001A48844209D101214804FFF7CFF8002119
:101980004FF40030FFF7CAF80BE01548844208D145
:1019900001218804FFF7C2F800214FF48020FFF7EF
:1019A000BDF810BD002C01400004004000080040BC
:1019B000000C0040001000400014004000340140C2
:1019C000004C01400050014000540140001800400C
:1019D000001C004000200040004001400044014045
:1019E00000480140F0B50C4615461E460021002275
:1019F00000230189028B038C4FF6F877394021438D
:101A00004FF6FC473A4040F201173A434FF6DD7774
:101A10003B404FF6FF7707EA06172F433B43018110
:101A200002830384F0BD0146888E70470146B1F8F9
:101A30004000704730B50246002000230024158A7C
:101A400005EA0103958905EA010413B10CB10120EF
:101A500000E0002030BD000070B505460C4624486B
:101A600085420ED0234885420BD0B5F1804F08D077
:101A70002148854205D02148854202D02048854230
:101A800000D100E000BF208850B92389A288618876
:101A90002846FFF737FBE188284600F0A2F925E049
:101AA000208804280AD12389A28861882846FFF764
:101AB00069FBE188284600F09DF917E02088082896
:101AC0000AD12389A28861882846FFF7A7FBE1880D
:101AD000284600F09CF909E02389A28861882846FD
:101AE000FFF7E4FBE188284600F09AF970BD00009A
:101AF000002C014000340140000400400008004078
:101B0000000C0040002101804180012181800021E2
:101B1000C180018170471AB183890B43838102E040
:101B200083898B438381704770B500240022002392
:101B3000058C4FF6FE7635400584028C8388048B35
:101B40004FF68F752C40B51E2C400D882C43751E0A
:101B50002A400D892A434D882A43144DA8420BD0B0
:101B6000134DA84208D0134DA84205D0124DA842EB
:101B700002D0124DA84213D14FF6F7752A404D8975
:101B80002A434FF6FB752A408D882A434FF6FF659E
:101B90002B404FF6FF552B408D892B43CD892B438E
:101BA00083800483CD888586028470BD002C01402B
:101BB0000034014000400140004401400048014021
:101BC0000A460021018B4FF6F77319401143018338
:101BD0007047000070B5002400220023058C4FF6EA
:101BE000EF7635400584028C8388048B48F6FF75B8
:101BF0002C404FF6FF452C400D884FF6FF7606EA45
:101C000005252C434FF6DF752A400D8906EA051598
:101C10002A434D8806EA05152A43154DA84202D0ED
:101C2000144DA8421DD14FF67F752A404D894FF6BD
:101C3000FF7606EA05152A434FF6BF752A408D88C0
:101C400006EA05152A434FF6FF352B404FF2FF7584
:101C50002B408D8906EA85052B43CD8906EA85054B
:101C60002B4383800483CD880587028470BD0000E8
:101C7000002C0140003401400A460021018B4FF244
:101C8000FF7319404FF6FF7303EA022319430183E0
:101C90007047000070B5002400220023058C4FF629
:101CA000FF6635400584028C8388848B4FF68F75E0
:101CB0002C404FF6FC752C400D882C434FF6FF55F9
:101CC0002A400D894FF6FF7606EA05252A434D88FE
:101CD00006EA05252A43154DA84202D0144DA84214
:101CE0001DD14FF2FF752A404D894FF6FF7606EA67
:101CF00005252A434FF6FF352A408D8806EA05253B
:101D00002A434EF6FF752B404DF6FF752B408D890B
:101D100006EA05152B43CD8906EA05152B4383807A
:101D20008483CD888587028470BD0000002C01402B
:101D3000003401400A460021818B4FF6F7731940A9
:101D4000114381837047000070B5002200230024F6
:101D5000058C4EF6FF7635400584038C8488828B93
:101D600048F6FF752A404FF6FF452A400D884FF68A
:101D7000FF7606EA05252A434DF6FF752B400D89AF
:101D800006EA05352B434D8806EA05352B430B4DF6
:101D9000A84202D00A4DA84208D14BF6FF752C404C
:101DA0008D894FF6FF7606EA85152C438480828361
:101DB000CD88A0F84050038470BD0000002C014085
:101DC000003401400A460021818B4FF2FF73194015
:101DD0004FF6FF7303EA022319438183704781841E
:101DE0007047028B4FF6F3731A400283028B0A434B
:101DF00002837047028B4FF2FF331A400283028B3B
:101E00004FF6FF7303EA01231A4302837047828B64
:101E10004FF6F3731A408283828B0A4382837047A2
:101E2000828B4FF2FF331A408283828B4FF6FF730F
:101E300003EA01231A4382837047000000220288CC
:101E40001D4B98420ED01D4B98420BD0B0F1804FE5
:101E500008D01B4B984205D01A4B984202D01A4B1F
:101E6000984204D14FF68F731A404B881A43174B90
:101E7000984207D0164B984204D04FF6FF431A40C1
:101E8000CB881A4302808B8883850B8803850A4B95
:101E900098420BD0094B984208D00E4B984205D07F
:101EA0000D4B984202D00D4B984201D10B7A03861C
:101EB0000123838270470000002C01400034014060
:101EC0000004004000080040000C004000100040EA
:101ED000001400400040014000440140004801401F
:101EE00038B505460C4601210420FEF707FE1820F0
:101EF0008DF8030003208DF802000F20ADF80000DC
:101F000069462C48FEF770FC01210820FEF7D6FD3B
:101F10002948058029480088274988800020488072
:101F20002748FFF78BFF60202649088000200881A2
:101F30000846C480012048802148FFF7F5FD21496B
:101F40001F48FFF747FE1F491D48FFF7A3FE1D4925
:101F50001B48FFF7F9FE08211948FFF731FE082159
:101F60001748FFF789FE08211548FFF7E3FE08210F
:101F70001348FFF727FF01211148FFF711FC01214A
:101F80000F48FFF71FFC01210D48FFF727FC012137
:101F90002020FEF7B3FD10208DF8030003208DF8FC
:101FA0000200FF20ADF8000069460748FEF71CFC60
:101FB00038BD000000080140580100200E0000203C
:101FC000000C004062010020001401401FB50121F7
:101FD0004120FEF793FD10208DF8030003208DF8BB
:101FE00002000520ADF8000069462248FEF7FCFB20
:101FF00028208DF803000A20ADF8000069461D482E
:10200000FEF7F2FB002201211A48FEF785FC0022B0
:1020100004211848FEF780FC0A20FEF7CFFA0121C0
:102020000420FEF7C1FB03210420FEF7BDFB0A20BC
:10203000019000208DF8080010208DF80900012083
:102040008DF80A0001A8FEF7D3FA07208DF80C00DE
:1020500003208DF80D008DF80E0001208DF80F0083
:1020600003A8FEF7C7FC09208DF80C0003A8FEF7B3
:10207000C1FC1FBD0018014010B51048007810B910
:1020800000200F49087000200C49087001221146F9
:102090000C48FEF741FC012204210A48FEF73CFCF3
:1020A0000F2000F03DF9002201210648FEF734FC24
:1020B000002204210348FEF72FFC10BD140100206C
:1020C000740000200018014000BFFEE700200D4909
:1020D000087011E00C480B490978405C0B49094A2B
:1020E0001278895C08440849064A127888540548E1
:1020F0000078401C03490870024800788028E9DB1A
:102100007047000018010020740100202C290008ED
:102110000FB4054B10B503A9044A029800F018F853
:1021200010BC5DF814FB000091230008AC000020F7
:1021300002E008C8121F08C1002AFAD17047704790
:10214000002001E001C1121F002AFBD170470000EE
:102150002DE9FF4F89B09B460446002506E025285F
:102160000BD05A460B999047641C6D1C20780028B0
:10217000F5D10DB02846BDE8F08F0027B846012202
:10218000474900E0074314F8013F203B02FA03F0FF
:102190000842F7D120782E2819D114F8010F47F002
:1021A00004072A280ED06FF02F022078A0F130010A
:1021B00009290CD808EB880102EB410100EB01086A
:1021C000641CF2E70A98641C50F8048B0A9020788B
:1021D0000028CED0642808D0692806D075281ED0E3
:1021E0005A460B9990476D1C58E00A994FF00A091E
:1021F00001C90A91002802DA40422D2102E0390586
:1022000004D52B218DF82010012103E0F90704D01B
:102210002021F7E78A4608AE0DE00021FAE70A9987
:102220004FF00A0901C90A91F7E74946FDF79CFFFB
:10223000303106F8011D0028F7D1ADEB060000F1A2
:102240002009780701D44FF00108C84502DDA8EB4A
:10225000090000E000208046002706E008A85A4652
:10226000C05D0B9990476D1C7F1C5745F6DB04E061
:1022700030205A460B9990476D1CB8F10001A8F127
:102280000108F5DC05E016F8010B5A460B9990475A
:102290006D1CB9F10001A9F10109F4DC641C65E7CA
:1022A0000928010000B5FFF711FFFEF76BFBFEF7F1
:1022B0005DFDFEF78BFC14490968A1F13F00C117D1
:1022C00000EB5161C9114FF4167251430F4A11606E
:1022D0000F490968A1F13F00C11700EB5161C91115
:1022E0004FF4167251430B4A11600B490968A1F172
:1022F0003F00C11700EB5161C9114FF416725143F1
:10230000064A116000BD00002401002004000020E6
:102310001C010020000000202C01002008000020EB
:10232000002107E0002201E0531C9AB2092AFBDBDE
:102330004B1C99B28142F5DB7047000010B500F0EC
:1023400039F802460F4CD22102FB01F04FF47A71AA
:10235000484300EB8000430093FBF4F00A49086017
:1023600000F058F8024600BFD22102FB01F04FF402
:102370007A71484300EB8000430093FBF4F003497B
:10238000086010BDA4B80600240000202C00002026
:10239000074A126802F0807242B100BF4FF06042FB
:1023A0001268002AFAD04FF060431870704700009E
:1023B000FCED00E0134800881349086008460068F7
:1023C00012490968401A124908600846006810F569
:1023D0007A6F05DA0846006800F5FA5008600AE0EE
:1023E0000B480068B0F57A6F05DD09480068A0F574
:1023F000FA50074908600348008804490860044807
:1024000000687047243401403C0000203400002064
:102410003800002013480088134908600846006807
:1024200012490968401A124908600846006810F508
:102430007A6F05DA0846006800F5FA5008600AE08D
:102440000B480068B0F57A6F05DD09480068A0F513
:10245000FA500749086003480088044908600448A6
:102460000068704724080040480000204000002019
:10247000440000204FF4A060FEF7F4FA13480188EE
:1024800013480088FFF72CFDFEF7FCF800F02AFA4D
:10249000FFF73CF8FFF708F9FFF74CF9FFF796FD57
:1024A000FDF7AAFF00F014FA0FE00A48006820B117
:1024B000002008490860FEF741FB0748006820B18A
:1024C000002005490860FFF7D7FDEEE71000002067
:1024D0000C000020900000209400002070B50446FD
:1024E0000D461646DA480068DA490968401ADA49A2
:1024F000086008460068D9490968401A6043D6490F
:10250000096805FB0100D4490968D44A126802230E
:1025100003FB1211D24A1268114406FB0100D14993
:102520000860CE480068CE490860CB480068CB49B7
:102530000860CD480068CB4909680844CA4908606A
:1025400008460068002819DA0121C848FEF7E2F9B8
:102550000221C648FEF7DCF9C3480068C44909886F
:102560004942884204DAC24800884042BE490860B5
:10257000BD4800884042BF49C88015E00221BB48E1
:10258000FEF7C8F90121B948FEF7C2F9B64800685C
:10259000B7490988884203DDB5480088B249086018
:1025A000B1480088B349C880B249B348FFF7BCFAC4
:1025B0000821B148FFF704FBB0480068B04909683A
:1025C000401AB049086008460068AF490968401AD7
:1025D0006043AC49096805FB0101AA480068AA4AA2
:1025E0001268022303FB1200A84A1268104406FB7B
:1025F0000010A7490860A4480068A4490860A148E1
:102600000068A1490860A3480068A1490968084416
:10261000A049086008460068002819DA0421934898
:10262000FEF778F908219148FEF772F99948006899
:102630008F4909884942884204DA8D48008840421F
:10264000944908609348008840428A49C88015E050
:1026500008218648FEF75EF904218448FEF758F900
:102660008C48006882490988884203DD80480088D8
:1026700088490860874800887E49C8807D497E482F
:10268000FFF7A8FA08217C48FFF7F6FA82480068AD
:1026900082490968401A82490860084600688149F1
:1026A0000968401A60437E49096805FB01007C49BE
:1026B00009687C4A1268022303FB12117A4A1268E5
:1026C000114406FB010079490860764800687649A4
:1026D000086073480068734908607548006873496A
:1026E000096808447249086008460068002819DA39
:1026F00010215E48FEF70EF920215C48FEF708F92C
:102700006B4800685A4909884942884204DA5848A7
:102710000088404266490860654800884042554943
:10272000C88015E020215148FEF7F4F810214F48E9
:10273000FEF7EEF85E4800684D490988884203DDDF
:102740004B4800885A490860594800884949C88060
:1027500048494948FFF79EFA08214748FFF7EAFA37
:102760005448006854490968401A544908600846AA
:10277000006853490968401A60435049096805FBDD
:1027800001014E4800684E4A1268022303FB120002
:102790004C4A1268104406FB00104B490860484838
:1027A000006848490860454800684549086047484E
:1027B00000684549096808444449086008460068BB
:1027C000002819DA40212948FEF7A4F8802127487B
:1027D000FEF79EF83D48006825490988494288422D
:1027E00004DA2348008840423849086037480088A6
:1027F00040422049C88015E080211C48FEF78AF835
:1028000040211A48FEF784F83048006818490988C2
:10281000884203DD164800882C4908602B48008850
:102820001449C88013491448FFF78EFA082112484A
:10283000FFF7C8FA01211048FEF7B2FF01210E4848
:10284000FEF7C0FF01210C48FEF7C8FF70BD000075
:102850001400002024000020B4000020B800002054
:10286000BC000020C0000020C40000200014014073
:102870000E00002062010020000C00401800002023
:1028800028000020C8000020CC000020D00000203C
:10289000D4000020D80000201C0000202C000020C4
:1028A000DC000020E0000020E4000020E800002020
:1028B000EC0000202000002030000020F00000206C
:1028C000F4000020F8000020FC000020000100209F
:1028D00001200349086048601E208860704700009E
:1028E0003C01002010B5104800684FF47A71B0FB2D
:1028F000F1F4B4F1807F00D311E024F07F40401E5A
:102900004FF0E02148610F214FF0FF30FEF7B4F89F
:1029100000204FF0E02188610720086100BF0021FE
:10292000481EFEF7A9F810BD980000200000000026
:102930000000000000000000000000000000000097
:102940000000000000000000000000000000000087
:102950000000000000000000000000000000000077
:102960000000000000000000000000000000000067
:102970000000000000000000000000000000000057
:102980000000000000000000000000000000000047
:102990000000000000000000000000000000000037
:1029A000000000000000000000000000CC2900082A
:1029B000000000203C010000B8010008FC290008CC
:1029C0003C0100203407000040210008C1124703E9
:1029D00040E7031AFF01A90801180B1C48F4201155
:1029E00084A24A04000958010203040607080903E7
:0C29F00016010172287258F2400000002D
:0400000508000145A9
:00000001FF
