:020000040800F2
:100000009008002045010008B109000841090008D6
:10001000AD09000881040008351F00080000000039
:10002000000000000000000000000000890B000834
:100030008504000800000000610A0008B10E0008F5
:100040005F0100085F0100085F0100085F01000810
:100050005F0100085F0100085F01000889040008D3
:100060005F010008010500085F0100085F0100084A
:100070005F0100085F0100085F0100085F010008E0
:100080005F0100085F0100085F0100085F010008D0
:100090005F0100085F0100085F0100085F010008C0
:1000A0005F010008B91400085F0100080112000890
:1000B000311500085F0100085F0100085F010008BA
:1000C0005F0100085F0100085F0100085F01000890
:1000D0005F0100085F0100085F0100085F01000880
:1000E0005F0100085F0100085F0100085F01000870
:1000F0005F0100085F0100085F0100085F01000860
:100100005F0100085F0100085F0100085F0100084F
:100110005F0100085F010008B91500085F010008D1
:100120005F0100085F0100085F0100085F0100082F
:10013000DFF80CD000F018F800480047192200083A
:10014000900800200648804706480047FEE7FEE783
:10015000FEE7FEE7FEE7FEE7FEE7FEE7FEE7FEE777
:10016000610F000831010008064C074D06E0E06809
:1001700040F0010394E8070098471034AC42F6D3EE
:10018000FFF7DAFF3C2800085C28000870B58C18DF
:1001900010F8015B15F0070301D110F8013B2A119B
:1001A00006D110F8012B03E010F8016B01F8016B88
:1001B0005B1EF9D12B0705D40023521E0DD401F884
:1001C000013BFAE710F8013BCB1A921C03E013F84D
:1001D000015B01F8015B521EF9D5A142D8D3002082
:1001E00070BD21B1826842F00102826003E0826842
:1001F00022F001028260704710B504461248844222
:1002000008D10121401500F069FC0021601500F0C3
:1002100065FC17E00D48844208D10121001500F06B
:100220005DFC0021201500F059FC0BE008488442D9
:1002300008D10121C80300F051FC00214FF4004017
:1002400000F04CFC10BD00000024014000280140DB
:10025000003C0140014600208A6802F004020AB115
:10026000012000E0002070470146C86C80B2704752
:100270000246002013680B400BB1012000E0002073
:100280007047014600208A6802F008020AB1012086
:1002900000E000207047000030B502460020002337
:1002A00050680F4C20400D790C6844EA0524204327
:1002B000506090680B4C2040D1E902542C434D799A
:1002C00044EA450420439060D06A20F470000C7C1E
:1002D000641EE4B2234340EA0350D06230BD000004
:1002E000FFFEF0FFFDF7F1FFF0B504460D460020DC
:1002F0000021092D11DDE068A5F10A0606EB46078D
:10030000072606FA07F18843A5F10A0606EB46061A
:1003100003FA06F10843E0600CE0206905EB4507AD
:10032000072606FA07F1884305EB450603FA06F1AE
:1003300008432061072A0FDA606B561E06EB86071A
:100340001F2606FA07F18843561E06EB860605FAB5
:1003500006F10843606322E00D2A0FDA206BD61FF6
:1003600006EB86071F2606FA07F18843D61F06EB21
:10037000860605FA06F10843206310E0E06AA2F160
:100380000D0606EB86071F2606FA07F18843A2F141
:100390000D0606EB860605FA06F10843E062F0BD9D
:1003A000816841F008018160704721B1826842F4A0
:1003B000A002826003E0826822F4A002826070479B
:1003C000816841F0040181607047000000B587B08A
:1003D00001214FF4017000F071FB4FF4004000F078
:1003E00041FB2020ADF8040000208DF8070001A992
:1003F000214800F0D9F94020ADF8040010208DF814
:10040000070003208DF8060001A91B4800F0CCF975
:100410008020ADF8040001A9174800F0C5F917487D
:10042000FFF7EAFE002002908DF80C008DF80D0019
:100430004FF4602004900020059001208DF81800F2
:1004400002A90E48FFF728FF01210C48FFF7C9FE5B
:100450000A48FFF7A5FF00BF0848FFF712FF002872
:10046000FAD10648FFF7ACFF00BF0448FFF7F2FEE1
:100470000028FAD107B000BD000801400024014067
:1004800000BFFEE77047000010B5022000F07CF8C6
:1004900050B3022000F072F80221144800F00FFA65
:1004A00001280ED10021800701F0CFFB0020104968
:1004B00008700121880701F0BBF801200D49087080
:1004C00012E000214FF0804001F0B2F809480078B6
:1004D00050B10748007820B9012007490870074942
:1004E000087000200349087010BD0000001801408A
:1004F0000C0100200E0100207400002010010020DB
:1005000010B5082000F040F850B3082000F036F88D
:100510000821144800F0D3F901280ED10021124817
:1005200001F093FB00201149087001210E4801F0F1
:100530007FF801200E49087012E000210A4801F0FE
:1005400077F80B48007858B10848007828B901209E
:100550000849087002200849087000200449087002
:1005600010BD000000180140001000400D010020E7
:100570000F010020100100207400002001490860D4
:100580007047000014040140014600200022074B80
:100590001B6803EA0102054B14331B680B4013B1BF
:1005A0000AB1012000E00020704700000004014073
:1005B000002123498279002A3AD00A46126803684A
:1005C0009A430B461A600A1D126803689A430B1D72
:1005D0001A60027911440A6803681A430A60184ACB
:1005E0000832126803689A43154B08331A601A1DC3
:1005F000126803689A43124B0C331A604279102A2E
:100600000ED11A1F126803681A430D4B08331A6083
:100610001A1D126803681A43094B0C331A600DE067
:100620000749427911440A6803681A430A6005E0E1
:10063000027911440A6803689A430A60704700000F
:100640000004014000B58DB00121042000F016FA2D
:100650000121082000F032FAC020ADF8300004205B
:100660008DF8330003208DF832000CA93A4800F0D1
:100670009BF80020ADF82400ADF8260041F63F704D
:10068000ADF828000020ADF82A008DF82C0009A94B
:10069000324801F009FB0A231A4603212F4801F0D2
:1006A000D7F806A801F064F90620ADF8200006A9E5
:1006B0002A4801F007F90121284800F0B3FF002182
:1006C000264801F0C2FA0121244800F0B1FF0121BF
:1006D000480300F0F3F90121102000F0EFF9C020E9
:1006E000ADF8300004208DF8330003208DF832007F
:1006F0000CA91B4800F058F80020ADF80C00ADF82C
:100700000E0041F63F70ADF810000020ADF8120069
:100710008DF8140003A9134801F0C6FA0A231A46FB
:100720000321104801F094F8684601F021F90620F1
:10073000ADF8080069460B4801F0C4F801210948EA
:1007400000F070FF0021074801F07FFA0121054801
:1007500000F06EFF0DB000BD000C0140000800402D
:10076000001001400034014030B500228B071C0FFF
:100770000F2303FA04F20B4B8C1053F824309343ED
:10078000084C8D1044F8253023468C1053F8243043
:100790008C07240F00FA04F42343024C8D1044F814
:1007A000253030BD080001402DE9F041024600250A
:1007B0000026002000230024002791F803C00CF03D
:1007C0000F0591F803C00CF0100CBCF1000F03D022
:1007D00091F802C04CEA050591F800C0BCF1000F89
:1007E00031D0146800202BE04FF0010C0CFA00F31C
:1007F000B1F800C00CEA03069E4220D183004FF0FE
:100800000F0C0CFA03F7BC4305FA03FC4CEA040492
:1008100091F803C0BCF1280F06D14FF0010C0CFA7F
:1008200000FCC2F814C00AE091F803C0BCF1480F04
:1008300005D14FF0010C0CFA00FCC2F810C0401CAE
:100840000828D1D31460B1F800C0BCF1FF0F34DD2B
:10085000546800202EE000F1080C4FF0010808FA5F
:100860000CF3B1F800C00CEA03069E4221D18300CC
:100870004FF00F0C0CFA03F7BC4305FA03FC4CEAEB
:10088000040491F803C0BCF1280F05D100F1080C55
:1008900008FA0CF8C2F8148091F803C0BCF1480FB4
:1008A00007D100F1080C4FF0010808FA0CF8C2F863
:1008B0001080401C0828CED35460BDE8F081024669
:1008C000002093680B400BB1012000E0002070472E
:1008D00041617047016170470AB1016100E0416107
:1008E000704710B5034600248B4202DD0C461946C2
:1008F0002346914202DD14460A4621468B4202DD20
:100900000C4619462346084610BD000010B50446A3
:100910000723012221460948FFF7E6FC0121074889
:10092000FFF743FD00BF02210448FFF7A1FC0028A8
:10093000F9D00248FFF798FC10BD000000240140E8
:1009400000BFFEE710B51648007816490870012070
:100950001549087018E0124C134B1B785B1CE25CC5
:100960002346114C2478195D0F4B1B785B1E0C4CF1
:10097000E05CFFF7B6FF0B490B4A127888540A482F
:100980000078401C08490870074800787F28E2DB9F
:10099000034890F87F00034981F87F0010BD0000F4
:1009A00094010020140200203801002000BFFEE75F
:1009B0007047000070B5002100230F22C47804B3F3
:1009C000154C246804F4E064C4F5E064210AC1F124
:1009D0000403CA40447804FA03F1847814402143A4
:1009E00009010E4C0678A155047804F01F05012476
:1009F000AC4005786D11AD0005F1E025C5F800416A
:100A000009E0047804F01F050124AC40044D067889
:100A1000761145F8264070BD0CED00E000E400E0E2
:100A200080E100E002490143024A11607047000082
:100A30000000FA050CED00E010B5002807DA0A07FF
:100A4000140E054A00F00F031B1FD45403E00A07DD
:100A5000130E024A135410BD18ED00E000E400E04C
:100A60007047000001460020034A506820F44040CF
:100A700008435060704700000010024029B1064A48
:100A8000D2690243044BDA6104E0034AD26982432B
:100A9000014BDA61704700000010024029B1064A9C
:100AA00012690243044B1A6104E0034A126982434B
:100AB000014B1A61704700000010024029B1064A3C
:100AC00092690243044B9A6104E0034A92698243AB
:100AD000014B9A61704700000010024029B1064A9C
:100AE000D2680243044BDA6004E0034AD2688243CE
:100AF000014BDA60704700000010024070B500241E
:100B0000002580211E48FFF7E3FE012001F016FBBF
:100B100080211B48FFF7DEFE012001F00FFB402182
:100B20001748FFF7D5FE012001F008FB40211448CB
:100B3000FFF7D0FE80211248FFF7CAFE012001F026
:100B4000FDFA00BF18E040210D48FFF7C1FE01206B
:100B500001F0F4FA0520FFF7D9FEC0F307100949A8
:100B60004855681CC5B240210548FFF7B3FE012077
:100B700001F0E4FA601CC4B2802CE4DB70BD00001C
:100B8000000801409401002070470000F0B50020EB
:100B90005E4D2D686C425E4D2D681A2D03DA1A25C4
:100BA0005B4E356006E05A4D2D68652D02DD6525EA
:100BB000574E3560564D2D78564E357020E048B969
:100BC000554D544E367855F82650A54202DA514D0F
:100BD0002A78012001280ED14F4D4E4E367855F817
:100BE00026504A4E3668B54205DD4A4D2978022026
:100BF0008D1AEBB208E0474D2D786D1C454E3570CF
:100C0000444D2D787F2DDADB00BF02280ED1032B57
:100C10000CDD0F2B0ADA8D1805EBD57676103F4FD9
:100C20003E6001253E4E3570002003E000253C4E1D
:100C300035700020364D2D78364E357020E058B98D
:100C4000354D344E367855F82650304E3668B5421C
:100C500002DD304D2978012001280CD12E4D2D4E7A
:100C6000367855F82650A54205DA2A4D2A78022012
:100C70008D1AEBB208E0274D2D786D1E254E35708C
:100C8000244D2D78002DDADC00BF02280ED1032B75
:100C90000CDD0F2B0ADA8D1805EBD5767610214F77
:100CA0003E600125204E3570002003E000251E4ED9
:100CB000357000201C4D2D78012D0DD1184D2D784B
:100CC000012D09D1174E3668144F3F68F51905EB11
:100CD000D57676100E4F3E60134D2D78012D08D13C
:100CE0000F4D2D782DB90F4D2D681935084E3560F3
:100CF0000BE00D4D2D7845B9094D2D78012D04D10E
:100D0000064D2D68193D024E3560F0BD580100209A
:100D10004C010020380100209402002044010020F2
:100D2000480100203C010020400100200020204913
:100D3000087031E01F491E480078401C085C1C4ABE
:100D40001278895C411A1C48194A127840F822101E
:100D50001749097850F8210018490968884206DDCA
:100D600015481349097850F82100144908601248C1
:100D70000F49097850F8210011490968884206DABC
:100D80000D480B49097850F821000D4908600848C2
:100D90000078401C06490870054800787F28C9DBA8
:100DA0000649086800EBD0714910064A1160704787
:100DB000380100201402002094020020500100207D
:100DC000540100205801002010B500F001F810BDBA
:100DD0000CB50020019000903348006840F480304A
:100DE0003149086000BF3048006800F400300090CE
:100DF0000198401C0190009818B90198B0F5A06FB7
:100E0000F1D12948006800F4003010B101200090B1
:100E100001E0002000900098012843D12348006899
:100E200040F01000214908600846006820F00300E7
:100E300008600846006840F0020008601A484068F0
:100E4000194948600846406848600846406840F4D0
:100E5000806048600846406820F47C10486008467E
:100E6000406840F4E81048600846006840F0807030
:100E7000086000BF0C48006800F000700028F9D03E
:100E80000948406820F00300074948600846406868
:100E900040F00200486000BF0348406800F00C00CA
:100EA0000828F9D10CBD00000010024000200240CB
:100EB00025480068401C244908600846006823490A
:100EC00090FBF1F201FB12001F4908600846006820
:100ED0000A2190FBF1F201FB120018B901201C4914
:100EE000086002E000201A490860174800683221B3
:100EF00090FBF1F201FB120018B9012015490860BE
:100F000002E00020134908600F4800686B2190FB45
:100F1000F1F201FB120018B901200F49086002E04C
:100F200000200D49086008480068672190FBF1F235
:100F300001FB120018B901200849086002E00020F6
:100F400006490860704700008800002080EE3600E7
:100F50008C000020900000209800002094000020C9
:100F600010B51348006840F00100114908600846B8
:100F70004068104908400E494860084600680E491C
:100F800008400B4908600846006820F4802008608B
:100F90000846406820F4FE0048604FF41F00886057
:100FA000FFF712FF4FF000600449086010BD000019
:100FB000001002400000FFF8FFFFF6FE08ED00E021
:100FC000F0B50C46154600220021068C4FF6FE7740
:100FD0003E400684028B018C4FF60C7632407E1C1C
:100FE00006EA03162E433243104EB0420ED0104E86
:100FF000B0420BD0B0F1804F08D00E4EB04205D0B9
:101000000D4EB04202D00D4EB04206D14FF6FD76E5
:10101000314044F00106314305E04FF6F5763140AA
:1010200044F00106314302830184F0BD002C0140ED
:10103000003401400004004000080040000C004063
:10104000F0B50C461546002200210026078C4FF60D
:10105000EF7C07EA0C070784028B018C4FF6FF77C1
:1010600007EA041640F6FF473A404FF6FF7707EAD3
:1010700003373A434FF6FF7707EA05273A43114F04
:10108000B8420ED0104FB8420BD0B0F1804F08D00C
:101090000E4FB84205D00E4FB84202D00D4FB842A5
:1010A00006D14FF6DF77394046F01007394305E0A7
:1010B0004FF65F77394044F01007394302830184CB
:1010C000F0BD0000002C014000340140000400404D
:1010D00000080040000C0040F0B50C461546002208
:1010E00000210026078C4FF6FF6C07EA0C070784E7
:1010F000828B018C4FF6FF7707EA04264FF60C77B8
:101100003A404FF6FF7707EA03172F433A43114F50
:10111000B8420ED0104FB8420BD0B0F1804F08D07B
:101120000E4FB84205D00E4FB84202D00D4FB84214
:1011300006D14FF6FF57394046F48077394305E032
:101140004FF2FF57394044F480773943828301845A
:10115000F0BD0000002C01400034014000040040BC
:1011600000080040000C0040F0B50C461546002277
:1011700000210026078C4EF6FF7C07EA0C07078447
:10118000828B018C4FF6FF7707EA043640F6FF4763
:101190003A404FF6FF7707EA05273A434FF6FF77C5
:1011A00007EA03373A43114FB8420ED0104FB84206
:1011B0000BD0B0F1804F08D00E4FB84205D00E4F83
:1011C000B84202D00D4FB84206D14DF6FF773940F4
:1011D00046F48057394305E047F6FF57394044F459
:1011E0008057394382830184F0BD0000002C014008
:1011F000003401400004004000080040000C0040A2
:1012000010B520215948FFF75AFB012802D158494F
:10121000087002E00020564908700221554800F08D
:101220003FFB01284DD10221524800F0FEF9514800
:1012300000F02FFB504908605048006840F253719D
:1012400048434D49096801EB40104D490968401A6F
:101250004C4908604C4800686421B0FBF1F0D22191
:10126000484300EB8000400048490860454800685A
:1012700040F62711484346490860464804684348F9
:1012800000680968B0FBF1F042490860384800780E
:1012900018B908460068404208603E4908680028BE
:1012A00001DB014600E04142B1F57A7F01DD3948BA
:1012B00004600020314908602F4800683049086008
:1012C00052E010212B4800F0EBFA01284CD11021FC
:1012D000284800F0AAF9274800F0DEFA2E490860F5
:1012E0002E48006840F2537148432B49096801EBCE
:1012F00040102B490968401A2A49086022480068B2
:101300006421B0FBF1F0D221484300EB80004000A3
:101310001E4908602348006840F6271148431C49CD
:10132000086021480468194800680968B0FBF1F0BA
:101330001D4908600E48007818B908460068404208
:10134000086019490868002801DB014600E04142B5
:10135000B1F57A7F01DD144804600F480068104938
:10136000086000200D49086010BD00000018014011
:1013700000010020002C01404C00002064000020EF
:10138000500000205C0000209C0000206C00002029
:101390007000002028000020540000206800002079
:1013A00058000020600000203000002000B589B007
:1013B0000121C802FFF782FB01211020FFF77EFB0D
:1013C0004FF41060ADF8040028208DF807000320CA
:1013D0008DF8060001A93548FFF7E6F94FF41061D2
:1013E0003248FFF775FA4EF65F20ADF81000632023
:1013F000ADF80C000020ADF81200ADF80E008DF82D
:10140000140003A92A4800F04FFC06A800F0B0FA27
:101410000020ADF81800ADF81A000120ADF81C004E
:101420000020ADF81E00ADF8200006A9204800F00D
:1014300049FA0C20ADF8180006A91D4800F042FA40
:101440001B208DF8080002208DF809008DF80A0095
:1014500001208DF80B0002A8FFF7ACFA19208DF8D7
:10146000080001208DF809008DF80A0002A8FFF796
:10147000A1FA012213210E4800F083FA01210C4841
:1014800000F0D6F801214020FFF718FB04208DF86A
:10149000070003208DF806006020ADF8040001A9C4
:1014A0000448FFF781F909B000BD000000080140C1
:1014B000002C01400018014010B50121174800F030
:1014C000EFF9012829D116480068401C144908602A
:1014D00008460068022809DD00201249086010480B
:1014E0000068052802DD05200D4908600E480068E7
:1014F000401C0D49086008460068022809DD0020EC
:101500000A49086008480068052802DD05200649E8
:1015100008600121014800F088F810BD002C01404E
:101520006400002028000020680000203000002017
:1015300010B50120034908700121800700F075F8FB
:1015400010BD00000C0100201FB501210846FFF767
:1015500095FA4FF0804000F087F840F6B830ADF8CB
:1015600008004720ADF804000020ADF80A00ADF8EF
:10157000060001A94FF0804000F096FB01221146C1
:10158000900700F0FEF900214FF0804000F050F885
:101590001C208DF8000002208DF801008DF802005B
:1015A00001208DF803006846FFF704FA012188073F
:1015B00000F03BF81FBD0000012001490870704792
:1015C0000D0100200EB501211020FFF757FA0E483B
:1015D00000F04AF840F6B830ADF804004720ADF806
:1015E00000000020ADF80600ADF80200694606488C
:1015F00000F05AFB01221146034800F0C2F9002115
:10160000014800F015F80EBD0010004021B102881D
:1016100042F08002028004E002884FF67F731A4095
:1016200002807047CA4302827047CA4302827047F1
:1016300021B1028842F00102028004E002884FF6E4
:10164000FE731A400280704731B1B0F8442042F472
:101650000042A0F8442005E0B0F84420C2F30E0296
:10166000A0F844207047000010B504466848844242
:1016700008D10121C014FFF731FA0021E014FFF76F
:101680002DFAC4E0B4F1804F08D101210846FFF7DC
:1016900005FA00210120FFF701FAB8E05D48844215
:1016A00008D101210220FFF7F9F900210220FFF7FC
:1016B000F5F9ACE05848844208D101210420FFF735
:1016C000EDF900210420FFF7E9F9A0E05348844236
:1016D00008D101210820FFF7E1F900210820FFF7D8
:1016E000DDF994E04E48844208D101211020FFF733
:1016F000D5F900211020FFF7D1F988E0494884424C
:1017000008D101212020FFF7C9F900212020FFF78F
:10171000C5F97CE04448844208D101214014FFF718
:10172000DDF900216014FFF7D9F970E03F488442E9
:1017300009D10121C804FFF7D1F900214FF400209D
:10174000FFF7CCF963E03A48844209D1012108054A
:10175000FFF7C4F900214FF48010FFF7BFF956E0FE
:101760003448844209D101214805FFF7B7F9002127
:101770004FF40010FFF7B2F949E02F48844208D136
:1017800001214020FFF78AF900214020FFF786F968
:101790003DE02A48844208D101218020FFF77EF9EC
:1017A00000218020FFF77AF931E02548844208D1F2
:1017B00001218015FFF772F90021A015FFF76EF9DE
:1017C00025E02048844209D101210804FFF786F969
:1017D00000214FF48030FFF781F918E01A48844265
:1017E00009D101214804FFF779F900214FF40030B5
:1017F000FFF774F90BE01548844208D101218804F1
:10180000FFF76CF900214FF48020FFF767F910BD56
:10181000002C01400004004000080040000C004083
:10182000001000400014004000340140004C014012
:10183000005001400054014000180040001C0040CE
:1018400000200040004001400044014000480140A9
:10185000F0B50C4615461E460021002200230189E2
:10186000028B038C4FF6F877394021434FF6FC4743
:101870003A4040F201173A434FF6DD773B404FF6CE
:10188000FF7707EA06172F433B4301810283038456
:10189000F0BD0146888E70470146B1F840007047A0
:1018A00030B50246002000230024158A05EA010312
:1018B000958905EA010413B10CB1012000E0002074
:1018C00030BD000070B505460C46244885420ED058
:1018D000234885420BD0B5F1804F08D0214885427E
:1018E00005D02148854202D02048854200D100E041
:1018F00000BF208850B92389A28861882846FFF755
:101900005FFBE188284600F0A2F925E02088042842
:101910000AD12389A28861882846FFF791FBE188D4
:10192000284600F09DF917E0208808280AD123896D
:10193000A28861882846FFF7CFFBE188284600F09F
:101940009CF909E02389A28861882846FFF70CFCEE
:10195000E188284600F09AF970BD0000002C014093
:10196000003401400004004000080040000C00402A
:10197000002101804180012181800021C1800181FD
:1019800070471AB183890B43838102E083898B43BB
:101990008381704770B5002400220023058C4FF628
:1019A000FE7635400584028C8388048B4FF68F7554
:1019B0002C40B51E2C400D882C43751E2A400D89E5
:1019C0002A434D882A43144DA8420BD0134DA842F8
:1019D00008D0134DA84205D0124DA84202D0124D96
:1019E000A84213D14FF6F7752A404D892A434FF686
:1019F000FB752A408D882A434FF6FF652B404FF632
:101A0000FF552B408D892B43CD892B438380048345
:101A1000CD888586028470BD002C014000340140D1
:101A20000040014000440140004801400A460021B6
:101A3000018B4FF6F7731940114301837047000083
:101A400070B5002400220023058C4FF6EF76354058
:101A50000584028C8388048B48F6FF752C404FF672
:101A6000FF452C400D884FF6FF7606EA05252C43EE
:101A70004FF6DF752A400D8906EA05152A434D8881
:101A800006EA05152A43154DA84202D0144DA84276
:101A90001DD14FF67F752A404D894FF6FF7606EA35
:101AA00005152A434FF6BF752A408D8806EA0515AD
:101AB0002A434FF6FF352B404FF2FF752B408D899F
:101AC00006EA85052B43CD8906EA85052B438380ED
:101AD0000483CD880587028470BD0000002C01407E
:101AE000003401400A460021018B4FF2FF73194078
:101AF0004FF6FF7303EA0223194301837047000086
:101B000070B5002400220023058C4FF6FF66354097
:101B10000584028C8388848B4FF68F752C404FF69A
:101B2000FC752C400D882C434FF6FF552A400D893B
:101B30004FF6FF7606EA05252A434D8806EA052575
:101B40002A43154DA84202D0144DA8421DD14FF290
:101B5000FF752A404D894FF6FF7606EA05252A4390
:101B60004FF6FF352A408D8806EA05252A434EF6B2
:101B7000FF752B404DF6FF752B408D8906EA051544
:101B80002B43CD8906EA05152B4383808483CD88BA
:101B90008587028470BD0000002C014000340140A4
:101BA0000A460021818B4FF6F77319401143818358
:101BB0007047000070B5002200230024058C4EF60B
:101BC000FF7635400584038C8488828B48F6FF7548
:101BD0002A404FF6FF452A400D884FF6FF7606EA69
:101BE00005252A434DF6FF752B400D8906EA05357C
:101BF0002B434D8806EA05352B430B4DA84202D0F6
:101C00000A4DA84208D14BF6FF752C408D894FF63E
:101C1000FF7606EA85152C4384808283CD88A0F860
:101C20004050038470BD0000002C0140003401408E
:101C30000A460021818B4FF2FF7319404FF6FF7364
:101C400003EA022319438183704781847047028B22
:101C50004FF6F3731A400283028B0A4302837047E4
:101C6000028B4FF2FF331A400283028B4FF6FF7351
:101C700003EA01231A4302837047828B4FF6F37302
:101C80001A408283828B0A4382837047828B4FF291
:101C9000FF331A408283828B4FF6FF7303EA0123DE
:101CA0001A43828370470000002202881D4B98422D
:101CB0000ED01D4B98420BD0B0F1804F08D01B4B7B
:101CC000984205D01A4B984202D01A4B984204D140
:101CD0004FF68F731A404B881A43174B984207D020
:101CE000164B984204D04FF6FF431A40CB881A4354
:101CF00002808B8883850B8803850A4B98420BD022
:101D0000094B984208D00E4B984205D00D4B984293
:101D100002D00D4B984201D10B7A038601238382B6
:101D200070470000002C01400034014000040040D6
:101D300000080040000C004000100040001400406B
:101D400000400140004401400048014038B50546CC
:101D50000C4601210420FEF7B1FE18208DF8030087
:101D600003208DF802000F20ADF8000069462C48D2
:101D7000FEF71AFD01210820FEF780FE29480580A4
:101D80002948008827498880002048802748FFF795
:101D90008BFF602026490880002008810846C48007
:101DA000012048802148FFF7F5FD21491F48FFF732
:101DB00047FE1F491D48FFF7A3FE1D491B48FFF7BB
:101DC000F9FE08211948FFF731FE08211748FFF7EF
:101DD00089FE08211548FFF7E3FE08211348FFF7A5
:101DE00027FF01211148FFF711FC01210F48FFF7E0
:101DF0001FFC01210D48FFF727FC01212020FEF7E1
:101E00005DFE10208DF8030003208DF80200FF20F6
:101E1000ADF8000069460748FEF7C6FC38BD000073
:101E200000080140780100200E000020000C004056
:101E300082010020001401401FB501214120FEF75E
:101E40003DFE10208DF8030003208DF802000520D0
:101E5000ADF8000069462248FEF7A6FC28208DF860
:101E600003000A20ADF8000069461D48FEF79CFCFF
:101E7000002201211A48FEF72FFD002204211848F4
:101E8000FEF72AFD0A20FEF779FB01210420FEF768
:101E90006BFC03210420FEF767FC0A200190002060
:101EA0008DF8080010208DF8090001208DF80A0037
:101EB00001A8FEF77DFB07208DF80C0003208DF8AC
:101EC0000D008DF80E0001208DF80F0003A8FEF71D
:101ED00071FD09208DF80C0003A8FEF76BFD1FBDF6
:101EE0000018014010B51048007810B900200F49C3
:101EF000087000200C490870012211460C48FEF7BA
:101F0000EBFC012204210A48FEF7E6FC0F2000F05A
:101F100015F9002201210648FEF7DEFC002204210B
:101F20000348FEF7D9FC10BD10010020740000200A
:101F30000018014000BFFEE700200D49087011E0C5
:101F40000C480B490978405C0B49094A1278895CB6
:101F500008440849064A1278885405480078401C0D
:101F600003490870024800788028E9DB70470000C8
:101F70003801002094010020BC27000802E008C8B6
:101F8000121F08C1002AFAD170477047002001E0F3
:101F900001C1121F002AFBD17047000000B5FFF7F6
:101FA000CBFFFEF7CFFCFEF7C1FEFEF7EFFD1449B5
:101FB0000968A1F13F00C11700EB5161C9114FF44D
:101FC000167251430F4A11600F490968A1F13F0091
:101FD000C11700EB5161C9114FF4167251430B4AFE
:101FE00011600B490968A1F13F00C11700EB516175
:101FF000C9114FF416725143064A116000BD00002A
:1020000044010020040000203C01002000000020CA
:102010004C0100200800002070B53B4B1B683B4C76
:10202000236023461B683A4C24681B1B4343374CF0
:10203000246801FB0433354C2468354D2D68022695
:1020400006FB1544334D2D682C4402FB0433324CFF
:1020500023602F4B1B682F4C23602C4B1B682C4C90
:1020600023602E4B1B682C4C246823442B4C23608C
:1020700023461B6840F6B83494FBF3F3284C2360E6
:102080002368002B01DB1C4600E05C42254D2C60E0
:102090002B461B68B3F57A7F04DB4FF49673224C12
:1020A00023600AE01F4B1B68322B03DB64231E4CAA
:1020B000236002E032231C4C2360194C2468C8259D
:1020C00095FBF4F303EBD3746410641C164D2D6878
:1020D0006C43164D2C602B461B68154C2360104C2E
:1020E0002468C82595FBF4F303EBD3746410C4F1A2
:1020F00001040D4D2D686C430E4D2C602B461B6862
:102100000D4C236070BD00007C00002018010020F1
:102110001C010020200100202801002024010020B3
:1021200030010020340100202C0100201400002088
:10213000180000201C00002020000020002107E0E3
:10214000002201E0531C9AB2092AFBDB4B1C99B216
:102150008142F5DB7047000013480088134908608E
:102160000846006812490968401A12490860084682
:10217000006810F57A6F05DA0846006800F5FA5035
:1021800008600AE00B480068B0F57A6F05DD094881
:102190000068A0F5FA500749086003480088044920
:1021A0000860044800687047243401403C00002067
:1021B00034000020380000201348008813490860CC
:1021C0000846006812490968401A12490860084622
:1021D000006810F57A6F05DA0846006800F5FA50D5
:1021E00008600AE00B480068B0F57A6F05DD094821
:1021F0000068A0F5FA5007490860034800880449C0
:102200000860044800687047240800404800002027
:1022100040000020440000204FF4A060FEF702FCC4
:102220004148018841480088FFF790FDFEF70AFA0F
:1022300000F0A0FAFFF7BAF8FFF786F9FFF7C2F946
:10224000FFF7FAFDFEF7C2F800F08AFA6BE03848B3
:10225000006808B1FEF752FC36480068D0B3FFF7BB
:102260007BFF3549086035483549086032480068C9
:10227000D22148434FF47A71484300EB800040007C
:1022800030490860084600682D49096890FBF1F064
:102290002D490860FFF790FF274908602748284923
:1022A000086025480068D22148434FF47A714843BA
:1022B00000EB800040002349086008460068204980
:1022C000096890FBF1F0214908600122114610468F
:1022D00000F04CF81E48006808B1FFF703FE1D48E7
:1022E000006800B3FFF75AFE1B48007848B91B4846
:1022F00000681B490860012211461046FFF78CFE5A
:1023000011E015480078022804D1164800681449E5
:10231000086003E014480068114908600122114672
:102320001046FFF779FE92E7100000200C00002015
:102330008C000020900000208000002078260700FC
:10234000700000206C000020240000202C000020E1
:102350009800002094000020740000200800002055
:102360007C000020000000200400002070B504461E
:102370000D461646DA480068DA490968401ADA4913
:10238000086008460068D9490968401A6043D64980
:10239000096805FB0100D4490968D44A1268022380
:1023A00003FB1211D24A1268114406FB0100D14905
:1023B0000860CE480068CE490860CB480068CB4929
:1023C0000860CD480068CB4909680844CA490860DC
:1023D00008460068002819DA0121C848FEF77AFA91
:1023E0000221C648FEF774FAC3480068C449098848
:1023F0004942884204DAC24800884042BE49086027
:10240000BD4800884042BF49C88015E00221BB4852
:10241000FEF760FA0121B948FEF75AFAB64800689B
:10242000B7490988884203DDB5480088B249086089
:10243000B1480088B349C880B249B348FFF7AAFA47
:102440000821B148FFF7F2FAB0480068B0490968BE
:10245000401AB049086008460068AF490968401A48
:102460006043AC49096805FB0101AA480068AA4A13
:102470001268022303FB1200A84A1268104406FBEC
:102480000010A7490860A4480068A4490860A14852
:102490000068A1490860A3480068A1490968084488
:1024A000A049086008460068002819DA042193480A
:1024B000FEF710FA08219148FEF70AFA99480068D9
:1024C0008F4909884942884204DA8D480088404291
:1024D000944908609348008840428A49C88015E0C2
:1024E00004218648FEF7F6F908218448FEF7F0F942
:1024F0008C48006882490988884203DD804800884A
:1025000088490860874800887E49C8807D497E48A0
:10251000FFF796FA08217C48FFF7E4FA8248006842
:1025200082490968401A8249086008460068814962
:102530000968401A60437E49096805FB01007C492F
:1025400009687C4A1268022303FB12117A4A126856
:10255000114406FB01007949086076480068764915
:1025600008607348006873490860754800687349DB
:10257000096808447249086008460068002819DAAA
:1025800010215E48FEF7A6F920215C48FEF7A0F96D
:102590006B4800685A4909884942884204DA584819
:1025A00000884042664908606548008840425549B5
:1025B000C88015E010215148FEF78CF920214F48C2
:1025C000FEF786F95E4800684D490988884203DDB8
:1025D0004B4800885A490860594800884949C880D2
:1025E00048494948FFF78CFA08214748FFF7D8FACD
:1025F0005448006854490968401A5449086008461C
:10260000006853490968401A60435049096805FB4E
:1026100001014E4800684E4A1268022303FB120073
:102620004C4A1268104406FB00104B4908604848A9
:1026300000684849086045480068454908604748BF
:10264000006845490968084444490860084600682C
:10265000002819DA40212948FEF73CF98021274853
:10266000FEF736F93D480068254909884942884205
:1026700004DA234800884042384908603748008817
:1026800040422049C88015E040211C48FEF722F94D
:1026900080211A48FEF71CF930480068184909885B
:1026A000884203DD164800882C4908602B480088C2
:1026B0001449C88013491448FFF77CFA08211248CE
:1026C000FFF7B6FA01211048FEF7A0FF01210E48DE
:1026D000FEF7AEFF01210C48FEF7B6FF70BD00000B
:1026E0001400002024000020B0000020B4000020CE
:1026F000B8000020BC000020C000002000140140F1
:102700000E00002082010020000C00401800002074
:1027100028000020C4000020C8000020CC000020B9
:10272000D0000020D40000201C0000202C0000203D
:10273000D8000020DC000020E0000020E4000020A1
:10274000E80000202000002030000020EC000020E5
:10275000F0000020F4000020F8000020FC00002021
:1027600001200349086048601E208860704700000F
:102770005C01002010B5104800684FF47A71B0FB7E
:10278000F1F4B4F1807F00D311E024F07F40401ECB
:102790004FF0E02148610F214FF0FF30FEF74CF978
:1027A00000204FF0E02188610720086100BF002170
:1027B000481EFEF741F910BD9C00002000000000FB
:1027C0000000000000000000000000000000000009
:1027D00000000000000000000000000000000000F9
:1027E00000000000000000000000000000000000E9
:1027F00000000000000000000000000000000000D9
:1028000000000000000000000000000000000000C8
:1028100000000000000000000000000000000000B8
:1028200000000000000000000000000000000000A8
:102830000000000000000000000000005C2800080C
:10284000000000205C0100008C01000884280008C2
:102850005C010020340700008C1F0008C1124705EE
:102860003EE7032C011AFF01A908013D84A24A0496
:102870000009500102030406070809093AEF72280B
:042880007258F24058
:0400000508000145A9
:00000001FF
